:020000042000DA
:1000000000980020A5040020AD040020C5040020B5
:1000100000000000000000000000000000000000E0
:10002000000000000000000000000000DD040020CF
:100030000000000000000000F5040020F70400208C
:1000400089270020672800200D3103005528002053
:10005000EB2700208D31030079280020872800201D
:10006000F9040020091F0020C7280020AD3103003B
:100070005781020053220020F9040020F9040020D7
:10008000F9040020F9040020F9040020C31E002018
:10009000C71E0020CB1E0020CF1E0020D31E002034
:020000042000DA
:1001600032000000CD06002023240020E12C0020D6
:10017000000000000000000063800200BD8002005B
:10018000C10A0020FB8002001981020035810200B3
:100190005D810200CD2500203D0B0020AD0A00202E
:1001A000B70A002000000000000000003F0000002F
:1001B000F48B002000040000740B080048010000CC
:1001C0006807080000040000C80C080020050000B3
:1001D000000000002000000048000000580000005F
:1001E0006800000004010000160100002801000062
:1001F0002E010000202A00008E2E000001000000C9
:1002000088130000AD240020E9600200FD93020085
:100210006113002019280300A574020015060020B0
:1002200003000000D5200200152D0020040000006E
:10023000D74902000F4902001D0C00206391020003
:10024000B7910200BF910200078202007182020092
:10025000C83F0020AD830200938402004185020064
:1002600015860200378602005F860200758602004E
:10027000F9870200258902005D8A0200D38C020002
:10028000098D02000F900200438D0200278E0200AC
:10029000F98E0200478F0200230A0020D58F02004A
:1002A00049510200775102002F5202001000000055
:1002B00020030000803E000000000000000000005D
:020000042000DA
:1002C000504600030003983A6400F401B80B000C98
:1002D000B80B120030003000CD009A01120024004B
:1002E00030006400B0001800280012001200D0078F
:1002F0000000FFFF00000000000000000000000000
:100300001F000002444131343538302D30310000B7
:1003100000000000000000000000000000000000DD
:0403200000000000D9
:020000042000DA
:10034000FFFF010000C201000000000000000000EB
:100350000000F40101000104000F0303191800005C
:10036000000000000000000000000000000000008D
:10037000000000000000000000000000000000007D
:10038000000000000000000000000000000000006D
:10039000000000000000000000004D494E445F4195
:1003A00053534953545F544147000000000000007C
:1003B000000000000000000000000000000000003D
:1003C000000000000000000000000000000000002D
:1003D0000000000000000000020000CAEA80D00710
:0403E000064064323D
:020000042000DA
:100440000348854603F044FA00480047C7200200ED
:10045000009800200F4906200880FF200E49013037
:1004600008600E4988683E2290432E308860002242
:10047000052000070280018A0F231B021943018215
:1004800001210748C90404C1401E0028FBDA62B6F6
:10049000704700000034005080E100E0003300505D
:1004A000FF0B00001548804715480047042071469F
:1004B000084203D0EFF3098012490847EFF30880A0
:1004C0001049084704207146084203D0EFF3098021
:1004D0000D490847EFF308800B490847042071468F
:1004E000084203D0EFF3098008490847EFF308807A
:1004F00006490847FEE7FEE7FEE700005504002036
:10050000410400207905002011050020210E002063
:1005100005221207518A8023194351821349036827
:100520000B6043684B6083688B60C368CB60036972
:100530000B6143694B6183698B61C369CB6108625D
:100540000B48836A4B62C36A8B62036BCB62C36BDB
:100550000B63436B4B63806B8863064908200880FC
:10056000908A800601D500BE7047FEE7001808009B
:1005700000ED00E000330050052109070A8A04233A
:100580001A430A820A8A02231A430A820A894023EA
:100590001A430A811B4B01221A601B4B08221A8046
:1005A0004A8A80231A434A82184A036813614368BF
:1005B000536183689361C368D361036913624369BC
:1005C000536283699362C369D36210631048836A7C
:1005D0005363C36A9363036BD363C36B0B4A4032A9
:1005E0001360436B5360806B9060888A800608D5E7
:1005F00000BE488A012280088000D203104348824E
:100600007047FEE780E200E0003300504018080029
:1006100000ED00E070B516460C460546012802D0F4
:100620000C2D26D10DE006222149224803F062F963
:1006300000281ED006221F49304603F061F906202B
:1006400012E01D4D29680878C00610D520782028B2
:1006500003D200202070042070BD0A7E30463A315B
:1006600003F04EF92868007E2070002070BD012044
:1006700070BD32462146284603F048F970BD70B57A
:100680000E480F49C405228880252A4322800D4A3E
:1006900053891B0701D4401EFAD20B4A0120106077
:1006A0000622044803F02CF92088A843208070BD5E
:1006B000383E030000800020C0060800A08601002C
:1006C000D47F0400200000500080004008B500F0F6
:1006D00042FA052400252407C826684F09E00421B2
:1006E0006846009503F018F9002817D000F0A7F924
:1006F00014E02089000611D501208007006B00045A
:100700000CD403F00FF9C00708D1042003F010F94E
:10071000009003F013F900980028E0D172B602F0BF
:1007200025F9042806D002280BD0032809D0012877
:1007300016D016E052480078012801D0032000E0CE
:10074000022000F011F8A08A800602D54D49082049
:10075000088030BF4C48016904229143016100E0E8
:1007600030BF62B63E80C4E7F8B50446684605254A
:1007700004702D07288A0421084328824348444FE7
:10078000C0690126012811D9032C18D103F0DCF827
:10079000002814D003F0DEF8002810D0032003F066
:1007A000DFF800280BD00220387009E0032C06D1B6
:1007B000032003F0D5F8002801D03E7000E00224A9
:1007C00068460470204600F023F800203149022CCE
:1007D000087001D0032C1AD12F494A88FF23013316
:1007E0009A434A806A882D4B1A804A8832434A804D
:1007F00000900099491C00911429FADB6989890845
:100800008900491C698169894906FCD56880F8BD61
:1008100010B5022801D0032828D11B490B690422F6
:1008200013430B61052109074B8A2024A3434B8204
:100830000B8A022423430B8210230228488A16D0F5
:10084000104348827F220888920180242043088038
:100850000020401CC0B20A28FBD3488A18434882B3
:100860000F48521E42610888A043088010BD104303
:100870004882488A9843488210BD000000310050E9
:10088000540208000033005000ED00E0E0010020B9
:10089000C4060800758000202000005076800020EB
:1008A000008000407047000026480178002902D0EF
:1008B0008021417070472449002008702349C87086
:1008C000704720480178002902D08121417070478B
:1008D0001D49012008701D49C870704719480178EA
:1008E000002902D082214170704700BE16490220C3
:1008F000087016490120C8707047002804D00128EC
:1009000003D0022802D1E9E7CEE7DAE770470D48C5
:10091000C07870470020EFF31081012282F3108825
:10092000052212071289120605D4094802890123FB
:100930001A4302811846002900D0012181F3108852
:10094000704700000780002054020800C606080017
:100950000033005070B50520000701893022914313
:10096000018101898022114301810189890889005F
:10097000491C01810189082319430181AF490C8871
:1009800014430C80448A9C434482058940242543B7
:100990000581058A0426B5430582858AAD07FCD505
:1009A000A74E002575600E8801252E430E804D89C7
:1009B000AE05A44D0E8801D52E4300E0AE430E8057
:1009C0000D887826B54328350D800D8806263543D9
:1009D0000D80458A1D4345820B8893430B80028915
:1009E000A24302814889800503D5944905206031DE
:1009F0008880012080070168821591430160924838
:100A000001683F2252029143421489180160016833
:100A100002031143016070BD10B58C4802F0A6FFBF
:100A200010BD70B5854C6088C006050F02F0A4FFAC
:100A300061881E2291436A001143618070BD70B5C8
:100A400083490120C863C86B0028FCD101208007BE
:100A5000C169804800220368994200D20260784C44
:100A6000012663787C4D002B04D06270016002F097
:100A700089FF11E0026819238A1ADB019A4214D314
:100A8000016002F07FFF2988884201D9411A00E005
:100A9000091A89B2182908D32880012002F078FFAA
:100AA00002F07CFF002800D1667070BD08B502F02E
:100AB0007BFF009008BD08B502F07CFF009008BDE8
:100AC00008B5664901204A695206D20F13D04A6917
:100AD0009206D20F0FD000220A610092FF225F32ED
:100AE000009B5B1C00939342FAD34969C907C90F65
:100AF00002D002F065FF002008BD1FB5684601F076
:100B000006FB009802F062FF1FBD554B00201978CC
:100B100000290DD04E490122CA63CA6B002AFCD1BC
:100B200001218907C9694F4A1268914201D2012007
:100B300070470021197070470020704710B54A496E
:100B400000200860FFF768FF01208007016B490063
:100B50004908016310BDF8B501204149434C0870B4
:100B6000C82525800026668041480827478002F076
:100B700033FF01F037F90D207901800102F032FFD7
:100B8000FFF77DFD02F0DDFD012002F01FFF01F007
:100B9000ABFBFFF7DFFE042000F048F8072000F071
:100BA00045F80A2000F042F8062000F03FF80B203C
:100BB00000F03CF8012000F039F8022000F036F88F
:100BC000002000F033F82B48006802F011FF00F01D
:100BD000A8F800F0E1FF00F0D0F901F086F8A005D8
:100BE0000168821511430160FFF787FFFFF75CFE84
:100BF00002F015FA02F0CAFDFFF7A0FF052000077A
:100C0000C6820E494888E0229043A03048800120E7
:100C100002F0F4FE258016484780F8BD164910B54D
:100C2000884200D000BE02F0EFFE10BDC106C90E22
:100C300001208840114908607047000020000050E2
:100C40000C8000200010000000020040E2040000C0
:100C5000C00000407C040800780408000010005028
:100C6000068000209C4400208C03080000310050C6
:100C700000330050049000201111111180E200E0B7
:100C8000FEB5784D019117461E4600240090294676
:100C900002F0C0FE050005D033463A46019900989F
:100CA000A84704462046FEBDFFB581B01F460E464C
:100CB0004D780C78002002F0B3FE042824D00028E0
:100CC0001DD121E06848816E2E2060430918888874
:100CD0000207120F130002F0A9FE070505050F0514
:100CE0000F050F008204920E062A05D27278012A9F
:100CF00012D0072210438880641C6407640F2846C2
:100D00006D1EEDB20028DDD13B463146039A0198B5
:100D100002F092FE05B0F0BD204602F093FE0020E6
:100D2000F8E770B551480378021D0021504D07E0E7
:100D3000CC00165D002E01D12418A560491CC9B253
:100D40009942F5D370BD028908894A49101A80B2C8
:100D5000884201D90120704700207047FFB586788E
:100D60000446300281B00E30009002F059FE002897
:100D700001D0FF2652E00021442002F069FE3E4FE0
:100D8000B5007851442102F069FE0121009802F07B
:100D90006BFE79590298888079596088C8807859A3
:100DA00022792030417CD20749084900D20F1143F3
:100DB000417478590622A11D3B3002F0A1FD7859FB
:100DC000617940304170785906223430039902F03D
:100DD00097FD795904982031887602980D281DD006
:100DE000264810230088009A81B2254802F042FE6E
:100DF0000546608828806079687228460622A11D11
:100E00000A3002F07DFDA0896880E089A880208AF0
:100E1000E880A07C2872284602F032FE304679E74E
:100E200081692039897F082905D2114A8900103249
:100E3000515881617047FEE70D4A12493032002057
:100E400008CA401C08C11028FADB01200E49C00660
:100E500008600E49CA691202120ACA610A49803939
:100E60000860704784430300D802080004060800A5
:100E7000FC3F002030750000540508006001002090
:100E8000013800001084004080E100E000ED00E047
:100E900070B516460D46104602F0C2FD00286AD015
:100EA000340A304602F0BCFD012812D0A87A1E2870
:100EB00011D029460A310E2846D019DC801E0300C5
:100EC00002F0B4FD0B255929592D59315939593E94
:100ED0005900022070BD3146314802F0D7FD002193
:100EE000204602F0D9FD0221304602F0BDFD42E06D
:100EF00018283DD006DC102819D012282CD016282E
:100F000039D131E0522823D0D22834D128E02046EC
:100F100002F0C8FD2FE0204602F0CAFD2BE020467B
:100F200002F0CCFD27E0204602F0CEFD23E0204673
:100F300002F0D0FD1FE01B4A2046126890471AE0DD
:100F4000204602F0CDFD16E0204602F0CFFD12E073
:100F5000204602F0D1FD0EE0204602F0D3FD0AE06B
:100F6000204602F0D5FD06E0204602F0D7FD02E063
:100F7000204602F0D9FD002070BD70B50A48037804
:100F8000021D0021094D07E0CC00165D0A2E01D19B
:100F90002418A560491CC9B29942F5D370BD000060
:100FA00001280000E03F002004060800CC4000209B
:100FB000F7B507461646019802F0BCFD0546C48801
:100FC000384602F0BDFD401E844200D2204684B265
:100FD00022460B21384602F0B9FD0746002E05D007
:100FE00033460A21019A02F0B7FDFEBD29467C80F6
:100FF00022460831381D02F083FC384602F0B2FD6B
:10100000FEBDF8B50646002000900C464A88014611
:101010006B46304602F0ACFD020001D061881EE054
:10102000608802F0ABFD002817D005890120EAB2E4
:10103000002102F0A9FD0C4B0CCB104019400843D5
:101040000BD032020223294608480A3202F012FD70
:101050006188018002F014FD04E0618800223046BE
:10106000FFF7A6FF0020F8BD28800020022800001E
:10107000F8B50D46064681002B48EA884458521CB4
:1010800020686B89018F294F5143009101464031FF
:101090004A89C989511A8AB2991A89B2B94214D2B5
:1010A0009A4212D0294602F075FD2D8920490098F8
:1010B00002F076FD2818801C4034E0823002401C8B
:1010C00080B2042102F0D0FCF8BD2821304602F0A5
:1010D0006DFDF8BDF8B50546870013480C46C059AC
:1010E000C9880068114E024640325389D2899A1A43
:1010F00092B28B1A9BB2B34211D20B4E8A420ED0DF
:1011000002F05AFDF05905225F30611C02F0F8FB35
:101110002802401C80B2052102F0A6FCF8BD28215F
:10112000284602F043FDF8BD4C030800FF7F000095
:101130001027000070B50446007800250D2801D066
:101140000A2200E002225A494B7A002B06D00D28D1
:1011500004D0637C032B01D0432551E0097A8A43F4
:1011600039D10D2809D00E2802D00F2803D134E040
:10117000607C032804D3402542E0607C0328FAD831
:10118000A07C0428F7D20A2908D0607C012822D04C
:10119000022820D06078032809D811E002F012FD5F
:1011A000012806D16078032803D0002801D0492502
:1011B00026E002F007FD002802D160780228F6D868
:1011C0003020035D22462046E17C3132143000F0AD
:1011D00019F8054614E0422512E002F0F3FC01285C
:1011E00007D16078052804D1A01D02F0F1FC002889
:1011F000DDD002F0E7FC002802D160780228D6D8C2
:10120000284670BDFFB5002086B001216A461170E6
:10121000044605910021002C06D0089D099A1F2341
:101220009A4234D9402032E01C23069D079AF7E702
:101230006B185E78330002F0F9FB1D2610101010B9
:1012400010101010102626262626262626262626AC
:1012500026261010101010102600059B03E06F4684
:10126000FF5CB74204D05B1E5BB2002BF7DA03E0F1
:10127000002B01DB4A2006E0059B6F46FE54059BD0
:101280005B1CDBB205936B5C491C5918C9B29142D7
:1012900001D20028CCD0914202D04A200AB0F0BD41
:1012A000641CE4B2022CF9D20028B3D0F6E70000A7
:1012B0009805080070B5EFF31085012080F31088C1
:1012C0002C4802F08BFC0446002D1DD0012080F339
:1012D0001088002C2DD020464038C08F26498842E7
:1012E00027D16189208902F07FFC05000ED02146BC
:1012F0001031A38962892089A847002806D00128D7
:1013000017D0022815D105E00020E0E7204602F0C2
:1013100071FC0EE0EFF31085012080F31088154872
:1013200021460C3002F06CFC002D0CD0012080F323
:101330001088EFF31084012080F310880D480068B6
:10134000002802D004E00020F1E7012002F05EFC5A
:10135000002C03D0012080F3108870BD0020FAE734
:1013600010B5BC21054802F079FB0549012002F0C7
:1013700053FC10BDA80508003883000004060800CF
:10138000B512002000B502790021130002F04EFBD7
:101390000C34070735352035353535352734427956
:1013A000042A27D8C279530707D05207520F012ABF
:1013B00003D0042A01D0052A1CD18279002A01D049
:1013C000012A17D1007AC01F0A2816D3062114E07B
:1013D0004279521E0A2A10D3082242710DE0407948
:1013E00042070AD04007400F012806D0042804D045
:1013F000052802D00A2100E00721084600BDF3B508
:1014000081B001980C460102CA1D022332480E31F8
:1014100002F030FB04700199054602272F488E0028
:10142000002C06D0042C16D0062C10D0072C3FD14F
:1014300008E0815905224968897C1140697080590A
:10144000C77335E0084602F0EDFB687030E0805964
:101450000F21C1732CE0044680594068417C01296A
:1014600002D1007E01280FD0019802F0E1FB01219A
:101470000028A0590BD04268D07D00281CD001283C
:101480001AD004280DD00FE0002068700DE04068ED
:10149000C27D022A01D0042A06D1007C02280BD189
:1014A00002E0107C022807D06F70A1590320C87396
:1014B000284602F0E5FAFEBD6970F6E701460A78B3
:1014C0000120042A01D90020704749780029FBD067
:1014D0000129F8D170470000021C0000280508000F
:1014E000FFB589B00D4600206946059008720B983B
:1014F000000A009002F09CFB07460B9802F090FA5D
:1015000000287DD00B982978000A8400784E0129A4
:1015100063D0042904D0062948D0072968D125E0E2
:101520003059C17B032901D0042961D16978002990
:101530001AD040681022A91C02F0E2F9002F06D050
:101540003159C87B032807D0042808D050E030590F
:10155000C07B032803D04BE00B20C87348E0052173
:10156000009802F06BFB43E00120B6E03059C07BED
:101570000E283DD1009802F055FB002103E02A1807
:10158000401C9170C0B21028F9D3688A694608835C
:10159000294606A808221431023002F0B1F906AB40
:1015A000AA1C3946009802F04FFB21E03059C07B5D
:1015B0000F281DD1AA1C0A21009802F04BFB002F16
:1015C00004D03946009802F04BFB11E000231A4684
:1015D0003946009802F04AFB0AE0012F08D10B9827
:1015E00002F01EFA01281CD0002801D0022005902C
:1015F0006846007A002811D002AA0521009800E070
:101600000CE002F027FB6846027A6020024368463D
:10161000027201233946009802F028FB05980DB0AC
:10162000F0BD3059C07B0228E2D16878002851D043
:1016300002210B9802F018FA305907224068A91CC1
:10164000173002F05DF9E878002804D1305940687D
:10165000407C01283AD0009802F00EFB002837D0D9
:10166000297A009802F00EFB002833D0009802F08F
:101670000FFB0121009802F011FB00282CD03059FB
:101680004068417E00292BD0042929D0C17E027DEB
:101690001140C17630594068017F427D1140017789
:1016A0006846007A0028A7D1305902214268009884
:1016B000173202F0CFFA305941684031897B002956
:1016C00013D004210098FFF79AFE91E7022004E06E
:1016D000062002E0082000E00320694608728BE73C
:1016E0000021C17630594068D9E70B21C1737FE7EB
:1016F00028050800F8B50546FD49123080B2496E4C
:101700002A2250430C1804202071241D02F0CCFA28
:1017100000902046093004226946064602F0F0F89F
:1017200002F0C2FA009004226946601C02F0E8F858
:1017300002F0BAFA009004226946601D02F0E0F857
:10174000EC4A2946964600204E22EB4BB4465143C4
:10175000420066469619727836781202324376460F
:101760003668871C76187F00FF18F253401C022849
:10177000EEDBE249A80008580822611C783002F02C
:10178000BFF82802401C80B20D2102F06DF90D2136
:10179000284602F08FFAF8BDF3B5044681B0042064
:1017A00002F08EFA0246D549A0000858002A25D03A
:1017B0000299082270300B3102F0A2F802992046FB
:1017C00013318C460022CB4B4E21CB4E4843550063
:1017D00061466F1879783F78090239431F683F18CE
:1017E000AD197953521C022AF1DB20460299FFF70A
:1017F00081FF2046029902F069FAFEBD6030C17B8C
:10180000490704D50621204602F066FAFEBD2102F2
:10181000491C807B8DB2002807D07D2252012946C9
:10182000B74802F05FFA032100E00121284602F0E8
:101830001BF90621204602F05BFAFEBDFFB581B020
:101840000398070A02F0ECF80646102836D004DCAC
:10185000002E37D0082E04D130E0142E32D0152EB1
:101860000BD0A64CBD0060596030C07BC00607D5C8
:101870003D21384602F09AF924E0022005B0F0BD7F
:1018800002F03CFA01281DD1032E07D19C48039990
:1018900002F0FCF860590121603081736059182210
:1018A0006030C17B1143C17360598030007C0028D7
:1018B00004D00721039802F0D7F8DEE738460299F2
:1018C000FFF76AFF0020D9E710B50C4602F01CFABA
:1018D00021888A00894989580968002902D0894BE2
:1018E000C968995010BDF8B50E461046150A02F0A9
:1018F00097F8AC00814F002817D0142815D0152870
:1019000009D038596030C07BC00606D53D21284635
:1019100002F04CF909E0022008E002F0EFF901289A
:1019200003D131462846FFF7A3FB00203959096847
:10193000002902D0734AC9681151F8BDFFB50F469E
:101940001546110A6D4A8800125881B012681E4669
:10195000002A01D0D46803E06A4A002314581350C7
:10196000002C18D0201F4288674B9A4213D1008860
:10197000602810D12046403002898A420BD18088ED
:10198000002808D0A068002802D0204602F0C2F942
:10199000204602F0C5F933462A463946019802F03E
:1019A000C5F96BE7F8B5160A544CB50060591746EF
:1019B00000281CD04030017E104602F055F8384611
:1019C00002F02EF8012802D006280FD108E0615954
:1019D0006031C87B020709D5F7221040C87305E0C3
:1019E00060598030417C304602F0E0F80020F8BDBC
:1019F000F0B50646050285B0681C009080B201462D
:101A000002903F4802F042F80121029802F02CF8BF
:101A100002F074F9394CB7000128E05903D0603066
:101A2000C17BE72214E06030807B002809D07D2252
:101A300052013348029902F055F90321029802F04D
:101A400013F8304602F078F9E0596030C17BEF229C
:101A50001140C173E0596030C17B4A0711D5FB22A8
:101A60001140C1730098ED1D82B225480024A9B22F
:101A700004230D3801F0FEFF4680047002F000F8E8
:101A8000FCE600220121304602F05CF9F6E610B5D2
:101A90001046140A01F0C4FF0B280CD01749A0000F
:101AA00008586030C07BC00603D53D21204602F0B7
:101AB0007DF8002010BD2046FFF79AFFF9E770B5CA
:101AC00010460D46140A01F0ABFF002828D0142858
:101AD00026D015281AD00949A00008586030C07BCC
:101AE000C00615D53D21204602F060F818E0000040
:101AF000D8020800E0010020300008004C03080074
:101B0000240400003080002038830000022070BDD3
:101B100002F0F4F8012803D129462046FFF7DAFA4B
:101B2000002070BDF8B507461D460E461446104607
:101B300001F076FF142806D02B462246314638465F
:101B400002F006F9F8BD0020F8BDF8B507461D46BD
:101B50000E461446104601F063FF142806D02B46AB
:101B600022463146384602F0F9F8F8BD0020F8BDAB
:101B7000FEB5124D019117461E46002400902946DD
:101B800001F048FF050005D033463A460199009818
:101B9000A84704462046FEBD70B509480378021DDB
:101BA0000021084D07E0CC00165D012E01D124185C
:101BB000A560491CC9B29942F5D370BD8C410300A0
:101BC00004060800EC410020FEB5514D0191174676
:101BD0001E4600240090294601F01CFF050005D098
:101BE00033463A4601990098A84704462046FEBD70
:101BF00070B5064614460D46104601F011FF240A42
:101C0000002836D04348301806D001281FD00C28B1
:101C100021D00E2827D11AE02878002829D03E4D5F
:101C2000A600A859428E002A23D041230121204634
:101C300002F09AF8A95900204886A859006800289F
:101C400017D1200201210E3001F00EFF11E028789B
:101C5000002808D10DE0204602F08CF80A2808D1AF
:101C60002878002801D0412100E00021204602F020
:101C700087F8002070BDF8B515460C46104601F0F7
:101C8000CFFE2F0A00282CD0234DBE00A859408E2D
:101C90000D280BD02148A2780088217983B23846DC
:101CA00002F074F8A859408E00280CD02078002843
:101CB00019D04123A8590121428E384602F054F828
:101CC000A95900204886384602F054F8012803D06C
:101CD0004621384602F054F822796188384602F0ED
:101CE0005BF80020F8BD0023E4E7F0B50D480E23B3
:101CF000021D0B4C0578002107E0CE00975D9F4246
:101D000001D13618B460491CC9B2A942F5D3F0BD5F
:101D100028490300F4FBFFFF540508006001002080
:101D20001C42002004060800F3B505462049800047
:101D30000C582802401C87B281B00026384601F0BA
:101D40006FFE152807D19520005D002803D001F013
:101D5000D5FF002818D023464033988AD98A884274
:101D600000D808464004020C99823946114801F017
:101D7000B9FF012194200155384601F075FE8034E9
:101D8000607D002805D101E01F26F8E7A07D00282E
:101D90000CD000206075A075022001F091FF002892
:101DA00004D029463046029A01F0FCFFFEBD000037
:101DB0004C0308002304000005200007018830229E
:101DC00011430180018803221143018070470520DF
:101DD0000007018830229143018001888908890029
:101DE00001807047FEB50020434E034628220021A3
:101DF000424392198C00491C13510A29FADB401CFA
:101E00000428F3DB01F09CFC3B4800220838026008
:101E100042601546002439486900475A0120A04015
:101E200080B207421CD0282068438019A100405886
:101E3000411C19D0002810D0C117224601F0A4FE81
:101E40002A0101F0A1FE2C4B083B1A685B68104385
:101E5000294A1943083A10605160641C0A2CDDDBE2
:101E60006D1C042DD6DBFEBD0095019400BEE3E79A
:101E700070B501242146133881400D4688B200F028
:101E80002AF884401E48C189A9430C43C48170BD0F
:101E900010B50446133804280BD82046FFF7E8FF96
:101EA0001549A000A03140188038406B002801D0AF
:101EB000804710BDE106C90E012088401149086025
:101EC00010BD1320E4E71420E2E71520E0E7162018
:101ED000DEE71720DCE700280AD0411E4840C00397
:101EE000010C002001E04908401C0029FBD100E062
:101EF000102080B270470000289000202C42002063
:101F00000014005080E200E010B5FFF760FF0521EB
:101F100009078888174AC30B104618D0164B1C882F
:101F2000640714D51178890710D519880222114346
:101F3000198019884908490019804468002C05D087
:101F4000985E0421595E0A229A5EA04710BD8988D6
:101F5000C906FBD51178C907F8D0084901228A8043
:101F60000A8880239A430A8080680028EED0804740
:101F700010BD000048800020000200500001005009
:101F800008430121890303460B432E490B802E4B46
:101F900018430880092002434A80704729490A886B
:101FA0000F239B0100079A43800D02430A8070476C
:101FB00024482649028802231A430280491E02D37C
:101FC00002889207FAD400210181408970470AE013
:101FD00000BF00BF00BF00BF00BF00BF00BF00BF09
:101FE00000BF00BF00BF401EF2D2704770B5022292
:101FF000510204464E003046FFF7C2FF1420FFF79F
:10200000E6FF002C01D0092000E00720FFF7C6FF03
:10201000FFF7CEFF05460120FFF7D9FF022200217E
:102020003046FFF7ADFF002C01D0092000E007206B
:10203000FFF7B4FFFFF7BCFF4019024A00211180EF
:1020400070BD00000015005001400000A086010096
:1020500008B589210520000701810121634A490350
:10206000118001888022114301800188890889003C
:1020700001805F48018A02221143018200F05EF96B
:1020800001F096FE01F09AFE0020694601E0088802
:10209000401C088008889128F9D308BD08B5554927
:1020A000002008804880554A534BD380FF23D23309
:1020B0001381C880C3215180514A0821118069468B
:1020C000088003E06A461188491C11806946098826
:1020D0009129F7D36946088003E06A461188491CB4
:1020E0001180694609889129F7D3694601E008887B
:1020F000401C088008889128F9D308BD414A5080C7
:10210000918001201080D088C007FCD17047F1B5C4
:10211000FFB0FFB094B011AC35480494008AA41C01
:102120001090FFF795FF334801880F9141880E9179
:102130003249CA880D920A890C92C2880B92408B50
:102140000A9031484088099048888446FFF7A6FFE6
:1021500000252B46FF2111A8FFF7D0FF00210A46DA
:102160000846049E275C365C7E40F607F60F8E40DC
:102170001643491CC9B2F2B2082906D1FFA9C96C9D
:102180004A556D1C0021ADB20A46194FC8262037AA
:102190003E801030FF2680B2B600B042E1D95B1C11
:1021A0009BB2022BD6D31249109808821449002002
:1021B000088010480F9901800E9941800F490D9AAF
:1021C000CA800C9A0A810B9AC2800A9A42830E4AEC
:1021D00009985080604648800520000701888022C9
:1021E000914301807FB07FB015B0F0BD0002004088
:1021F000E030005000240050808000006028005033
:1022000020200050003500500026005030B4344CDF
:1022100033493448603409E043681A780A60026838
:102220005B1C521E0CC00838002A05D0A28B9207F6
:10223000D20FF1D130BC7047002242604B680224BB
:10224000A3434B6081680029F4D0826030BC002039
:10225000084710B5224881680907090F01291AD0DB
:1022600002291CD0042917D00C2914D11D4A117E33
:10227000012910D141690906C90F0CD00021D16094
:10228000116183885B085B0083805369002B02D057
:1022900001205161984710BD00F004F810BDFFF710
:1022A000B5FF10BD0F490E4809E002680B691A70AE
:1022B000CA685B1C521E0B61CA60002A04D04269C6
:1022C000D207D20FF1D1704700220A6143685B0840
:1022D0005B0043604B69002BF5D000204A61184732
:1022E000001100505480002030B58C498C48CA053C
:1022F000148880231C4314808A4C65892D0701D4DF
:10230000491EFAD2884C01212160884C0188218025
:1023100087494088088010889843108030BD00208D
:102320007047704770477047002070470121890748
:10233000086B0722104308637047704730B57E4929
:102340007C4808607D494C2008807C4C7C4B203CBC
:1023500023827D497B4848807D487C4901807B49B8
:1023600019314180222141818121890001827949ED
:10237000418279490183774911314183744A774910
:10238000203291804122764912018A80754ACA80A2
:10239000744D1035CD810A824A82921C8A826A1F4E
:1023A000CA82FF2246320A836F4A4A836F4A592102
:1023B00011806E496E4D20310D8043254D806D4D4D
:1023C0005582D5228A80FF22D3320A816A4A4A8105
:1023D0006A4A8A816B4A6A49118058496A4A603957
:1023E0004A80CA8810252A43CA80614A0A3A0A816B
:1023F000524D664A403D6A80638208224A814C49B8
:102400005A4A0988403A11824849614A098811802C
:1024100060490978002901D03021018330BD40088E
:10242000704700B58BB05C4A42625C4A82625C4A8B
:1024300042615C4AC2625C4A02605C4A02625C4A77
:1024400042605C4AC2613C4A3A48002110603A4806
:102450004038026B03129A430263426B1F231B0432
:102460009A4303231B04D218426353480268C312E1
:102470009A430260026803139A430260684641541B
:10248000491CC9B22829FAD3014628224B4801F039
:1024900037FAFFF753FF01F075FA49490880002029
:1024A00001F076FA01F07AFA0BB000BD10B52249BE
:1024B0002048086020484038416B1F221204914395
:1024C000032212048918416300060168C908C90083
:1024D000016005200007018989088900491C0181E4
:1024E00001890822114301810E484189890504D5DB
:1024F00001887822914308310180FFF71FFF31489E
:10250000006F0078002804D02F4800880B496039FC
:10251000C880012001F072FA10BD0000A086010001
:10252000087F040020000050008000405602080090
:102530004A0308004C05540780000040602C0050FE
:102540007F7F0000AC290000002200500909000034
:10255000002400502204000030D00000EE110000E2
:10256000002500502E0200004420000040280050AA
:102570000D95000002420000E4DC00001092000013
:1025800053780000002A00508B1000009DD50000F9
:1025900000260050708000201F23002023230020ED
:1025A000292300202D230020252300203B23002069
:1025B000272300201F2400200002004020000800E4
:1025C00078040800E00100205204080070B50125DD
:1025D000AD07AC6B2046FEF76EFAD34901F0E0FA86
:1025E00027221201511A00D10121D04A50601160F6
:1025F000286B0821884308432863CD480460CD48F0
:102600000068002802D0A04200D200BE70BDFFB515
:1026100000256A461570C849096800297CD00A4619
:102620004032937C002B77D0C44CC54B012813D08B
:10263000098D26460907803E0127366FC90EFF0423
:10264000C919715A6E46890B31713179002963D0ED
:102650003179012906D011E06E46E16C317000211C
:1026600099700BE011894E267143B64E2568891981
:10267000695A6E460D0AD17C691A31703178002989
:102680004BD0B14DB049603DAE6E097B2E254D4318
:10269000B446751905E0491C4907490F2E254D43DD
:1026A00065446E463678761E37063F0E6E463770A6
:1026B000F1D1AD786E06760E6D462E712D79AE068F
:1026C000B60E6D462E722E2569439E4DA469463D79
:1026D0004919615A6D46C906C90F2973012805D0E9
:1026E00000209870287B00280FD10BE0287B002861
:1026F00002D1287A00280FD0107D00280CD10120AB
:102700001AE009E0287A002806D0107D002803D1BD
:10271000D07D08210843D075FFBD0128FCD0002DD5
:1027200002D09878002806D0107D002803D1D07DF3
:1027300008210843D07500209870FFBD10B5052012
:1027400000074189890708D04189890889004181AA
:102750007E494A88520852004A80018980221143EA
:102760000181018A042291430182818A8907FCD573
:1027700001F02AFB012080070169490700D500BE4E
:1027800001694907FCD510BDF8B56D4EF0880028E9
:102790002AD101200527F0803F077889800720D0C3
:1027A000B88A400701D500F0CCFF684D2888802109
:1027B00008432880664CFF20608004202080FFF7BB
:1027C000FBFA7D21C900E088A288000480188842B5
:1027D000F9D905202080B08878802988802081431D
:1027E00029805C4910200860F8BD70B5FFF7EFFA4A
:1027F000FFF7A4FF524C00265748E680018949089C
:10280000490001810120800781690422114381610F
:1028100001F0E0FA4F49102080310125086001F0F5
:10282000DFFA01F0E3FA494826704089800510D5A7
:10283000607800280DD1494865700088C00708D12C
:102840000120FFF7D3FB8B218900884201D90220A8
:10285000607070BD10B501F0CFFA00F05DF8384936
:102860000120087010BD10B501208007008A000605
:1028700001D500F051F810BD10B50120FFF7C7FEDB
:1028800001F0C0FA10BD10B50124A407208A00078A
:1028900018D50220FFF7BBFE01F0BAFA206840000D
:1028A00040086100084320602068C00FFCD11F4829
:1028B000803001680906090E01D00121016020491C
:1028C0000420087010BD70B525480088850625488D
:1028D000AD0E44681948006F0078002802D12846E0
:1028E00001F09CFA20480089154EC00507D5200646
:1028F0000BD5E00709D0284601F096FA03E0200640
:1029000003D5E00701D003203070200403D5E00593
:1029100001D50220307070BD10B509490120C87082
:1029200001F088FA10BD0000710200004000004074
:10293000808000207C8000206C030800E0010020E3
:10294000728000204A000800380308002000005070
:102950000016005000E200E0003300500015005067
:102960000020005000020040002C0050FEB5604CDA
:102970000026606D37460090FDF7C9FF5D4D0028C9
:1029800002D12879022801D100200090FEF7BDF87D
:1029900000280ED101F054FA00280AD0554801262B
:1029A000C078002805D005252D07A88AC00701D0CA
:1029B00004269AE000F0B6FF00287DD14E488069D9
:1029C000002801D0606D00904A48009C81786846DC
:1029D00001F03CFA00286FD00120800740694006D2
:1029E0006AD444488178684600F096FF00287CD07D
:1029F0000020FF2100942D3101240190A407206ABA
:102A00008842FCD33B488178684601F01FFA0028D1
:102A10006BD06069400668D436488178684600F01B
:102A20007BFF002861D00098002804D0019900297C
:102A300001D0401E009031490022097883200229EC
:102A400000D1B5202E490B78012B00D121300A701E
:102A5000E26B0F21920A92020A43E263E16B294A78
:102A6000800211400143E163E06B3721C002C00ADC
:102A700089050843E06300980426002801D0001D62
:102A80000090C002642101F08BF8002800D0401EA5
:102A90001D49086017490979002900D0012101F07A
:102AA000DBF91A48C06A8047FEF746F800280AD0CA
:102AB00028883021084300E017E028802888032177
:102AC000084328800127206B0004C00FFBD010486A
:102AD0000168C905FCD5002F01D0FFF778F901F096
:102AE000C1F928898021884328813046FEBD000035
:102AF00060020020C6060800A8050800540208006D
:102B000073800020FF03E0FF7C8000201C0708008A
:102B10000002004010B51221244801F0A9F924490F
:102B20001C2001F0ABF900211C2000F09DFF10BD1E
:102B300030B503460120002103241A46CA40D207BB
:102B400004D04D0022466D1CAA401043491CC9B256
:102B50000929F2D330BD02460020122901D98D2067
:102B60007047062A06D0072A07D0082AF8D1072975
:102B7000F5D170470829F2D170470629EFD3704785
:102B800070B50A4C0546218802231C22094800F032
:102B900071FF058000F074FFE088002101F074F9F6
:102BA00001211C2000F060FF70BD00008480002027
:102BB0004843002004700000FEB53B4E1C2070808E
:102BC0001D46174634460888FFF7B2FF0290374883
:102BD000334601900833132202A90097A01D01F08B
:102BE00059F9040008D1F088002101F04DF904469C
:102BF00001211C2000F038FF01231C2229462C480B
:102C000000F038FF047000F03BFF0020FEBD70B5FF
:102C10000C4625490B802078082814D8CA8808312A
:102C2000415C51188DB2822D0BD06178FFF793FF74
:102C3000010009D16D1C6178A8B2A21C01F030F925
:102C400008E0822100E08121194B17485B1CDA1C47
:102C500000F030F8002070BD70B51D460C460888A5
:102C600001F024F9104AFF281071158009D0A178CD
:102C7000D08801F009F902211C2000F0F5FE0020A7
:102C800070BD0B4B89219B1C9A1C074800F012F861
:102C9000F5E710B5044A180A1279904202D1088863
:102CA000FFF76EFF002010BD84800020344200201A
:102CB00001700000F8B514460F461E4605464288CE
:102CC00001880623204600F0D5FE0446287901F04D
:102CD000F3F8208027716680204600F0D1FEF8BD11
:102CE00038B520206946134C08706088002800D051
:102CF000401C0B4680B20122002101F0E3F86088FD
:102D0000002800D0801C80B2402101F0E1F8FFF7DC
:102D100001FF38BD70B5064615460C461C2000F074
:102D20007FFE022805D1E2B21C232946304601F07D
:102D30002DF870BDF604080010B500F0D9FA00F0C7
:102D4000E6F90020FDF7D9FD10BD0C2250430C4AD6
:102D500010B580188078FF2803D0088800F022F88A
:102D600010BD00F025FD10BD10B500F0ADF9002834
:102D700001D000F01DFD10BD10B500F019FD10BD13
:102D8000B08000200021F24A05E0834201D10120F9
:102D90007047491CC9B20C234B43D35CFF2BF4D1C1
:102DA00000207047F8B505460024E94E0AE0801976
:102DB0008168002904D0641CE4B22846884701E0F9
:102DC000641CE4B220460C214843315CFF29EED15B
:102DD000DF4E00240C3609E08F19B968002903D0B2
:102DE000FFF7D0FF002808D0641CE4B221460C2075
:102DF0004143705CFF28EFD1F8BD641CB968E4B2B0
:102E000028468847F2E770B5D14AD24C15460C35B2
:102E10000DE089184968002907D0C1B20C23594335
:102E200089184968401C607025E0401C607060781B
:102E30000C214143535CFF2BEBD10AE0491949684F
:102E4000002903D0FFF79EFF00280DD02078401CFA
:102E5000207021780C204143685CFF28EED10020CF
:102E600060702070012070BD20780C214143491909
:102E70004968401C20708847002070BDFFB581B0B4
:102E800004461E46154618460A9F01F067F8009052
:102E9000267021463846009A01F020F8002803D019
:102EA00000BE002020700BE02278AA4200D900BEAC
:102EB000AA4200D32A4622700099029800F020FD11
:102EC000009801F021F805B0F0BDF0B5A14E95B025
:102ED000F06800284BD1502332220D219E4800F08B
:102EE000C9FD0446F0600D20207000256570192092
:102EF000A5808001A0819948E081072020740320EB
:102F00006074A57421460B2014310090481E2023C4
:102F10001C2213911290FFF7B1FF30200555204677
:102F20001F21313000F0A4FFF0681A21C07C0F1A75
:102F300068460571002F1ADD3E206946087102AA15
:102F400001A9022000F0CAFF002803D000BE684695
:102F500005710CE068460179002908D08F4206DB34
:102F6000E27C139802AB1218129800F0DFF8F068B8
:102F700015B0F0BD70B5774E04468500361D70590A
:102F8000002814D121020A23322275480E3100F0A4
:102F900071FD0A210170002C00D000BE705110217B
:102FA0008180082141800021C1807D2101817059EB
:102FB00070BD70B5674DA868002821D166482223EE
:102FC00032220D210A3800F055FD0321A86001705E
:102FD000044602205E49607010222139A01C00F0D6
:102FE0008FFC00216182217561751720E082082025
:102FF000208310206083A1836420E083203421702B
:10300000A86870BD544810B5012332220D210B3839
:1030100000F030FD0221017000F032FD10BD4D487E
:1030200010B50C21183000F023FF4A490020183158
:1030300001220C2343435B18401C00061A71000E4A
:10304000F7D043493220243100F018FF002132200C
:1030500000F00AFD10BD70B50D460102404814464F
:103060002C2332220C380E3100F004FD01462031B1
:103070000D724C7200F004FD70BD26E710B5FFF72D
:1030800024FF00F0FDFC33490020C860322000F02E
:10309000C7FC032807D0052805D0042803D0022147
:1030A000322000F0E1FC10BD10B50446FFF762FFCE
:1030B00000F0E6FC274A0020A100121D5050042118
:1030C000322000F0D1FC10BD10B50121322000F0FB
:1030D000CBFCFFF798FE10BD95E610B5FFF769FF32
:1030E00000F0CEFC1B490020886010BD194A002169
:1030F00024324B00D35C834203D1480080184078CF
:103100007047491CC9B20A29F3D3012070471149FD
:1031100010B50020FF232431012442008B545218A3
:10312000401CC0B254700A28F7D310BD70B50646D3
:10313000481C1070092015460C465070224619464E
:10314000A81C00F0DDFB3078A41C0019307070BDA5
:10315000CC430020988000200E340000280A000094
:103160000E38000010B5104600F05AFC002809D1B6
:10317000012332220D215B4800F07CFC012101700B
:1031800000F07EFC002010BD70B50D78564C0E2D61
:1031900027D008DC012D14D0022D0CD0032D16D021
:1031A0000D2D08D119E00F2D09D0102D07D0112DAC
:1031B00005D0122D03D02568002D00D0A84700208F
:1031C00070BD48780028FAD1FFF787FFF7E7487805
:1031D0000028F4D1FFF7C8FDF1E7487800F051FB73
:1031E000EDE7487800F049FBE9E7F8B51C461046E2
:1031F0000E4600F015FC022824D1240A00D000BE9F
:103200000C202746474339483D18AC70FF2C15D099
:103210000121E9700521322000F026FC3348318875
:10322000C153707A68713146A81D06220A3100F038
:1032300067FB002211462046FFF70DFF314620466E
:1032400000F0F4FA0020F8BD70B50C460978164677
:103250000A2908D0244D2968002902D021462C686B
:10326000A047002070BD104600F0DAFB0428F8D11A
:1032700060780028F5D10521304600F0F5FBF0E735
:1032800010B510460C4600F0CBFB032803D00528F0
:1032900001D0042802D1204600F0F7FA002010BD2A
:1032A00010B510460C4600F0BBFB012808D1207871
:1032B000002805D1FFF710FF002801D0FFF75CFDC3
:1032C000002010BD00207047FEB51C46064D089B2F
:1032D00007262D1D6F4668C71346224600F005F9E4
:1032E000FEBD00000234000000440020B080002039
:1032F000704710B51C2102233222880200F0BAFB6D
:10330000FF217431018000F0BBFB10BD70B5054694
:10331000042332221C21074800F0ACFB0446058040
:103320001C20FFF7E3FEA0700020E070204600F0B4
:10333000A7FB70BD03700000FEB510460E4600F0FE
:103340006FFB01287ED13078002876D10E233222FF
:103350001C21484800F08EFB0446002020700B2002
:103360006070024644A1A01C00F0CAFA204600F09A
:1033700087FB0A2332221C213E4800F07BFB0446D7
:1033800001202070072565702A463EA1A01C00F090
:10339000B7FA204600F074FB0B2332221C2135487B
:1033A00000F068FB044606202070082767703A4644
:1033B00036A1A01C00F0A4FA204600F061FB08230F
:1033C00032221C212B4800F055FB052202700446D6
:1033D000427031A1801C00F093FA204600F050FBAF
:1033E0000A2332221C21234800F044FB0446042017
:1033F000207065702A462AA1A01C00F081FA2046A0
:1034000000F03EFB0A2332221C211A4800F032FB56
:103410000770044645700120A070D22168460180E3
:103420000B21C90141807901818006226946E01C97
:1034300000F066FA204600F023FB322201231146F9
:10344000900200E005E000F015FB3178017000F01B
:1034500017FB0020FEBD00207047FEB51C46089BF0
:103460000226114D6F4668C71346224600F03DF80C
:10347000FEBD0000027000004469616C6F6720535C
:10348000656D69004441313435387800123456FF97
:10349000FE9ABCDE00000000782E792E7A00000033
:1034A000765F352E302E34004C440020FFB583B0BB
:1034B0001E4F002401AEA00000963D5803A80FC87F
:1034C000A84700280ED0641C032CF4D3174C241FEB
:1034D0002068002803D003AD0FCD2468A04700204A
:1034E00007B0F0BD68460079FAE7F8B5089C9C463D
:1034F000079D0346002C16D0641E14D40C4FE60022
:10350000AE5B9E4201D0BE420BD1E3005B195C680A
:10351000002C08D013466246A04706990870002088
:10352000F8BD641EEBD50120F8BD0000604400200A
:10353000FFFF000010B5052000070089000608D530
:1035400001208007006B000403D400F0EBF9C007F2
:1035500001D0002010BD012010BD70477047000051
:1035600070B50D460446FFF7E5FF002807D06E480A
:103570002A46201880B2322100F0B4FB70BDFDF75E
:10358000C9F96948322204231146801E00F072FAFC
:103590004580047000F074FA70BDF8B5634C069D68
:1035A00006190024002E26D0012E0BD0604B1A469F
:1035B000283A022E0AD05D49C91E41180A292BD388
:1035C0000120F8BD00F086F828703AE00878461E21
:1035D000092E0ED88000001F1058564FB8422FD128
:1035E000B0001B5813504A8808781146FFF7B8FFFF
:1035F00026E000BE24E04A88002A0BD04E488242D2
:1036000000D300BE08784849401880B2322100F04B
:1036100069FB15E000BEF5E74449891E4018C0B2B9
:10362000411E09290BD88600B1188039C86F0028BF
:1036300006D0CC67F1188039CC67804700E000BE27
:103640002C700020F8BD0A46010010B53A480ED093
:10365000814200D300BE364B0020283B84001C5919
:10366000002C06D0401C0A28F8DB002010BD00BE4C
:10367000F1E784001A51401C0406240EF5D02046C0
:10368000FFF76EFF204610BD70B50446401E0928A6
:103690001ED82748A10028380D18803DE86F002863
:1036A00014D0264EB04211D01F483221201880B2CB
:1036B00000F0ECF91C48322204231146401EEE674C
:1036C00000F0D8F9047000F0DBF970BD00BE70BDE9
:1036D00000BE70BD10B508780C46411E09291FD8E0
:1036E00082001348121F28388258144B9A4205D181
:1036F0000022890042502830425012E08900405890
:103700000C4988420DD1322204231146064800F0AC
:10371000B1F9217801706188418000F0B1F900E0D1
:1037200000BE002010BD000003C80000FF37FFFFEF
:10373000FC8000205D350020307500005B350020E6
:10374000704710B505242407208A0221884320826F
:10375000A08A0007FCD506484188FF2201321143A8
:103760004180FDF769FB608A20210843608210BD1B
:103770002000005010B5FFF745FC10BD10B54E4CB1
:103780002078FFF791FC0020A07010BD10B54A48CA
:1037900000218170494805220270FF224270CD222B
:1037A0008270AB22C27001714171FFF7C5FA10BD82
:1037B00070B57D204249C000FFF745FF3E49487083
:1037C000FFF75BFC3D494A790B7912021A43521C00
:1037D00092B20A71130A4B713A4B9A4202D10022FB
:1037E0000A714A710446C07C1C23344906221B1A04
:1037F000062B08DB23461433C01800F081F8E07C68
:10380000801DE0740FE025462035287C1F231B1AFD
:10381000062B07DB3134001900F072F8287C801D7C
:10382000287400E000BEFFF729FC70BD70B50C469F
:1038300005460C202449684340188078FF2815D09D
:103840001D4E35707078FFF71FFF60880838092813
:1038500005D2A088002802D1E0887D2808D07D20EC
:103860001A49C000FFF7EFFEB07001E0FFF7A0FFBC
:1038700021462846FFF769FA70BD442800D197E732
:103880007047442800D193E7704710B50A4CA078E0
:10389000002803D0FFF7F8FE0020A070322000F0CF
:1038A000BFF8032803D0052801D0042801D1FFF771
:1038B0007FFF10BD70470000DC90002024810020B5
:1038C00075370020FFFF0000B08000207D3700200A
:1038D000064C0125064E05E0E36807CC2B430C3C63
:1038E00098471034B442F7D3FCF7AEFD6C44002087
:1038F0009C44002003B40148019001BD773B0300C4
:1039000003B40148019001BD213B030003B4014809
:10391000019001BDD729030003B40148019001BD06
:103920002B69020003B40148019001BDC12D0300C1
:1039300003B40148019001BD0921030003B401480B
:10394000019001BDC92D030003B40148019001BDE0
:10395000EB31030003B40148019001BD3D32030087
:1039600003B40148019001BDD721030003B401480D
:10397000019001BD2F2F030003B40148019001BD48
:10398000998F020003B40148019001BD938F02009A
:1039900003B40148019001BDCD8C020003B401487D
:1039A000019001BD418F020003B40148019001BDA7
:1039B0002768020003B40148019001BD3968020084
:1039C00003B40148019001BDB780020003B401486F
:1039D000019001BD0F3B030003B40148019001BDFC
:1039E000551B020003B40148019001BDCF2B030019
:1039F00003B40148019001BDCB2C030003B401487E
:103A0000019001BD0990020003B40148019001BD7D
:103A1000831D020003B40148019001BDBF240300CF
:103A200003B40148019001BDB326030003B401486B
:103A3000019001BDFD3D030003B40148019001BDAB
:103A4000197D020003B40148019001BD0522020066
:103A500003B40148019001BD1522030003B40148DD
:103A6000019001BD533B030003B40148019001BD27
:103A70003126030003B40148019001BDB1230300C6
:103A800003B40148019001BDE123030003B40148E0
:103A9000019001BDA528030003B40148019001BDB8
:103AA000D5AF020003B40148019001BDA1A50200F9
:103AB00003B40148019001BDE3A5020003B401482D
:103AC000019001BD87A8020003B40148019001BD27
:103AD000A7A9020003B40148019001BD93AA020006
:103AE00003B40148019001BDF9AB020003B40148E1
:103AF000019001BD69AC020003B40148019001BD11
:103B000017AD020003B40148019001BD77AD02007A
:103B100003B40148019001BDF1AD020003B40148B6
:103B2000019001BD85AE020003B40148019001BDC2
:103B300011AF020003B40148019001BD859A020053
:103B400003B40148019001BDD3B2020003B401489F
:103B5000019001BD7FA5020003B40148019001BDA1
:103B6000D7A5020003B40148019001BD75A502006C
:103B700003B40148019001BD19A7020003B4014834
:103B8000019001BD5799020003B40148019001BDA5
:103B90008D3D030003B40148019001BD3350020084
:103BA00003B40148019001BDA73A030003B40148E2
:103BB000019001BD5548020003B40148019001BDC8
:103BC0001F50020003B40148019001BD7F0C0300A7
:103BD00003B40148019001BDAB0C030003B40148DC
:103BE000019001BDBF22020003B40148019001BD54
:103BF000EB26030003B40148019001BD3524030006
:103C000003B40148019001BD2F22020003B4014812
:103C1000019001BDDD20030003B40148019001BD06
:103C20009D20030003B40148019001BD49E5020055
:103C300003B40148019001BDF9E3020003B4014857
:103C4000019001BD4BCD020003B40148019001BDBC
:103C500099D1020003B40148019001BDABD002002C
:103C600003B40148019001BD69D0020003B40148CA
:103C7000019001BD77CF020003B40148019001BD5E
:103C800001CC020003B40148019001BD29CC02001F
:103C900003B40148019001BD15D2020003B40148EC
:103CA000019001BD8DD2020003B40148019001BD15
:103CB000FD3A030003B40148019001BDC52D020087
:103CC00003B40148019001BDCB7F020003B4014859
:103CD000019001BDEB2A020003B40148019001BD2F
:103CE0001F32020003B40148019001BD25280300E2
:103CF00003B40148019001BDBD30020003B4014886
:103D0000019001BDBB7F020003B40148019001BDD9
:103D1000B938020003B40148019001BD7758020090
:103D200003B40148019001BDD722030003B4014848
:103D3000019001BD2D42020003B40148019001BD74
:103D40007B30020003B40148019001BDCD2B02007D
:103D500003B40148019001BDB93E020003B401481B
:103D6000019001BD7F3E020003B40148019001BDF6
:103D7000BDE4020003B40148019001BD61F40200FA
:103D800003B40148019001BD71E4020003B401488D
:103D9000019001BD95E3020003B40148019001BD0B
:103DA0003DF6020003B40148019001BD912A0200D2
:103DB00003B40148019001BDF38E020003B4014831
:103DC000019001BD218E020003B40148019001BDA4
:103DD000652C030003B40148019001BDDB2E0300F4
:103DE00003B40148019001BD231D020003B4014842
:103DF000019001BDC32C030003B40148019001BD33
:103E00001531030003B40148019001BD3B66020077
:103E100003B40148019001BD2B66020003B40148C0
:103E2000019001BD038D020003B40148019001BD62
:103E3000CF8F020003B40148019001BD1B66020050
:103E400003B40148019001BD7920030003B4014887
:103E5000019001BD2129030003B40148019001BD77
:103E6000C768020003B40148019001BD0D2C030096
:103E700003B40148019001BD533B030003B4014862
:103E8000019001BD8725030003B40148019001BDE5
:103E90007B9C020003B40148019001BD459F0200D4
:103EA00003B40148019001BD6D9B020003B40148B9
:103EB000019001BDB7E3020003B40148019001BDC8
:103EC000E3E3020003B40148019001BD739B0200CB
:103ED00003B40148019001BD299C020003B40148CC
:103EE000019001BDD129030002E008C8121F08C1DA
:103EF000002AFAD170477047002001E001C1121F6B
:103F0000002AFBD17047000010B5002823D0124BC7
:103F10000022001F196803E0814203D80A4649685D
:103F20000029F9D1002A0AD01368841A9C4204D1CE
:103F3000006818181060104602E0506000E0186039
:103F4000002907D002680B1A934203D10B68D218DC
:103F500002604968416010BDA0440020F0B50B30FC
:103F6000C108C900144F0026144A0FE003688B42B1
:103F70000BD38B4205D95C1A4318456830C3083B04
:103F800000E04368136002C004E0021D10680028CE
:103F9000ECD13046002803D13868002801D0002039
:103FA000F0BD064A06481060064A121AD208D2002E
:103FB00044C001203860D7E7A4440020A04400207A
:103FC000E4900020E09100200101000A04280A0486
:103FD0000203AA0055032A00A001FFFF2C010000E4
:103FE00003100020FFFF0000810C002000080000EB
:103FF000A90C0020E43F002002000000544303000D
:10400000F43F00203204080006000100470D0020A4
:104010005D0D0020FF130020BD140020E1140020DE
:1040200085130020291D002035110020942703004E
:1040300062B600DFA4E2020001DF81B01CCA020008
:10404000F8BD02DF40CB0200F5E703DF84D40200B5
:1040500004DF89B0941B030005DF00B51C2C0200AF
:1040600062B606DFEC0C030070BD07DF0114000030
:10407000910E0020002800001FA202000C1C00006E
:10408000DDA20200001C00001FA2020001280000A7
:10409000DDA10200021400001FA4020000000000C5
:1040A0000000000000000000000000000000000010
:1040B0000000000000000000000000000000000000
:1040C000000000006C400020060000009C40002022
:1040D000C4400020D004080005000600FFFF0000D7
:1040E000711B002005040000C918002026040000F0
:1040F000A5190020230400004B1B0020240400000D
:10410000251B002029040000E71800202A040000D5
:10411000BF1A00202C0400003D1800202F040000CE
:104120008F1A0020010800003D190020000800003F
:10413000EF3F02000000000000000000000000004F
:10414000000000000000000000000000000000006F
:10415000000000000000000000000000000000005F
:10416000000000000000000000000000000000004F
:10417000000000000000000000000000000000003F
:10418000000000000000000000000000000000002F
:10419000000000000000000000000000000000001F
:1041A000000000000000000000000000000000000F
:1041B00000000000000000000000000000000000FF
:1041C00000000000000000000000000000000000EF
:1041D0000000000024410020020000000000000058
:1041E00000000000DC4000200900000034410020F5
:1041F000E44100206403080016000600FFFF0000F1
:10420000C91B00200C040000F11B00201104000059
:10421000771C0020FC41002003000000104903002F
:10422000144200206C05080003000600FF003F0058
:10423000FF03FF01002801000200020018430020D4
:1042400003280100050005001A430020292A010067
:104250001200000000000000032801000500050016
:104260001F430020242A010012000000000000006B
:10427000032801000500050024430020252A010031
:1042800012000000000000000328010005000500E6
:1042900029430020272A010012000000000000002E
:1042A00003280100050005002E430020262A0100F6
:1042B00012000000000000000328010005000500B6
:1042C00033430020282A01001200000000000000F3
:1042D000032801000500050038430020232A0100BF
:1042E0000800000000000000032801000500050090
:1042F0003D4300202A2A01001200000000000000B7
:10430000032801000500050042430020502A010057
:1043100007000000000000000A18020000292A021D
:104320000100242A020200252A020300272A02048F
:1043300000262A020500282A020600232A02070076
:104340002A2A020800502A007843002090430020C7
:10435000968000200300010000700000B92B0020AF
:10436000027000000F2C002003700000592C002068
:1043700003380000932C0020584300200100000067
:104380006043002002000000000000000000000068
:104390007043002001000000000000004006280AD1
:1043A00007030001020304050600020000000000EC
:1043B00000000000000000000000000000000000FD
:1043C000170008001000000064000000FF0000005B
:1043D00000000000000000001C000000F33200207C
:1043E0000D330020FF00000000000000000000006E
:1043F0000000000044440020D0800020060001009E
:10440000B538002001340000653100200034000080
:1044100089310020003800004932002001380000B6
:10442000EB310020033800008132002000C800007A
:10443000A132002010340000C5320020FFFF000030
:10444000AD3400203C440020010000000170000059
:10445000393300200470000057340020B5380020A4
:10446000C93200209B3500205B340020A844002086
:10447000008000202C010000F83E0020A84400200D
:1044800020900020C0010000F83E002068070800CE
:10449000202A0800E0050000F83E0020800C000003
:0844A000000000000000000014
:040000052000044192
:00000001FF
