:020000040002F8
:10600000286E0020C1630200C9630200CB63020056
:10601000CD630200CF630200D163020000000000E4
:10602000000000000000000000000000D363020038
:10603000D563020000000000D7630200D9630200AC
:10604000BD660200DB6302009D6A02005967020020
:1060500069670200DB630200F5640200DB63020093
:10606000DB630200DB630200DB63020015670200F2
:10607000DB630200DB630200DB630200DB63020020
:10608000DB63020025670200DB630200DB630200C2
:1060900079670200DB6302007D670200DB630200B8
:1060A000DB630200DB630200DB630200DB630200F0
:1060B000DB630200DB630200000000000000000060
:1060C000DB630200DB630200DB630200DB630200D0
:1060D00049670200DB630200DB630200000000008E
:1060E00000000000000000000000000000000000B0
:1060F00000000000000000000000000000000000A0
:10610000000000000000000000000000000000008F
:10611000000000000000000000000000000000007F
:10612000000000000000000000000000000000006F
:10613000000000000000000000000000000000005F
:10614000000000000000000000000000000000004F
:10615000000000000000000000000000000000003F
:10616000000000000000000000000000000000002F
:10617000000000000000000000000000000000001F
:10618000000000000000000000000000000000000F
:1061900000000000000000000000000000000000FF
:1061A00000000000000000000000000000000000EF
:1061B00000000000000000000000000000000000DF
:1061C00000000000000000000000000000000000CF
:1061D00000000000000000000000000000000000BF
:1061E00000000000000000000000000000000000AF
:1061F000000000000000000000000000000000009F
:10620000DFF80CD000F038F900480047BDA70200C5
:10621000286E002030B450E8012F93B2C489234483
:106220008489A34228BF1B1B0489A34202BFBFF37A
:106230002F8F002007E0C3EA020340E80134002C5E
:10624000E9D14FF001000A6030BC704750E8012FDF
:10625000C2EA024240E801210029F7D1704730B478
:1062600050E8022F1FFAA2F3C488A34202BFBFF373
:106270002F8F00200DE0C48923448489A34228BFC6
:106280001B1BC2EA034340E80234002CE8D14FF064
:1062900001000A6030BC704750E8022FC2EA224277
:1062A00040E802210029F7D17047034653E8022F46
:1062B000D988B2EB324F4FF0000017BF92B241EADB
:1062C000014142EA014104E05A68B2EB324F08BF93
:1062D000012043E80212002AE8D1704730B4044696
:1062E00054E8000F0D4644E80053002BF8D1156028
:1062F00030BC704730B4044654E8000F40EA010552
:1063000044E80053002BF7D1156030BC704730B41F
:10631000044654E8000F00EA010544E80053002B4E
:10632000F7D1156030BC704730B4044654E8000F14
:1063300080EA010544E80053002BF7D1156030BC1A
:10634000704730B4044654E8000F00EB010544E800
:106350000053002BF7D1156030BC704730B40446B1
:1063600054E8000FA0EB010544E80053002BF7D1DF
:10637000156030BC704770B404464FF0000054E81C
:10638000006F0D68AE4207BF44E80023012044E8D7
:1063900000630E60002B1CBF0020F0E770BC70474C
:1063A00030B4044654E8000F88422CBF451A054615
:1063B00044E80053002BF5D1156030BC7047000055
:1063C0000648804706480047FEE7FEE7FEE7FEE78F
:1063D000FEE7FEE7FEE7FEE7FEE7FEE78167020075
:1063E0000162020000487047C01D030040EA01033B
:1063F0009B0703D009E008C9121F08C0042AFAD27B
:1064000003E011F8013B00F8013B521EF9D270473E
:10641000D2B201E000F8012B491EFBD270470022E6
:10642000F6E710B513460A4604461946FFF7F0FF93
:10643000204610BD421C10F8011B0029FBD1801A18
:10644000704710B5002200E0521C835C8C5CA342B4
:1064500001D1002BF8D1D8B2E1B2401A10BD30B54D
:1064600004460020034600E05B1C934203D2E05C3C
:10647000CD5C401BF8D030BD064C074D06E0E0680F
:1064800040F0010394E8070098471034AC42F6D37B
:10649000FFF7BAFEF43503001436030070B58C180C
:1064A00010F8015B15F0070301D110F8013B2A1128
:1064B00006D110F8012B03E010F8016B01F8016B15
:1064C0005B1EF9D12B0705D40023521E0DD401F811
:1064D000013BFAE710F8013BCB1A921C03E013F8DA
:1064E000015B01F8015B521EF9D5A142D8D300200F
:1064F00070BD00002DE9F04700268AB0DFF850910A
:10650000B0464FF48075012437460696284605F0BC
:106510003DFD38B1D9F80403204203D0284605F0E8
:106520002BFD26432D1D64007F1CADB2082FEDD33B
:106530004FF4BE74204605F029FD48B1204605F011
:106540001BFD46F0004606AA0121002005F000FDD3
:10655000404D16F0FF0F15D00127002437420DD013
:1065600009EB8401D1F81005D1F81015C0F304200F
:1065700055F82420C1F3014102B190477F00641C0B
:10658000082CEBD3002E5FDA4FF0FF30CDF81080EF
:1065900054E0281910F8507F90F9000027F0C00847
:1065A000401C3BD007A9404604F0BBFC10B34FEAA7
:1065B0009719404601F0ECFD55F820701FB1B9F174
:1065C000030F03D006E0B9F1030F27D104A9404619
:1065D00004F0AFFC4FF0A04101EB8800D0F80007B9
:1065E00006A9C0F3014A404604F09BFC18B1BAF179
:1065F000020F03D012E0BAF1030F0FD1B9F1030F6C
:1066000008D1BAF1020F1DD00221404605F076FCF8
:10661000761CF6B217B149464046B847641C042CB4
:10662000B7D3002E10D06A460121002005F090FC5F
:1066300006990098884207D00690049800263446B0
:106640000790A6E70321E0E70AB0BDE8F087000065
:1066500000600040B044002000F01F020121914082
:106660004009800000F1E020C0F88012704700F07F
:106670001F02012191404009800000F1E020C0F894
:106680000011704700F01F02012191404009800075
:1066900000F1E020C0F8001270474907090E0028F9
:1066A00006DA00F00F0000F1E02080F8141D7047BA
:1066B00000F1E02080F800147047000070B54FF43E
:1066C0008076304604F0B0FF114CB50560B130461D
:1066D00004F0B1FF0120C5F80803607920B901205A
:1066E00060712168002088474FF48276304604F0BC
:1066F0009BFF00280AD0304604F09DFF0220C5F819
:1067000008032168BDE870400120084770BD000003
:106710005C34002003220021014803F079BC000012
:1067200000B0004007480021C0F84011C0F84411F3
:10673000C0F84811C0F84C11C0F80011C0F804119D
:106740000AF022BA0010014004220121014803F09E
:106750005FBC0000004002400149024803F0A8BCB1
:106760005C4500200030004002494FF0402003F01B
:106770009FBC0000804500200AF054B906F0ECB937
:10678000F0B5B5480023021D0178101D01254FF01A
:10679000805406290BD11678360708D10678C6F33F
:1067A0000316032E06D0042E04D0052E02D006298F
:1067B00007D00EE0B4F82463A84FC6F304263E6069
:1067C00002E01678360704D10678C6F30316032EC6
:1067D00002D0062904D00FE0A24FA14E7E670EE042
:1067E0001678360708D10678C6F30316032E06D0AE
:1067F000042E04D0052E02D0062907D00EE0D4F8CE
:106800004462994FC6F342363E6002E0167836077E
:1068100004D10678C6F30316032E02D0062906D04B
:1068200011E0924E376827F0807737600EE01678D7
:10683000360708D10678C6F30316032E06D0042EB9
:1068400004D0052E02D006290AD011E04FF0804670
:10685000C6F80C31C6F81031834E361F336002E0A3
:106860001678360704D10678C6F30316032E02D035
:10687000062905D00CE07C4F032664373E600AE011
:106880001678360704D10678C6F30316032E02D015
:1068900006290DD014E0764F05263E60744E7836FA
:1068A0003560734E083633603F263F1D3E6002E080
:1068B0001678360704D10678C6F30316052E02D0E3
:1068C000062957D062E06B4E36686B4F3E60694ECA
:1068D000361D36683F1D3E60664E083636683F1DE1
:1068E0003E60644E0C3636683F1D3E60614E103689
:1068F00036683F1D3E605F4E143636683F1D3E6071
:106900005C4E183636685C4F20373E60594E1C3658
:1069100036683F1D3E60574E203636683F1D3E604C
:10692000544E243636683F1D3E60524E2836366837
:106930003F1D3E604F4E2C3636683F1D3E604D4E2B
:10694000303636684C4F40373E604A4E34363668F3
:106950003F1D3E60474E383636683F1D3E60454E0F
:106960003C3636683F1D3E60424E403636683F1D1D
:106970003E6002E01678360708D10678C6F30316A3
:10698000032E06D0042E04D0052E02D0062907D0EF
:1069900019E0D4F85812394A01F04F01116002E0B1
:1069A000117809070FD10078C0F30310032803D032
:1069B000042801D0052806D131480168C90702D052
:1069C0006FF001010160D4F83001062808D1D4F835
:1069D0003401062804D12B48016841F4806101602C
:1069E00022487438016841F470010160BFF34F8F91
:1069F000BFF36F8F4FF01021D1F80002002803DBA6
:106A0000D1F80402002822DA1F4A15601F480468E2
:106A1000002CFCD01524C1F800420568002DFCD0E4
:106A2000C1F8044201680029FCD013600168002904
:106A3000FCD0BFF34F8F0D48F0380168144A01F4C1
:106A4000E06111430160BFF34F8F00BFFDE71249C2
:106A500010480860F0BD0000E00F00F04035014034
:106A60000DF0ADBA00C007403C050040FCED00E071
:106A7000105600400404001020C50040E40E004001
:106A8000000400403C17004004E5014000E40140E0
:106A90000400FA050090D003443500200148006846
:106AA000004700006434002002E008C8121F08C13B
:106AB000002AFAD170477047002001E001C1121F7F
:106AC000002AFBD1704700000121202803DA814011
:106AD0000548014003E0402802DA2038814009B12E
:106AE0000120704700207047FC06FFBD2DE9F843E8
:106AF000804643F2020659B9694607F0E5FDB04207
:106B000002D008B100F0B2F99DF80000800744D42B
:106B10000021404607F014FE05003ED0112D3CD068
:106B20001F482049401AC708022000EB07440D2DDA
:106B30000AD00B2D1DD0B5421FD11B49204642461D
:106B4000BDE8F84305F07ABC20464246174905F0F7
:106B500075FC1321404676DF00281ED006F088F829
:106B6000024601B020464346BDE8F04310A105F0BF
:106B70006CBC204642461C49E2E7284606F078F8FD
:106B80000246012000EB0740434618A105F05DFCDA
:106B90002846BDE8F84300F069B9BDE8F883000075
:106BA0006C36030024360300BC270300482703008B
:106BB00073645F626C655F6761705F646973636F64
:106BC0006E6E65637428292072657475726E6564D3
:106BD000202573206F6E20636F6E6E5F68616E6438
:106BE0006C652025642E000008280300417373653E
:106BF0007274696E672E20706D5F636F6E6E5F7367
:106C0000656375726528292072657475726E656496
:106C1000202573206F6E20636F6E6E5F68616E64F7
:106C20006C652025642E000031B500252C462146D8
:106C3000684604F0DAF800B16D1C641C142CF6D31D
:106C4000284638BD7FB5144814491D46401AC1086E
:106C5000032000EB0140044611A105F0EBFB2046A8
:106C6000062201A905F092FB142003F09FFE0246C4
:106C700001981060BDF808009080957100201061A7
:106C800003F0C0FA0146D0600A480068D0F8040555
:106C900090600A617FBD0000D436030024360300F3
:106CA000416464696E67206E6577207461673A207D
:106CB000000000000817030010B560B159B1027858
:106CC0000B785208B2EB530F05D10622401C491C29
:106CD000FFF7C5FB08B1002010BD012010BD8007E3
:106CE00001D00020704701207047C3688B4206D84E
:106CF00011440069491E814201D8012070470020DB
:106D000070471FB500206A4602A9135C0C5CA342C1
:106D100002D0002004B010BD401CC0B20628F4D33D
:106D20000120F7E710B5002004F008FF00280ED17D
:106D300008F0C6FE002001F055F90321044800F0D8
:106D4000E6FC002803D0BDE8104000F08FB810BD6D
:106D5000BC35002010B501220221002001F04AF9C3
:106D600008B1072810D107220221012001F042F9C1
:106D700008B1072808D100210A22084601F03AF993
:106D800008B1072800D1002010BD70B58CB01546A1
:106D90000E4600236C46C3F10F01415CE1545B1CBD
:106DA000102BF8D30D2104F11000FFF738FB002061
:106DB000C0F10F02315C2244401C11740328F7D348
:106DC000684646DF0020C0F10F01214491F82010F1
:106DD0002954401C0328F6D30CB070BD0149C97872
:106DE00000F054BE3034002072B605F0D7FB00BF6F
:106DF00005F0B2F90028FBD111481249401AC40825
:106E0000012000EB044010A105F014FB11480068BC
:106E1000C00700D000BE022000EB04400EA105F028
:106E200009FBBFF34F8F0B48E43801680E4A01F4A9
:106E3000E06111430160BFF34F8F00BFFDE7000029
:106E4000D436030024360300466174616C206572F9
:106E5000726F7200F0ED00E053797374656D20720B
:106E600065736574000000000400FA050EB500218A
:106E70000091CDE901106A4644F20100FFF7B4FF2A
:106E80000EBD0000084B9B7823B12AB120B10068E9
:106E9000037C1BB108207047072070470023037450
:106EA0004174426118467047A445002070B508F04F
:106EB00061FD104800240B21047044700E4D817058
:106EC00014206C602C706C70FFF7C6FB0621142038
:106ED000FFF7E3FB1420FFF7CAFB08480460062114
:106EE0001120FFF7DAFB0548001F0068A8600020AA
:106EF00070BD0000A44500207C340020081501402E
:106F00002DE9FC47DFF8789099F8023073B368B345
:106F1000052902D20720BDE8FC87436933B3437CCF
:106F2000012B25D0002704460025884616468DF8FB
:106F30000050684600F038F801A80AF009F9C8B115
:106F4000012101700F4944600968C0E90218C0E9D5
:106F500004769DF8040089F801009DF8000000F017
:106F600047F81420FFF78EFB2846D4E70820D2E725
:106F70000F46D8E704259DF8000000F039F8F3E744
:106F8000A4450020041501400649897839B130B183
:106F9000416921B100210174022109F0D1BD08200D
:106FA00070470000A445002030B5EFF3108172B6A1
:106FB0000D4A9468012324B10370002900D162B600
:106FC00030BD93604FF0E023D3F88051074C25404B
:106FD0001560C3F88041D3F8844154605A17C3F850
:106FE000842100220270E8E7B0460020FC06FFBDC5
:106FF0000B498A68002A11D000280FD1EFF31080C6
:1070000072B60B684FF0E022C2F800314B68C2F84C
:10701000043100228A60002800D162B67047000067
:10702000B04600202DE9F041064608680C46411C98
:107030004FF0A0474FF0010506D005FA00F1C7F860
:107040000815206804F046FF6068411C02D000214A
:1070500004F02EFF3168A069C1F82405607D227D0F
:1070600031681043C1F86C05D4E900123068C0F8EB
:107070001425C0F80C15207D012815D1A068411CED
:1070800002D0002104F014FFE068411C05D08540C7
:10709000C7F80855E06804F01DFFD4E90212306813
:1070A000C0F80825C0F81015BDE8F0812DE9F041C1
:1070B000064608680C46411C4FF0A0474FF00105FA
:1070C00006D005FA00F1C7F80815206804F00CFF97
:1070D0006068411C02D0002104F0F3FE3168A06911
:1070E000C1F82405607D217D32680843C2F86C0533
:1070F000D4E900123068C0F80C15C0F81425207DC2
:10710000012815D1A068411C02D0002104F0D9FE4D
:10711000E068411C05D08540C7F80855E06804F0D8
:10712000E3FED4E902123068C0F80825C0F8101553
:10713000BDE8F08103F012BA2DE9F04781460588D9
:107140004A484FF000088AB001784246284600F0CD
:10715000B5FC99F80500400701D4002176E005F55B
:107160008077B8B201AB0122072106F03BFF040093
:107170003F48404A4FF00101A0EB02004FEAD00027
:1071800001EB00460AD0204605F072FD024630466B
:107190002B46394905F059F9214629E0284602F0E5
:1071A000D3FD4FF6FF71044688422BD18A460298E0
:1071B00002F034FD0446504510D00146284602F046
:1071C000A3FD2846FFF70AFEE0B9284608F034FE82
:1071D0002846FFF703FE0028BFD013E007F0CEF8E3
:1071E0000446504508D1304624A105F023F9042176
:1071F000284608F04FFEB0E70146284602F084FD1D
:107200004FF00108B8B22246072106F063FF0700DD
:107210001BD0862F1ED005F02BFD024630462B4694
:107220002349009405F019F93946284608F032FE42
:107230000021484606F0CAFDB8F1000F02D02046F2
:1072400002F06CFD0AB0BDE8F0870121484606F067
:10725000BDFDF7E71822174903A8FFF7C7F8ADF8F7
:107260000E5003A801F0E2FCEFE7000030340020EC
:107270007436030024360300C02A0300436F756C84
:1072800064206E6F7420616C6C6F63617465206E36
:10729000657720706565725F696420666F7220692A
:1072A0006E636F6D696E6720626F6E642E00000002
:1072B000DC2B0300EC1803002DE9FC4700251788A0
:1072C0000646158090F82D001446894630B13A469E
:1072D0002146484600F0E4FC051E09D1B0784FF085
:1072E0000C0A18B32088C846001DB84202D950467F
:1072F000BDE8FC87684679DF0028F9D120880321A2
:1073000008F8001020881921401C80B2208008F85D
:1073100000102088401C80B2208000EB0801BDF8DE
:10732000000009F0F4FD218808442080F078022252
:10733000C8B1218896F9033001F1030C4846BC45D9
:10734000D5D8425421884FF0010C491C89B22180C4
:1073500000F801C02188491C89B2218009F8013058
:107360002088401C20807068B8B1218890F90030D6
:1073700001F1030C4846BC45B9D8425421880A2281
:10738000491C89B2218042542188491C89B221803C
:1073900009F801302088401C2080308950B1CDE9A7
:1073A00000474B460622022106F1080009F0E8FEDC
:1073B000051E9DD1308A50B1CDE900474B460722CA
:1073C000032106F1100009F0DBFE051E90D1308B81
:1073D00050B1CDE900474B461522142106F11800A3
:1073E00009F0CEFE051E83D1306A30B13B462246FD
:1073F000494600F0ACFF051EDBD1706A30B13B4658
:107400002246494603F008FB051ED2D196F82C000F
:1074100038B13B4622464946304608F07DFE051EFF
:10742000C7D1307838B13B4622464946304603F052
:10743000DFFB051EBDD128465AE7F8B506464FF0DA
:1074400000001500ADF8000015D009236A4630464B
:1074500000F025F80446BDF80000064458B154B1C8
:107460002846FEF7E7FFA04205D1224631462846CE
:10747000FEF7F5FF08B10020F8BD0120F8BD18B5F2
:1074800004460020ADF8000013466A46204600F08E
:1074900006F8002802D0BDF80000204418BD70B5E1
:1074A00088B182B10024158803E0065D641C344471
:1074B000A4B2A54203D8061976789E4201D08C4228
:1074C000F3D38C4201D3002070BDA11C1180005D5C
:1074D000401E80B270BD2DE9F0418AB00646002002
:1074E000ADF814001346102088468DF804000D46B0
:1074F00006AA01A9184664DFA6B398BB9DF804004C
:10750000022804D0042807D0102839D10DE0032028
:107510008DF81000022003E005208DF810000420F3
:107520008DF81100002404AF0FE007208DF8100043
:107530000620F5E73B5D05AA41463046FFF7AFFF61
:10754000641CE4B20546022C04D2BDF814000028E5
:10755000F0D003E0BDF81400002812D080B2064439
:1075600000240BE00CE030199DF8042006A9FEF77A
:1075700076FF48B19DF80400204484B2AC42F2D3B7
:1075800000200AB0BDE8F0810120FAE780F8301051
:10759000704700002DE9F0470D00044606D02CB1DD
:1075A00095F87A000026012803D006E00E20BDE8F9
:1075B000F08795F89800012829D0D5F8A000042874
:1075C00025D0D5F89C00042821D04FF00109A670E1
:1075D0002C2205F17801201DFEF708FF84F83060A9
:1075E000D5F8A4006063D5F8A800A0634FF6FF703B
:1075F000A4F8480204F50D70C4F84402C4F84A62C5
:10760000A4F84E6284F85062207810B104E007209C
:10761000CDE7FF2084F8540004F15501C4F834127A
:1076200094F82400EE274FF01F08012833D0A4F867
:10763000388200BF04F50E722846FFF73DFE002891
:10764000B5D104F24311C4F83C1294F82400012887
:1076500024D0A4F8408200BF04F5107205F13C006C
:10766000FFF72AFE0028A2D184F85190208BA4F8BD
:10767000480084F83C90266484F850606069606437
:107680004D4604F13C02002104F1540072DF002851
:107690008DD125708BE7A4F83872CBE7A4F840723F
:1076A000DAE710B50288102A1BD0112A20D0262A2A
:1076B0001DD1007A0C46012801D0022817D1A078EC
:1076C0000521401CB0FBF1F201FB1201204600F045
:1076D0001EF800280BD0A16B002908D0BDE810408F
:1076E0000847C27B012A02D18088A1F8480210BD58
:1076F0000C46002184F852128088B4F8481288425F
:10770000F5D120790028F2D10121DFE770472DE97A
:10771000F05F044600780F4698B1A7700025C4F8C2
:107720004A52A4F84E5284F85052A079012608B16A
:10773000012F09D0E07980B1012F05D0022F03D0AD
:107740000BE00820BDE8F09F616B21B184F8516225
:107750000820884701E084F8515204F24B210020B0
:107760000A5C0AB1304603E0401C0628F8D300202A
:107770004FF002084FF0030B012F06D0022F0CD060
:10778000032F0FD0042F15D110E0A17929B194F85F
:10779000241011B908B130460DE0E17911B108B1FA
:1077A000404608E0207A08B1584604E0607A08B103
:1077B000042000E02846A070616B41B1032801D08D
:1077C000042804D1607910B194F85202A0B184F871
:1077D000535204F13C0018210746FEF720FE04F145
:1077E0002C0084F83C60814606F0F4FE58B194F811
:1077F0002C0084F8510008E084F8545284F8536255
:1078000007208847E5E784F8516094F8240050B1D8
:10781000484606F0DFFE20B194F8280084F85200B4
:1078200001E084F8526084F85050A27804F24A21B2
:1078300004F50D794FF0060A052A62D2DFE802F05E
:107840007A030F22410084F83160C4F84452C4E93D
:10785000101584F83C808020A4F8480053E084F898
:10786000318094F82420384612B10722027001E0DA
:1078700080F800B0228A8281C4F844524160E168F5
:10788000B96040E06069B860208BB88194F824004A
:107890003D4610B184F83CA001E084F83C602046ED
:1078A00009F032FC50B185F814800421204601F023
:1078B0004DFC30BB052184F8311020E084F831B054
:1078C0001DE0E069B860208CB88194F824003D4642
:1078D00010B184F83CA001E084F83C60204609F037
:1078E00013FC48B185F814800421204601F02EFCD9
:1078F00038B984F831A002E0042084F83100C4F8DB
:107900004492A07878B13A4604F15400D4F8441275
:1079100072DF00287FF416AF94F8301094F854000A
:1079200073DF0028F6D1616B11B194F831008847FC
:10793000002007E784F83150F5E7000070B5040037
:1079400012D001461C221448FEF750FD1248134D78
:107950000560206850B17ADF002806D120680168F0
:1079600029604068686005E00E2070BD0B487BDF31
:107970000028FAD108484FF6FF711438084A20F859
:10798000041B0549343901600021FFF77BFA002808
:10799000EBD0032070BD00000C3E002078330020A7
:1079A000A1100300054808B5C168009181686846C8
:1079B00003F03FFA0098FFF737F908BD283E002092
:1079C00010B5044600F09AF8002805D02146BDE81D
:1079D0001040024803F009BA10BD0000383E0020F4
:1079E00070B515460E46044609F09AFB002809D0EA
:1079F000054800EB840080692A463146BDE87040A6
:107A000001F0D0BB70BD0000283E002010B5044638
:107A100000F074F8002805D02146BDE81040024867
:107A200003F0E3B910BD00003C3E002070B50546F0
:107A3000002400F063F838B12946044803F0D5F972
:107A400008B1022400E00124204670BD343E00202D
:107A500070B50546002400F051F838B129460448B5
:107A600003F0C3F908B1022400E00124204670BDF0
:107A7000303E002010B51821034803F091F9182872
:107A800000D0C0B210BD0000283E002070B50546F1
:107A90000C46084609F044FB60B1284600F02EF879
:107AA00040B10548294600EB8400BDE8704018301D
:107AB00003F09BB9002070BD283E002070B505463C
:107AC00014460E46084609F02BFB002812D0284623
:107AD00000F014F800280DD00748294600EB860076
:107AE00018301CB1BDE8704003F08AB9BDE87040A1
:107AF00003F03BB970BD0000283E0020142801D3DC
:107B0000002070470146014803F06FB92C3E002069
:107B100030B587B0040028D000250095ADF80020CE
:107B2000ADF802500191618860896A46ACDF002897
:107B300019D16089A0F57F41FF3918D002950395CE
:107B4000049505956088ADF8080001208DF80A00BD
:107B5000BDF80200ADF80C000198CDF810D00590EA
:107B6000608902A9AEDF07B030BD0E20FBE7082018
:107B7000F9E7000030B585B00D46040020D0FDB116
:107B8000104B4FF6FF7060810FCB8DE80F0004F1B2
:107B90000C01684662DF002810D1207B8DF81200AE
:107BA0004FF4A050ADF81000224604A90120A8DF30
:107BB000002803D12946204600F010FD05B030BD55
:107BC0000E20FBE7F01603000A46014610000FD016
:107BD00000290DD00A88102A05D0112A05D0502A74
:107BE00006D105F051BF898801E04FF6FF71418150
:107BF0007047000040B1054900220123CA600B70A4
:107C0000C1E90102104670470E2070478033002002
:107C100070B504002DD000292BD020480078002812
:107C200027D020880D46112815D0302804D03228BE
:107C300007D033281ED109E0211D284605F0B2FEE9
:107C400018E0211D284605F0E3FC13E0211D28461D
:107C500005F0DAFD0EE0A088B5F8CA12884209D115
:107C6000002085F8C70285F8C8024FF6FF70A5F816
:107C7000CA0270BD95F8C8020028FAD020883028C2
:107C8000F7D34F28F5D8A088B5F8CA128842F0D1AA
:107C90002846BDE8704000F049BE00008033002057
:107CA0007CB5054608880C460930904201D90C2065
:107CB0007CBD68466DDF0028FAD121880820685411
:107CC00020881B21401C80B2208029542088401C21
:107CD00080B220802844DDF801100160BDF8051055
:107CE00081802088801D80B220809DF80010490886
:107CF00000D0012129542088401C208000207CBD18
:107D000010B504468088FFF791FE01280BD021882A
:107D1000262908D0022801D01D2909D12046BDE816
:107D2000104005F083BB2046BDE8104005F0FABBCB
:107D300010BD000010B51A4C0188606810290ED0E3
:107D400011292BD1401E606028D1FFF703F80028CD
:107D500024D02168002921D0BDE810400847D0B9BF
:107D600000210122084600F045F908B107280FD18B
:107D700007220221012000F03DF908B1072807D1B0
:107D800004220221002000F035F920B1072802D09A
:107D9000216801B188476068401C606010BD000028
:107DA000703300202DE9F04701883B4E40F2F31973
:107DB0004FF6FF7510291BD011293ED0122954D03F
:107DC000502946D1C188F289841D914241D16189EF
:107DD00002293ED18688304602F064F8050038D08A
:107DE00004F10C0000F0F2F8A8B3294630464EE04A
:107DF000C17B8788044601292BD1A846284602F07A
:107E000051F8050017D02F800020287223484346E0
:107E10004A460168C5F80A104068C5F80E0004F12A
:107E2000100105F10A0002F071F96872F08900286A
:107E30000FD129462AE0042013E0808802F032F8AE
:107E4000040006D06068FFF79FF808B108F006F854
:107E50002580BDE8F087FFE76868FFF795F8002800
:107E6000F7D0BDE8F04707F0F9BF878806463846E7
:107E700002F018F80400ECD02B464A4606F108013F
:107E800004F10A0002F042F9607221463846BDE86A
:107E9000F04700F0A3BA00000C3E00207833002029
:107EA0002DE9F04F0746858802883D48012197B0AB
:107EB0008346102A09D0112A49D01A2A6CD1387A5F
:107EC000B1EB101F45D2012244E0354C083CA068BC
:107ED000C0430B9061680BA802F0ABFF0B990CA894
:107EE00000F016FA2C220CA96846FEF77FFA00264D
:107EF000E946A04610E000BF09EB46005FF0000431
:107F0000B0F804A008EB84005146001D02F02DFFDC
:107F1000641C1D2CF6D3761C0098B042ECD8142DAE
:107F200005D317B00420BDE8F04FFEF79FBF2946E8
:107F3000584602F065FF294608F1040002F060FF90
:107F4000F87B012828D016482946001D15E029464F
:107F50001AE000220221B1EB101F01D2012600E03D
:107F600000260F49083901F11000041D294682B18D
:107F700002F046FF36B12946204617B0BDE8F04F63
:107F800002F03EBF2946204617B0BDE8F04F02F090
:107F9000ECBE02F0EAFEF5E717B0BDE8F08F000096
:107FA000303E002010B504460748007800280AD06B
:107FB000204601F0A5FD204608F0D8F92046BDE88E
:107FC000104001F031BA10BDC0330020007800F03D
:107FD000010070470249085C012103F0AEBF0000B8
:107FE000101703000249085C002103F0A6BF00003F
:107FF0001017030070B50023042810D20D4D00EBBC
:108000004004012A02D101290CD00022094E00EBC4
:108010004000304461B1012906D0022906D007236F
:10802000184670BD0E30C2B22A55F9E74270F7E724
:108030008270F5E7CC3D00202DE9F8430546861C0B
:1080400000208DF8000090460F464FF00109684669
:10805000FEF7AAFF1B4C20683860D4E90001401AE3
:10806000A16804F21C47081A0EE00121384602F00C
:10807000DAFE02F055FB0146384602F0D4FED4E9A0
:108080000001401AA168081A401C8642EDD8B8F1D8
:10809000000F03D0052065F3891002E0062065F388
:1080A0009F50A2682168114004EB8101C8602068DC
:1080B000304420609DF80000FEF79AFF4846BDE876
:1080C000F8830000004A002070B50D4604460A29D6
:1080D00002D10D21FFF7F8FFA0682268411CA160C2
:1080E0001554D4E90101814204D32046BDE8704013
:1080F00003F045BB70BD0000034803C8814201D1B5
:108100000120704700207047004A00201CB504463B
:1081100001F01AFE00236A46092106F0A5F8052899
:1081200005D10348012241792046FFF7C7FC1CBD59
:10813000903300201CB504460020009042F6A62093
:10814000ADF8000001208DF80200084801AA694638
:10815000006801902046A0DF002805D104480122D4
:1081600081792046FFF7AAFC1CBD0000941703008C
:108170009033002005494FF0FF32082841F82020B5
:1081800002D3084480F8482070470000B044002023
:108190000249084490F9300070470000B0440020C4
:1081A00008B5024690F8C6020B4600EB8001C1EB11
:1081B000801002EB400092F8C52242B1521ED2B2AA
:1081C00002EBC20100EB4102518A491C00E0C18868
:1081D000ADF800100089ADF80200694618469DDF31
:1081E00008BD70B504464FF6FF750A462846AC42F6
:1081F00009D14FF480742146104602F0D1FD80B2BF
:10820000A0420BD070BDFF2CFCD82146104602F0D6
:10821000B7FD90F0010F01D0204670BD284670BD1B
:1082200070B5084C050009D010342168002907D02A
:1082300008682060496828468847F6E70834F4E76C
:1082400070BD00009C440020054A012120B1012896
:1082500005D19170FFF7E4BF51700020FAE7704735
:108260009C4400202DE9F05F26484168F1B3DFF817
:1082700098B00E688146DBF8004087688078E11B83
:1082800021F07F45ED1CB0B9DFF880804FF48030DD
:10829000C8F84403C8F804031120FEF7DDF91120E3
:1082A000FEF7E5F94FF0010AC8F800A02F2004F00E
:1082B00073FD89F802A0B54200D23546124BE81989
:1082C0003C3320F07F401860DBF800105A46091B51
:1082D00021F07F41001B20F07F40C91C81420FD953
:1082E000106818602F2004F057FD00E004E0BDE89E
:1082F000F05F1120FEF7C6B9BDE8F05F07F03ABBAA
:10830000BDE8F09F7C3400200415014000100140BE
:1083100073B58CB00646002000900D9880B1002403
:108320006D4621460DA802F060FD30B1009805EBC6
:10833000400084800098401C0090641C142CF0D3F2
:108340002C2269463046FEF751F80EB070BD2DE97B
:10835000F04117880646B81D14460D46984202D9CA
:108360000C20BDE8F0813188072206290AD34FF49A
:10837000486C4FF6FF73614501D9994202D170886C
:10838000062801D21046ECE7604501D99842F9D1A0
:10839000994203D0984201D08142F3D80520E85594
:1083A00020881221401C80B2208029542088401C43
:1083B00080B220804119308808F0A9FD2188084446
:1083C00080B220804119708808F0A1FD21880844FE
:1083D00020800020C5E7FEF749BD000038B54A7A85
:1083E0000F4B62B100220A725969002906D001229E
:1083F0008DF80020ADF802006846884738BD0A7A3B
:1084000062B19B684C68024619462046FEF778FD2B
:108410000028F3D0BDE8384007F020BD5B68F1E7E5
:108420000C3E0020F0B587B016460F4604461D46A8
:1084300018220B496846FDF7D9FF0A488DF80870E5
:10844000ADF80240ADF80A608DF80C5001780022BA
:108450002046FFF733FB684600F0E8FB07B0F0BDAD
:108460000419030030340020FEF740BB2DE9F04131
:108470000F4D8046164628680F4640B90024204616
:1084800000F018F845F82400641CFF2CF7D90020F0
:108490000AE0316818F80030CAB25A40401C55F85A
:1084A000222082EA11213160B842F2D3BDE8F08186
:1084B000CC390020074A0021C30701D0002300E087
:1084C0001346491C83EA50000829F5DB80F07F4001
:1084D000704700002083B8EDF0B585B001F068F971
:1084E00005461E481E492A46401AC108032000EBD3
:1084F000014004461BA103F0A1FF58212048FDF7CD
:108500008EFF002000900190029003902F0CAEB2DD
:10851000049003AB6A463146384600F047FDB8B1D7
:1085200017481749583007804680416016218160FE
:108530000146684600F085FD08B1FEF797FC20462D
:1085400033463A460FA103F080FF284605B0F0BD40
:1085500020461AA103F06EFF0020F7E7D43603008F
:10856000243603004372656174696E67206E657717
:1085700020757365723A2030782530385820000015
:10858000683900204E6577207573657220637265C7
:10859000617465642C2066696C655F69643A20309B
:1085A00078253034582020207265636F72645F6BC9
:1085B00065793A203078253034580A005573657251
:1085C00020416C7265616479206578697374732CDD
:1085D0002041626F7274696E6700000070B58EB0E2
:1085E0000E46054600241C216846FDF718FF9DF83D
:1085F0000000019440F01A008DF8000003940494E8
:10860000059406940C94B0788DF83000F0788DF8CD
:1086100031009DF83200142120F00600801C20F06B
:1086200019008DF83200287B8DF8360041F20140A8
:10863000ADF8340007A8FDF7F2FE0DA807900CA8CE
:1086400008901B20ADF82400ADF82640ADF82800B6
:108650002888AB1C07AA6946AADF0EB070BD0000CF
:1086600070B588B00646002005900690ADF814104D
:10867000ADF816100190029001AA05A9304690DFCE
:10868000050021D004F0F4FA03461148114932469E
:10869000401AC108012000EB014004460E4903F0D6
:1086A000D4FEBDF8042012B9BDF8060028B1BDF80B
:1086B0000630204609A103F0C8FEBDF808201AB113
:1086C0002046164903F0BAFE08B0284670BD0000E7
:1086D00044360300243603007C23030054686520DD
:1086E0007265717565737465642054582F525820F3
:1086F0007061636B6574206C656E67746820697364
:1087000020746F6F206C6F6E672062792025752F43
:108710002575206F63746574732E0000C8230300F1
:108720007047000070B504460948012102F096FB2D
:10873000BFF35F8F0025002808D1204601F06AFFB3
:10874000002803D1BFF35F8F0148056070BD0000B2
:108750009C3300207FB50C4610B1012004B070BDE1
:108760002079002638B141F61D5501281BD002287A
:1087700026D00F20F2E70220207102960396E068CF
:108780000190694601A806F0F1FF50B10298818876
:10879000E18000882081BDF80010029807F064F89D
:1087A000DCE70A20DAE70A4B6A460021A01D06F042
:1087B00099FF38B1064918398E61CE610A28CDD1AA
:1087C0002846CBE702488188019807F04DF8F5E785
:1087D000A83400202DE9F843054690F8C6020F465C
:1087E00000EB8001C1EB801005EB400695F8C54217
:1087F000914604EBC40006EB40013279601C0A315B
:10880000904226D16B460022284601F0A1FC18B305
:1088100010E0401EA04201D1002004E004EBC4009F
:1088200006EB40001C30804602466B46284601F0AD
:108830008FFC30B100203870694648469EDFBDE8A5
:10884000F88395F8C5024146401C641C85F8C502B2
:10885000E4B23079A042DCD8012038700020EEE785
:108860002DE9F047894690F8C612904601EB810247
:10887000C2EB811100EB4107384607F055F80600BE
:108880002FD0194CA06806282BD2184D762205EB64
:10889000C0103946A0F80280001DFDF7A7FD002793
:1088A000B9F1000F04D0A06805EBC010077004E018
:1088B000A168022005EBC1110870A06805EBC0118A
:1088C000401CCE67A060E16888420AD1002604E01F
:1088D00005EBC610C16F8847761CE0688642F7D367
:1088E000A760BDE8F087000080330020B83E00207C
:1088F00070B50E4690F8C612154601EB8102C2EB28
:108900008111A0B000EB410007F00EF8040009D07F
:108910007C2205496846FDF769FDADF802506846BE
:108920000196A04720B070BD1817030070B50E4621
:1089300004464FF43371FDF772FD11480025A4F889
:10894000CA62856084F8C9520E4884F8C65284F819
:10895000C552006820602246012130469BDF01217C
:10896000112806D0002809D184F8C71284F8C8520B
:1089700003E084F8C71284F8C812002070BD00001C
:1089800080330020A03E002010B50021024802F0F4
:1089900065FA80F3100010BD1C4E00200E4910B582
:1089A0000A784C780023A24212D0521CD2B20A702C
:1089B000022A00D10B70084A0B780C3252F823209F
:1089C00002608868104420F07F408860012010BD5C
:1089D0000360002010BD00007C34002013460A46CE
:1089E0000021FFF71FBD00002DE9F843104D0F4691
:1089F00080461E4691466946286802F08AF90400BE
:108A000014D01C21FDF70BFD01202071C4F8149037
:108A1000380BC4F80080C4E902606946286802F097
:108A200099F906F0CBFD0020BDE8F8830420FBE7B0
:108A3000D01A030010B503780022072B06D2DFE816
:108A400003F005040610202930000A7010BD012330
:108A50000B7003898B818388CB81C06888600A741E
:108A600010BD02220A7002898A818288CA81C26886
:108A70008A60807D062802D00020087410BD012085
:108A8000FBE703220A70C2888A810289CA81C06812
:108A9000886010BD04230B70C0888881CA818A60F9
:108AA00010BD0520087010BD70B5064D06460024A7
:108AB00055F8241009B130468847641C042CF7D3BC
:108AC00070BD0000D846002030B50446006887B06D
:108AD0000D46806800281FD018216846FDF79FFCCE
:108AE0000195A0680590207910B1012810D107E008
:108AF00001208DF8000020690290E068039005E0F5
:108B000002208DF80000E068000302906069049084
:108B1000206881686846884707B030BD2DE9F0417C
:108B200086B016460C00804629D0112C27D0082C80
:108B300025D018216846FDF772FCADF8028040464A
:108B400001F002F9ADF804001B481C490027401A47
:108B5000C5080D2C16D0204604F08AF802460120E4
:108B600000EB05404346164903F06FFC07208DF8E3
:108B7000000002948DF80C70684600F065F806B0AD
:108B8000BDE8F081022000EB054042460D4903F0AC
:108B900055FC03208DF8000026B13078C00701D0C5
:108BA000012000E002208DF8080041F201108DF84C
:108BB0000C70ADF80A00DFE77C36030024360300B2
:108BC000FC2D0300EC2C030010B50446408801F096
:108BD000BBF8A080024801682046BDE81040084765
:108BE0009833002010B50446808800F0F7FF6080BD
:108BF000024801682046BDE810400847A83300201D
:108C00002DE9F04107460024064E074D05E000BF60
:108C100056F8241038468847641CE8788442F7DB0D
:108C2000BDE8F08150440020C033002010B5044658
:108C3000408801F089F8A080024801682046BDE81C
:108C400010400847B81803000149096808470000A8
:108C50005C19030070B5054640681A4951F8203088
:108C60002878403151F8202017481849401AC10887
:108C7000032000EB0140044615A103F0E6FB287831
:108C8000B8B1012801D003281AD16868002817D18B
:108C9000204615A1AA6803F0D1FBAA89204617A196
:108CA00003F0CCFBEA892046BDE8704017A103F031
:108CB000C5BB6868002803D102490120091F08705C
:108CC00070BD000018330020D436030024360300A2
:108CD0004576656E743A2025732072656365697602
:108CE00065642028257329005265636F72642049EA
:108CF000443A0930782530347800000046696C65C4
:108D00002049443A09307825303478005265636F41
:108D10007264206B65793A09307825303478000028
:108D200070B586B0044618216846FDF778FBA08927
:108D30000125A0F54040ADF804002078324E062809
:108D400035D2DFE800F0340303032E4EA08900F093
:108D5000E1F930B9E08943F6FE71A0F54040884260
:108D600025D8A07B8DF808002078032811D000209A
:108D70008DF80900A0680390606860B109208DF843
:108D80000000606804908DF81450684605F0BEF944
:108D90000DE00120ECE708208DF800008DF8105060
:108DA000F3E7A08900F0B6F908B1E08930B1707836
:108DB000002801D005F0F4FA06B070BD606840B13B
:108DC0000B208DF80000606802908DF80C507570D3
:108DD000DBE70A208DF80000BDF8040005F07EFBFB
:108DE000F5E7606858B114208DF8000060680290C3
:108DF0008DF80C504FF6FF70ADF80400C5E7132056
:108E00008DF80000F6E70000AC33002038B50446CA
:108E10000E480078A8B1A4F57F40FF380FD068460F
:108E200006F0FEFA78B10521017001210171C480BC
:108E3000684606F003FB06F0B3FB002038BD0420B3
:108E400038BD022038BD082038BD0000B0340020F5
:108E50000C4808B5007888B1684606F0E1FA78B1A8
:108E600006210170684606F0E9FA0748017809B161
:108E70000121017306F094FB002008BD022008BD0B
:108E8000082008BDB03400209C470020F0B587B012
:108E900014216846FDF7C3FA2F4C207818B16846B4
:108EA000FFF702FE55E0201D01F0BAFF98BB40F627
:108EB000F8700168481C02D14FF0102041694FF052
:108EC0008050026940694B1C01D100FB02F123482C
:108ED00000220161A1F54051C160214902F0E4FD89
:108EE000002822D120481C238C221E49006801F052
:108EF000FDFE04F09DFE050016D0022D14D00027C3
:108F00000126062D13D005A806F08AFA90B1067046
:108F10000C2D19D200E01CE0DFE805F0160E160E4D
:108F200016151615161012100B2007B0F0BD26707E
:108F30006760B4E70820F8E7077105E0032100E067
:108F40000221017100E0067105A806F077FA06F02B
:108F500027FB0020E9E70000B03400205035002056
:108F6000E01A0300E8460020481A030038B5040060
:108F700014D0694606F0FAFBA0B1BDF8000000EB82
:108F80008001094800EB8100C16849B1A17A39B17B
:108F9000C168491EC1600020A07238BD052038BDDF
:108FA000062038BD0A2038BD744700201FB501A92E
:108FB000684606F097FB04B010BD07B513460A4695
:108FC0006946002006F08EFB0EBD07B513460A4623
:108FD0000021684606F086FB0EBD20B119B100687D
:108FE000086000207047052070470000F8B50D4666
:108FF000040018D0BDB1694606F0B8FBA8B1BDF8B1
:1090000000000B4900EB800001EB800001210C30D7
:10901000666801F008FF2E6060680C30686001200F
:10902000A0720020F8BD0520F8BD0A20F8BD0000A0
:109030007447002018B10323002208F02FBA05203E
:1090400070470223002208F029BA0000084910B531
:109050000A69042A0AD0074A096942F8210004482B
:109060000121103001F0DFFE002010BD0C2010BDEA
:1090700090340020D84600202DE9F84F04462348BC
:109080000078D8B1ECB112212046FDF7C8F90320D1
:10909000DFF87C902080002504F1100804F10E0A0E
:1090A00005EB850109EB810630897189084487B297
:1090B000706804F047FD032805D007E00220BDE8F2
:1090C000F88F0520FBE72088401E20806088F1682B
:1090D000084460802089718908442081608938446F
:1090E0006081C7F58060A18980B2814200D2A081F1
:1090F0005346A21D211D2846CDF8008006F0D0FB66
:109100006D1CADB2022DCBD30020D8E7B0340020C7
:109110007447002043F6FE71A0F54040884201D814
:10912000012070470020704710B5044600781828C9
:1091300002D1FEF79FFC207010BD10B504460078E8
:10914000182802D1FEF796FC207010BD70B50D46B0
:109150000446B0F83812D0F834020122FEF78FF935
:1091600000B1057004F13C0204F50D7104F15400E6
:1091700072DF70BD70B5134600220546112900D17B
:109180000122074C33B12179FEF798FC0022617867
:10919000284600E06178BDE87040FEF78FBC000013
:1091A00038340020F7B517460E0011D0009800257E
:1091B00060B100242146684601F017FE18B1A0B244
:1091C0003946B0476D1C641C142CF3D32846FEBDF1
:1091D0000020FEBD406806F043B900000EB514A1A2
:1091E0009DF8080020F00F00401C20F0F000103027
:1091F0008DF80800092202A87CDF08B1FDF736FED1
:109200000020009001900D48018EADF80010418EB5
:10921000ADF80210818EADF80410C08EADF80600D6
:1092200068467ADF002801D0FDF720FE0EBD000061
:109230004D4143456E7472616C000000143800208B
:1092400070B508B1012070BD1B4C0025207B08B112
:10925000257301E000F0A4F8207808282AD2DFE87E
:1092600000F02904080C10291422BDE8704000F019
:1092700025B8BDE8704000F081B8BDE8704000F04E
:1092800063B8BDE8704000F03FB8062020706088E9
:10929000094900EB8000283901EB80004068BDE8F7
:1092A000704004F0A5BC072020706560BDE87040E8
:1092B00004F0ACBC0F2070BD9C4700201149F0B4F5
:1092C0008A1C00200346A1F128050C18A67A4EB18D
:1092D000A37200EB800405EB8404E66816B9247CD5
:1092E000012C0AD0401C80B20228EED30B704B80B8
:1092F0004B60F0BC41F61D5070471080F0BC00F090
:109300003DB800009C4700200C48418801EB8102D9
:10931000A0F1280101EB8201CA6852B10521017058
:10932000074802218180016800230122054802F0DC
:109330001FBB042202704968F6E700009C4700202A
:10934000B83400205035002038B50A4908480324B5
:109350000B684268898803EB810153880470DB1C29
:1093600000201B0400909B0B034802F07DFC38BDDD
:109370009C470020B834002050350020074910B524
:109380004888091D06F042FA18B1BDE81040FFF701
:10939000DBBFBDE81040FFF7B7BF00009C470020CF
:1093A000F0B51F481F490125067802248B88A0F1DB
:1093B0002802082E19D2DFE806F00418181B222F05
:1093C0002F170189491C01810021418080F80C1070
:1093D00001EB810312F8233043B100234418491CE8
:1093E00089B2A3720229F3D30570F0BD0123F5E71A
:1093F00042685288D21C1A448A800470F0BD4688A4
:109400000D6806EB860602EB860256680E60556014
:1094100013818C80062100E007210170F0BD00005F
:109420009C470020B83400202DE9F0430646808890
:109430003288DFF85C8187B00746502A37D010DCCD
:109440005449554B06F10A05A1EB03014FEAD1013E
:109450004FF0020303EB0144352A3AD0362A07D1F4
:1094600068E0522A02D0542AF9D102E001F076F8DD
:1094700082E0182249496846FCF7B8FFADF802704F
:10948000384600F061FCADF8040000F0D3F900228A
:10949000444698F804103846FEF710FB0022E178A5
:1094A0003846FEF70BFB6846FFF78EFB64E0307B27
:1094B000012861D1B07A01285ED13089A0F524510C
:1094C000023959D10121384601F09CF807F08EFD90
:1094D00052E098F80610FEF7D9FA00284CD0002286
:1094E00098F806103846FEF7E9FAF288B2F5857F5B
:1094F00017D012B120462AA10BE02A88012A03D0F6
:10950000204636A102F09AFF6A88012A04D020463C
:1095100041A102F093FF04E0A98800223846A1DFB0
:1095200008B1002125E0012298F807103846FEF71F
:10953000C5FA21E04FF0000998F80710FEF7A6FAE7
:10954000D0B1002298F807103846FEF7B7FAF28833
:1095500012B1204612A104E0AA88012A04D02046B4
:109560002DA102F06BFF03E0A87900B10120814634
:109570004946384607F012FA0022364998F80200A8
:10958000FEF72EFA07B0BDE8F04306F0EFBC00008E
:10959000903300202C36030024360300F817030014
:1095A000556E657870656374656420474154542036
:1095B000737461747573207768696C65206765746E
:1095C00074696E672043415220636861722076613E
:1095D0006C75653A20307825780000004D756C7404
:1095E00069706C65202825642920434152206368F6
:1095F0006172616374657269737469637320666F05
:10960000756E642C207573696E67207468652066BA
:10961000697273742E000000556E6578706563740E
:1096200065642043415220636861726163746572AE
:1096300069737469632076616C7565206C656E670B
:10964000746820282564292C2073746F726520307B
:109650002E0000003571020070B504460078002825
:1096600014D1608800F07AFF6588284600F0A4F9DC
:1096700028B107480122C1782846FEF71FFA608802
:10968000FEF744FDBDE8704007F0B0BC70BD0000BF
:109690009033002070B5204C00252570FEF7EAF9C4
:1096A0006070FEF7E7F9A070FEF7E4F9E070FEF7EE
:1096B000E1F92071FEF7DEF96071FEF7DBF9A071C8
:1096C000FEF7D8F9E07162780121182A18D0A27843
:1096D000182A15D0E278182A12D02279182A0FD029
:1096E0006279182A0CD0A279182A09D0182807D034
:1096F00004F10C000560BFF35F8F2170002070BD86
:109700000648074A801AC00801EB0040054902F0EC
:1097100091FE032070BD0000903300202C36030022
:10972000243603003C2003007CB50446007808285A
:1097300037D1607A58BB207A1C4E4FF6FF7501284E
:1097400011D0072802D008282BD121E0A08800F0F2
:1097500045FA0446A84224D0012100F053FF2046D8
:10976000FEF7D4FC1DE0A0886A46012104F0F0FB5E
:1097700068B90198007850B1A08800F02FFAA8428B
:109780000FD00122F178FEF799F906F0EFFB08E01F
:10979000F068012805D1BFF35F8F044900200C3128
:1097A0000860BDE87C4007F021BC00009033002039
:1097B00038B50546002000900B480C49401AC108F6
:1097C000032000EB01440AA1204602F033FE2046AC
:1097D0000622294602F0DAFD6A4606212846FEF7EF
:1097E00045FE009838BD0000D4360300243603003F
:1097F00047656E65726174696E6720494420666FC3
:109800007220000070B5054609480E4600680469DC
:1098100009E0D4E9000133462A46FDF772FA08B19F
:10982000204670BD2469002CF3D1002070BD0000DB
:10983000103300201CB5054AD2E90212CDE900120E
:109840000022694604F04AFD1CBD00001418030004
:1098500003484FF6FF71818001210170002070479D
:10986000A03300202DE9FC41804600F06DFA002471
:1098700003250127A0F57F412646FF3908D06A4617
:10988000082104F065FB18B90198841D86880568D5
:1098900032462B4621464046B1DF042804D0082832
:1098A00004D00B2808D002E0112000E00020002F97
:1098B00000D10B20BDE8FC810027A80701D50125B8
:1098C000E6E7344303D0002426460325E0E70648B4
:1098D00006494246401AC008012101EB00400449F4
:1098E00002F0ACFDE5E70000343603002436030047
:1098F000042303002DE9FC41804600F025FAA0F581
:109900007F410646FF390ED001252A466D1C0027EF
:10991000ADB26B460821304604F064FB040006D06B
:10992000072C33D033E043F20200BDE8FC810199FB
:1099300003230A1D0B604046891DB2DF040004D0DA
:109940000C2C09D0052C09D009E03246082110461C
:1099500004F0C0FB04461AE0012700E000240821BF
:10996000304604F0ADFB70B103F082F903460948BC
:1099700009493246401AC008012101EB004007495D
:1099800002F063FD0324002FBFD100E00C24204629
:10999000CBE70000343603002436030084220300A2
:1099A00004488088A0F57F41FF3901D006F0E8BA6D
:1099B00070470000A03300200EB502A9019100F00D
:1099C000C3F96A46012104F0C3FA08B100200EBDB4
:1099D000019800780EBD00002DE9F04107464FF6D2
:1099E000FF761048B3DF78B103F042F902460E4823
:1099F0000E49401AC008012101EB00400C4902F059
:109A00001DFD0320BDE8F081064C43F20305A41EB2
:109A1000324661883846AFDFA842F3D16088401CE7
:109A20006080F5E7A23300203436030024360300BB
:109A300038220300428800EB82020C328A4201D9AC
:109A4000022070478188A1F57F42FF3A03D0008849
:109A500008B10020704701207047884204D2006896
:109A6000401C01D0012070470020704710B502F063
:109A700073FB002803D1BDE8104002F083BE10BD87
:109A80003EB5027802230C46B3EB520F17D1B0F863
:109A90000110ADF80010C1788DF802108188ADF882
:109AA000041080798DF8060002AA01A92046FDF76E
:109AB0006CF9032202A96846FCF7D1FC08B100202A
:109AC0003EBD01203EBD000070B50D460446142881
:109AD00010D2FEF713F868B1084904EB840001EBDB
:109AE0004000D0F802102960C188A980007AA871CE
:109AF000002070BD43F2020070BD0000B84100209C
:109B000070B5018892B0102961D1011D2C226846E0
:109B1000FCF76CFC9DF804004FF6FF7603213446F9
:109B2000B1EB500F2BD004F097FB9DF804006D466D
:109B300040080ED001280CD0022820D118E00D9941
:109B4000281D1131FDF7B8F818B100BFBDF82C4041
:109B500015E00CAA0BA9072004F052FB0028EED157
:109B60000DE00D99281D491CFFF78AFF0028EDD153
:109B70000CAA0BA9072004F043FB0028F1D1BDF883
:109B80000000B44200EB8001124820F8114000EBC5
:109B900041000199C0F80210BDF80810C1809DF87D
:109BA0000A10017213D0BDF80000ADF82E0000209D
:109BB000ADF83040084E8DF82C000BAD044600BFC8
:109BC00056F8241028468847641C022CF8D312B09B
:109BD00070BD0000B8410020281803002DE9F041B5
:109BE0004FF6FF760546B04213D00B4F002400BF5E
:109BF00004EB840037F81000A84206D12046FDF798
:109C00007DFF10B12046BDE8F081641CA4B2142C85
:109C1000EED33046F7E70000B84100203EB50C46D1
:109C2000054604F019FB0BE0BDF80000A04207D088
:109C30002846029900F00EF810B1BDF800003EBDB4
:109C400001AA6946072004F0DBFA0028ECD14FF6A0
:109C5000FF703EBD2DE9F0410C46054600F11107AD
:109C600001F111061022491C401CFCF7F8FB48B911
:109C7000681C00F0ABFA28B1601C00F0A7FA08B12C
:109C8000012400E0002431463846FDF715F83B7802
:109C90000222B2EB530F0CD00321B1EB530F08D0CB
:109CA0003378B2EB530F04D0B1EB530F01D0012145
:109CB00000E00021084201D18C4302D00120BDE820
:109CC000F0810020FBE7018811B9421892780AB1AF
:109CD00001207047491C0829F7D30020704710B5B0
:109CE0000C460346FFF7EFFF00280AD018882188AA
:109CF000884205D10822A11C981CFCF7B0FB08B1D2
:109D0000002010BD012010BD142804D2024A00EB2F
:109D1000800022F810107047B841002070B5054649
:109D2000FFF75CFF0446284604F016F9002808D126
:109D3000142C06D2034B04EB84024FF6FF7123F878
:109D4000121070BDB841002010B50446142808D286
:109D5000FDF7D4FE28B1044904EB840031F810006B
:109D600010BD4FF6FF7010BDB84100203EB504464F
:109D700004F072FA0EE0019920464631FFF7AFFF7A
:109D800028B9019920462A31FFF7A9FF10B1BDF883
:109D900008003EBD6A4602A9072004F031FA0028F7
:109DA000E9D14FF6FF703EBD10B50A4941600A483F
:109DB00001F036F858B902F0E1FE07491C238C2265
:109DC000087404488C39001F006800F08FFF0020E1
:109DD00010BD0000D41A0300484800202DE9F041CE
:109DE0002D4F002518B17D600120BDE8F081087974
:109DF000012258B1294E01280CD0274C4FF00208FF
:109E00000834022821D0032842D128E00A7103F047
:109E1000FDFE3BE05FF0000000EB800116F8211032
:109E2000022908D0401C80B20228F5D33A707D6028
:109E300041F61D50D9E700EB800006F8205006EBF4
:109E40008000406803F0D4FE20E00D71A4F8048087
:109E5000002301221248216801F08AFD16E00D71ED
:109E6000206803F0C5FE0D4923682831498801EBBD
:109E7000810206EB8201D1F804C0C4F800C04B6037
:109E8000A3880B81A4F8048006F822500028ACD0E7
:109E90007D600E20A9E70000B03400207447002048
:109EA000503500200146034802888A4200D0002035
:109EB00070470000F83D00202DE9FC5F0E0083464E
:109EC000DDE90C47C6F1000098469246814600D471
:109ED0000846012503E000BF90FBFAF06D1C5045D9
:109EE000FADAA84500D9454624B1002E01DB7807EF
:109EF00000D5641EB80702D5B8F1000F0AD0F807E4
:109F000008D13CB1A54205D220215846641EFEF777
:109F1000DBF8F6E7002E02DA4E462D2102E0780744
:109F200003D52B215846FEF7CFF807F0030002288F
:109F30000BD1B8F1000F08D13CB1A54205D23021B8
:109F40005846641EFEF7C0F8F6E7CDE900474346E1
:109F500052463146584606F0EFFFBDE8FC9F000030
:109F600070B50D46044600684FF4887102F0A0FEFB
:109F70004FF49071206802F09BFE4FF492712068BC
:109F800002F096FE4FF4A271206802F091FE206864
:109F90001149C0F804132068690740F30730090E1F
:109FA000002806DA00F00F0000F1E02080F8141D10
:109FB00003E000F1E02080F800142068012140F364
:109FC000073000F01F0291404009800000F1E020BE
:109FD000C0F8001170BD000010030200024600200E
:109FE0001268530713D502F00300012802D002289B
:109FF0000CD105E0C2F383100B68801C184404E008
:10A000000223086803EB9252104408600120704755
:10A010002DE9F0479146884604464FF480354FF4C9
:10A02000A0760027DFF884A016E000BFD4F8040370
:10A0300028420DD0A05958B1C4F84853C4F8085369
:10A040003146204602F0CEFB5AF82810F8B2884775
:10A05000361D6D00B6B27F1C4F45E7D3D4F804031C
:10A060004FF4807110F0010F09D0D4F8000130B125
:10A07000204602F0B7FB5AF8281004208847D4F88D
:10A0800004034FF4827110F0020F0CD0D4F80401D5
:10A09000002808D0204602F0A5FB5AF82810BDE899
:10A0A000F04705200847BDE8F08700007434002021
:10A0B000F8B50E4604464FF48C7102F0B8FD002846
:10A0C0001AD00025C4F81851D4F818010090F07F78
:10A0D0003446FF2806D0A17F11B101F020FF01E036
:10A0E00001F024FF65772572D4E9002101B004F165
:10A0F0000800BDE8F0401047F8BD00000248007AB3
:10A10000002800D00120704748480020F0B584881E
:10A11000A518944200D82246A41AC288D6189A429A
:10A1200000D81346D21A4B880788BB420CD340880C
:10A13000834209D88888A04206D3A84204D8C88898
:10A14000904201D3B04201D90020F0BD0120F0BD02
:10A1500010B509892AB1D088491C814218D1002044
:10A1600010BD90F8C62202EB8204C4EB821200EB11
:10A17000420212899142F2D0491C198090F8C6120D
:10A1800001EB8102C2EB811100EB4100008902E08A
:10A190001980D088401E5880012010BD70B505463A
:10A1A00009480E460068046909E0D4E90001334615
:10A1B0002A46FCF7A6FD08B1012070BD2469002CD9
:10A1C000F3D1002070BD0000103300200021425C5C
:10A1D0000AB101207047491C1029F8D300207047AC
:10A1E00090F83A00C0F3C100012803D0032801D041
:10A1F0000020704701207047800701D00020704781
:10A20000012070470348006800E008460169002902
:10A21000FBD17047103300201721018041800021BD
:10A22000017141711B218171C17170472DE9FE4F90
:10A230002E4F984692460D00814601D000260DE033
:10A24000684600F029FD6A460021484603F0D8FD23
:10A250003878009E10B99DF8090098B152463146F1
:10A26000484606F0FDF90446014600224846FEF73E
:10A2700081FF0D2C37D008DCA4B3082C33D00B2C75
:10A2800009D130E00520BDE8FE8F112C1ED0A4F5C9
:10A290004050023827D0204602F0EAFC024614481B
:10A2A00014494B46401AC008012101EB00401249F5
:10A2B00002F0CBF85FF00305B8F1000F04D032468E
:10A2C00021464846FEF72AFC2846DCE72A46F9786C
:10A2D0004846FDF7F3FB5246B9784846FDF7EEFBDA
:10A2E0000025E9E7FFE72546E6E7000038340020CF
:10A2F0007C36030024360300A42D03007EDF0428EF
:10A3000000D111207047000070B50D0014460646BC
:10A3100017D01648C1783046FDF7D0FB3046FFF71E
:10A3200013FD0146A0F57F40FF3800D074B12946E7
:10A330003046FFF7E3FF04462878C0070BD0012220
:10A340000AE0BDE870400021FFF7D8BF304600F0BA
:10A350000FF8044605E002222CB10021304605F03A
:10A3600035FD204670BD0121F8E7000030340020A3
:10A370007CB50E4605466A460721304603F0E8FDE7
:10A38000040013D0052C1DD0112C2BD002F070FC32
:10A390000246194819493346401AC008012101EB09
:10A3A0000040174902F051F803241BE0019C94F887
:10A3B0004400183410F0010001D0019C34340CB179
:10A3C00010B106E011240DE004F11200FFF77BFC50
:10A3D00038B1224604F11201284685DF040008D076
:10A3E00000E00B2400210022284605F0EFFC204667
:10A3F0007CBD0121F7E7000074360300243603001A
:10A40000342C030070B514460D46064605F00EFDCB
:10A4100000280FD0304603F099FC00282246294638
:10A42000304603D0BDE8704003F096BCBDE87040F4
:10A43000FEF7D4BA70BD000070B5094D0646A97884
:10A44000FDF724FB0446E9783046FDF71FFB014683
:10A4500022463046BDE870400123FFF7E7BE00000A
:10A46000383400202DE9F047394E002780463D461C
:10A47000DFF8E090D6F804A057E003D00446D0F807
:10A480001C8035E099F8002002EB4201521CD2B248
:10A4900089F8002009EBC10199F80230091D9A42A0
:10A4A00001D189F8005048680A780446012A12D080
:10A4B000022A02D0032A3BD108E006F011FB00B1CA
:10A4C0000127257434E00574C06900E07068002835
:10A4D000F9D170602CE0207C50BB88686060C8684F
:10A4E000A0600869E0604869A061F07800B165602B
:10A4F0006268B168184B501A20F07F40984202D22F
:10A50000A168084406E0881AA16820F07F408142D3
:10A5100002D9081A206000E0256065600120A5606E
:10A5200020742046E56106F0BDFAB8F10000A4D120
:10A5300099F8001099F801008142A3D117B9716808
:10A54000514502D00120BDE8F0870020FBE7000064
:10A550007C340020A4450020FFFF7F00F0B587B0C9
:10A560000546002718216846FBF759FFA5F57F40EF
:10A57000ADF80250FF3825D02846FFF773F90400E4
:10A5800022D01B481B49401AC6080B2C22D0112C84
:10A590001ED0A4F5405002380ED0204602F068FBD1
:10A5A0000246012000EB06402B46134901F04DFF07
:10A5B0002146284605F05AFC10483A46817828463C
:10A5C000FDF77CFA07B0F0BD0E208DF800000BE01F
:10A5D0000127F1E70F208DF80000022000EB064074
:10A5E0002A46074901F02AFF6846FEF7EDFAE3E73D
:10A5F0002C360300243603000C2103009033002086
:10A60000602103000A4602494978FDF757BA000065
:10A61000903300202DE9F041002786B080463E4669
:10A62000FFF768F9040022D0112C22D01B481C49E6
:10A63000401AC508862C1ED0A4F5405002380ED012
:10A64000204602F015FB0246012000EB0540434680
:10A6500014A101F0FAFE2146404605F007FC3946F8
:10A660004046FFF7CFFF06B03046BDE8F081012637
:10A67000F5E70127F3E718221A496846FBF7B6FE0B
:10A680000220ADF8028000EB0540424616A101F021
:10A69000D5FE6846FEF798FAE1E700002C36030085
:10A6A000243603006773636D5F6C6F63616C5F6476
:10A6B000625F63616368655F7570646174652829B2
:10A6C0002072657475726E656420257320666F72E2
:10A6D00020636F6E6E5F68616E646C653A202564FE
:10A6E00000000000C8170300466C6173682066759F
:10A6F0006C6C2E20436F756C64206E6F74207374C5
:10A700006F7265206461746120666F7220636F6E82
:10A710006E5F68616E646C653A202564000000001D
:10A720002DE9FF410026234800F077FB2148001F58
:10A73000074600F072FB204C60680090A56800E0BE
:10A7400000986946284004EB80000C30FFF746FC77
:10A750000028F5D101AA009901EA050304EB83035F
:10A76000491CDB6842F82030401C00910228F2D3DB
:10A77000019800F0030001280BD0022810D10198A5
:10A78000032101EB90500099BDF80A6001EB9000A5
:10A7900005E00198BDF80A60C0F3831008440090FA
:10A7A000384600F037FB08B10098606004B03046CE
:10A7B000BDE8F081184E0020004A0020ACB04FF4F4
:10A7C0000041002001F0B4FE08B1FCF74FFB01F09E
:10A7D000B5FCFCF76BFB08B1FCF748FB01F0BEFFD2
:10A7E00008B1FCF743FB02F07DF908B1FCF73EFB32
:10A7F000002469460120009402F004F808B1FCF737
:10A8000035FB684602F07EF808B1FCF72FFB05F037
:10A8100021F9FEF7E3FC00214F4800F094FB08B15A
:10A82000FCF724FB1C216846FBF7F9FD4FF42030B0
:10A83000CDE900404FF47020032702908DF80C7092
:10A840004FF6FF70ADF80E00012544488DF810500A
:10A85000CDE905406846FDF771F808B1FCF706FB45
:10A860003F48FDF7C7F908B1FCF700FB03F07CFE99
:10A8700000949DF80100694620F00F00401C20F074
:10A88000F00010308DF801009DF8020020F00F005C
:10A89000401C20F0F00010308DF802009DF80300FD
:10A8A00020F00F00401C20F0F00010308DF8030065
:10A8B00029481038FDF75EF908B1FCF7D7FAAC214A
:10A8C0006846FBF7ACFD02208DF800008DF80250C1
:10A8D00006208DF8030023480590ADF810504FF482
:10A8E000967022904EF6602023908DF87C501E4882
:10A8F0002990194869464830FCF74CFE08B1FCF72E
:10A90000B5FA154801214830FCF740FE17481849B0
:10A91000401AC00807EB0040044616A101F08AFD6A
:10A920004EB1204619A101F085FD04F08DFC20B147
:10A93000FCF79CFA01E0FCF7F5F902F035FA00F0BB
:10A940001BF905F0BDFF204614A101F073FD00BF07
:10A95000FFF78CF8FCE7000074350020D783020075
:10A9600021870200F8320020D1D30200D436030040
:10A97000243603004D696E6420417373697374203B
:10A98000737461727465642E000000004572617317
:10A990006520626F6E647321000000005374617261
:10A9A00074696E67206C6F6F70000000F0B50B303B
:10A9B000154D20F007010024144A0FE003688B4274
:10A9C0000BD38B4205D95E1A43184768C3E9006769
:10A9D00000E04368136002C004E0021D1068002814
:10A9E000ECD12046002802D1286808B10020F0BD33
:10A9F000064A07481060074A121A22F00702C0E907
:10AA0000002401202860D7E74C350020483500207D
:10AA10002C4E0020284E002070B5144682880E4629
:10AA200005462088111D0144921C994201D8FE2A36
:10AA300001D90C2070BD521C32542088FF21401CCB
:10AA400080B2208031542088401C80B2208081193F
:10AA5000288806F05CFA2188084480B22080AA8801
:10AA600042B1A96841B13044FBF7C0FC2088A988F5
:10AA700008442080002070BD072070BD2DE9F047FC
:10AA8000C5881E1DB6FBF5F78946B6FBF5F10446F1
:10AA900005FB176C407916686843DDF820A0F718AD
:10AAA000001F874200D9C61A166001E02468491EBB
:10AAB0000029FBD1A5EB0C078846B74216D818E051
:10AAC00004EB0C00001D09EB0803BAF1000F3A4635
:10AAD00002D00146184600E01946FBF787FC2468BF
:10AAE000F61B4FF0000CB844B54201D9374600E0E0
:10AAF0002F46002EE4D1BDE8F087000030B50246B5
:10AB000051B101F033FD0021074C08E034F8213049
:10AB10001568AB4202D11160002030BD491C814252
:10AB2000F4D3052030BD00000000000010B50F4B2D
:10AB300000224FF6FF7400BF02EB420103EB8101DC
:10AB40004988A1420DD102EB420103EB810201468B
:10AB5000104600F0C7FA002806D0BDE81040FCF708
:10AB600085B9521C032AE7D310BD00009835002098
:10AB7000BFF35F8F00F039B9134814491CB5401A70
:10AB8000C008032101EB004011A101F053FC02F0C9
:10AB9000FFF91548154AD0E90010CDE9001040F63C
:10ABA000FF70ADF8000010486946083002F080F9E7
:10ABB00008B1FCF75BF90C48083002F059F9BDE820
:10ABC0001C4005F021BF0000D436030024360300EA
:10ABD000437573746F6D20696E697469616C697A0D
:10ABE0006174696F6E2E000000170300B1F9020056
:10ABF000F8B50F46017814460546012901D1687859
:10AC000030B12088821C9A4232D8012902D006E055
:10AC10000720F8BD69780144891C994228D8181A80
:10AC2000801E86B2ADF800602188B81C08446946D1
:10AC30007DDF0028EDD12978022904D06878BDF89D
:10AC40000020904205D3BDF80000B04201D8092091
:10AC50000AE00820012905D16978B14202D8ADF88F
:10AC6000001001E0ADF80060BDF80010FE2901D928
:10AC70000C20F8BD2288491CB9542188491C89B28E
:10AC8000218078542088401C2080BDF800100844A2
:10AC900020800020F8BD0000034A00219268C0E92E
:10ACA00000218160704700003834002070B54FF6F5
:10ACB000FF750E46A84201D1002000E0401C84B27E
:10ACC00008E02146304600F090F808B1204670BDFB
:10ACD000641CA4B2FF2CF4D9284670BD10B5FBF754
:10ACE000E4FA08B1002010BD112010BD10B531B13B
:10ACF000B2FBF3F403FB14241CB1092010BD0E2099
:10AD000010BD01600021416081608281C3810846DD
:10AD100010BD70B50C460546FBF77CFA002802D042
:10AD200021882868084470BD10B50A8849888A427D
:10AD300003D1FBF7B1FA012010BD002010BD70B5A2
:10AD40000C460546FBF78BFA002802D0618828687C
:10AD5000084470BD10B50A8849888A4203D1FBF7C0
:10AD600075FA012010BD002010BD01F01F03012263
:10AD70009A40D243490900EB8100114600F059B8CE
:10AD80000A4601F01F030121994010B552090C46F3
:10AD900000EB820000F05DF8204000D0012010BDE3
:10ADA0002DE9F04180460D460024481E012101EBAB
:10ADB000501716E058F82400C04390FAA0F0B0FAFB
:10ADC00080F020280CD200EB4416AE4208D2314667
:10ADD0004046FFF7D5FF0028ECD13046BDE8F081B2
:10ADE000641CA742E6D82846F8E74A0950F8220032
:10ADF00001F01F0201219140084000D0012070475E
:10AE000001F01F0301229A40490900EB810011461D
:10AE100000F029B8002100F017B8012100F023B894
:10AE2000012100F016B808B56A46FBF78AFA0098C7
:10AE300008BD08B56A46FBF76AFA009808BD08B570
:10AE40006A46FBF77EFA08BD08B56A46FBF75FFA6B
:10AE500008BD08B56A46FBF74DFA08BD08B56A4655
:10AE6000FBF73CFA08BD08B56A46FBF743FA0098C1
:10AE700008BD08B56A46FBF771FA009808BD38B5F9
:10AE8000044600258DF800506846FCF78DF82168CF
:10AE90006268086890420ED9401E08600178238AD3
:10AEA000E26801FB0325227A2168101AC0B20A79F0
:10AEB000824200D208719DF80000FCF799F82846FC
:10AEC00038BD38B5054600208DF800000C466846B0
:10AED000FCF76AF8E868298A201AB0FBF1F12A68C1
:10AEE0001068431C136001709DF80000FCF780F8A7
:10AEF00038BD10B530B1017A42680368891AC9B209
:10AF00001A6006E00E2010BD03681A68541C1C600D
:10AF10001170491EC9B2F7D20068002101710846BC
:10AF200010BDC20800F007030120895C984008406A
:10AF3000704710B5C20800F00703885C01249C40EC
:10AF40002043885410BD70B5040010D01720216232
:10AF5000208060801B202071002504EBC500801D2F
:10AF6000FFF75AF96D1C032DF7D3002070BD0E209A
:10AF700070BD00002DE9F04185888EB00C46032D90
:10AF80007ED20188474E4FF00008242940D006DCCD
:10AF9000102909D011290CD023295FD154E03A2976
:10AFA0000DD055295AD12EE00146204602F0D8FB9B
:10AFB00054E004EBC500801DFFF72EF94EE0294652
:10AFC00004EBC107408937F8062F824200D81046AB
:10AFD0007880172800D217207880206A70B178799D
:10AFE00060B1D6E90002CDE90002ADF80210788820
:10AFF000ADF80400226A20466946904787F805802C
:10B0000087F804802AE00146204602F075FC25E01E
:10B01000011D2C226846FBF7E9F9BDF80000BDF8D8
:10B02000042004EBC0014A73226ABAB1D6E90423B2
:10B03000CDE90B23ADF82E00487B8DF83000226A55
:10B0400020460BA9904709E004EBC503017A187B61
:10B05000884200D201462846FDF702FB04EBC504F6
:10B06000A07A00281AD0E1882846A5DF012590B1F2
:10B07000112813D001F0FCFD02460B480B4900E0FB
:10B080000CE0401AC0080EB005EB0040BDE8F041EE
:10B0900007A101F0D3B984F80A80E5720EB0BDE8CB
:10B0A000F08100003018030044360300243603000A
:10B0B00073645F626C655F67617474635F65786316
:10B0C00068616E67655F6D74755F726571756573D4
:10B0D0007428292072657475726E65642025732E3C
:10B0E0000000000020B10278DE2A03D0082070475B
:10B0F0000E2070474180002070477FB5054600292B
:10B100004DD0002D4BD008780C46DE2847D1A888BA
:10B110006188884202D1204606F008F82888012874
:10B1200025D002283BD011283AD0512837D135F804
:10B13000040F6188884232D1A978A81C02292ED137
:10B14000017A042903D0062901D0052927D100213D
:10B15000009102228DF8002001914FF4C0720291FB
:10B160000391ADF80420007A05280FD010E0297A69
:10B170002046012913D1A988428891420FD101218B
:10B18000017204B0BDE8704005F0D0BFADF8041006
:10B1900028886946B0DF002801D0616888477FBDF4
:10B1A000A88861888842FAD14FF6FF7060807FBD21
:10B1B0002DE9F041044600F13A0700F1300590F81E
:10B1C000386090F82E0086B001F10208002814D0F3
:10B1D0008BDF14216846FBF722F933462A463946AD
:10B1E00040468CDF06218DF800100190002804D025
:10B1F000A16C002901D06846884706B0BDE8F081FF
:10B200004FF4C871C18606210186182141860021AC
:10B210008186704710F83A1FA02242805022828017
:10B2200021F018010022C28041F0040101700121C7
:10B23000417070472DE9F04140B13AB10025042634
:10B2400031B103292ED00720BDE8F0810E20FBE7A5
:10B25000074600F1200490461046FBF7EBF810F08B
:10B26000FF0001D0202801D90C20EDE72078F8B9A3
:10B270005FF0000607EB46104146FBF7E2F8F8B135
:10B28000761C16F0FF06F5D04046FBF7D3F80246D1
:10B290002078414607EB4013401C20701846FBF70E
:10B2A000A5F80DE000F1220410F82A3F022B01D38B
:10B2B0003046C9E71688002134F82170B74201D121
:10B2C0002846C1E7491CC9B20229F5D304EB830122
:10B2D0005B1C037010680860F2E730B12122002186
:10B2E000115480F82B10084670470E20704730B577
:10B2F00015460B46040002D0980702D009E00E2044
:10B3000030BD580705D4D80603D4180701D4072048
:10B3100030BD2046FFF7E1FFD9074FF0010001D013
:10B3200084F82100590701D584F82B0084F82C50AB
:10B33000002030BD70B50D46040012D02E21A2644D
:10B34000FBF76DF8EDB1287984F82E00287B84F89E
:10B350003800296839B10E2204F13A00FBF746F8AB
:10B3600004E00E2070BD2046FFF754FFA86820B10E
:10B3700001682163406860630CE02046FFF740FFEE
:10B3800008E02046FFF746FF2046FFF739FF002080
:10B3900084F82E0004F14C00C4F84C01FF20A4F8FE
:10B3A0005001002070BD2DE9F04F93B00E460446C9
:10B3B0004FF000084546142106A8FBF730F804F1C9
:10B3C0003A000A902046FEF70BFF010004F5A67034
:10B3D000109010D002208DF818000796A16C06A8D6
:10B3E0008847002010998ADF31462046FFF7E0FEAB
:10B3F00013B0BDE8F08F94F82C00049094F821006D
:10B4000094F82BB04FF0000AE0B194F82090B08B84
:10B410004FF0010800270C9012E004EB4712B069CE
:10B420000C99FCF70AF848B19DF820004FF0010A8A
:10B4300040F001008DF820006D1C03E07F1CFFB27E
:10B440004F45EAD3BBF1000F36D004F122000F9034
:10B4500094F82C00119094F82AB04FF00009B08BAA
:10B4600008F101084F460E9012E00F980E9900EB7C
:10B470008702B069FCF72FF830B109F1010000F044
:10B48000FF09119858B101E0119828B97F1CFFB24B
:10B490005F45EAD3119810B1D94503D00CE0B9F15A
:10B4A000000F09D09DF820006D1C40F00400EDB2A3
:10B4B0008DF820004FF0010A0498079608B1454521
:10B4C00003D004993AEA010007D000208DF8180053
:10B4D00031462046FFF76CFE02E003208DF818008D
:10B4E000A16C09B106A88847002010998ADF7FE780
:10B4F00070B50D46014601F108020C1D2846098869
:10B500003A3586B0102935D01B291FD01D2917D0F8
:10B51000202942D1064614216846241DFAF77FFFF0
:10B52000B06C002839D005208DF800000495206803
:10B53000019060680290207A8DF80C00B16C2AE0CE
:10B5400006B01146BDE87040FFF72DBF0646142136
:10B550006846241DFAF763FF207801281DD1B06CDE
:10B5600000281AD004208DF80000049520788DF86A
:10B570000400E3E7064614216846FAF750FF072067
:10B580008DF80000201D01902088ADF8080004957A
:10B59000B16C002901D06846884706B070BD000034
:10B5A00030B585B0040025D014216846FAF737FF7E
:10B5B0008BDF2046FEF714FE012528B1A16C19B1DE
:10B5C0008DF800506846884704F5A67104F13A00EA
:10B5D0008ADF044608280FD074B10848084922467B
:10B5E000401AC00805EB004006A100F027FF2046E6
:10B5F00005B030BD0E20FBE70020F9E74C36030014
:10B600002436030073645F626C655F6761705F730B
:10B6100063616E5F73746172742072657475726EAB
:10B62000656420307825780000F1804000680028AB
:10B6300000D00120704708B500F180400021016072
:10B640000068009008BD000070B5134C207808B168
:10B6500085250FE00020A06060602061E0600F4859
:10B6600001F056FB054601F089FA08B901F026FB06
:10B6700001202070284601F0FBFA034608480949DA
:10B68000094A401AC008032101EB004007A100F05D
:10B69000DCFE284670BD00009C4400204982020068
:10B6A00084360300243603006019030046756E6378
:10B6B00074696F6E3A2025732C206572726F722048
:10B6C000636F64653A2025732E00000038B50025AD
:10B6D0008DF800506846FBF767FC074CE068401E99
:10B6E000E060E06810B901F049FBA5709DF800002A
:10B6F000FBF77EFC38BD00009C440020F0B50546F9
:10B700000478154889B0164640F82420124A086982
:10B71000121DA2F1080742F82400487F3855202264
:10B720006846FAF763FE04942878385C48B10EB195
:10B730000A4A00E000226946281D01F065FD09B0B3
:10B74000F0BD0EB1064A00E00022694605F10C008A
:10B7500001F02EFCF3E7000054340020ED0D03004F
:10B76000390C03000FB408B50399002904D004AACA
:10B7700000926A4600F00FF801B05DF814FB10B5B6
:10B7800082680446002A05D0D4E90403216898475A
:10B790000020A06010BD2DE9FC4791460C008046BA
:10B7A00076D014F8011B39B125290ED04046FCF79C
:10B7B0008BFC20780028F4D198F80C00002867D082
:10B7C0004046BDE8FC47FFF7DABF002001222178A0
:10B7D0002B291BD02D2902D0302908D102E040F0BE
:10B7E000010001E040F00200641C002AEFD10025B6
:10B7F0002A290ED02178A1F130020A2A11D205EBB4
:10B80000850201EB4205641C303DF1E740F0040085
:10B81000EAE7D9F800100B1DC9F800300968641C6C
:10B820000D44217800232E290BD114F8011FA1F11A
:10B8300030020A2A05D203EB830201EB4203303BBC
:10B84000F3E76C290DD068290BD0692921D00BDCD6
:10B85000252918D0582931D063290ED0642915D153
:10B8600017E014F8011FECE7702969D0732932D072
:10B8700075291BD0782909D120E0D9F80000011DD5
:10B88000C9F8001001784046FCF71EFC641C90E7E4
:10B890006CE0D9F800100A1DC9F800200968CDE94C
:10B8A00000500A224046FEF707FBEFE7D9F80010E8
:10B8B0000A1DC9F8002009680A2206E0D9F800101C
:10B8C0000A1DC9F8002009681022CDE90050404641
:10B8D00005F032FBDAE7D9F8001000270A1DC9F895
:10B8E00000200E68C00705D112E04046761C7F1C80
:10B8F000FCF7EAFB31780029F7D104E0202140462B
:10B900006D1EFCF7E1FBBD42C0D9002DF6D1BDE7AD
:10B910004EB13046FAF78EFD074604E0202140463E
:10B920006D1EFCF7D1FBBD4206D9002DF6D103E018
:10B930004046761CFCF7C8FB31780029F8D1A5E712
:10B94000D9F80000011DC9F80010056830214046F3
:10B95000FCF7BAFB78214046FCF7B6FB0820002133
:10B96000CDE90001034610222946B0E7BDE8FC8777
:10B970002DE9F843884605002C482D499946A0EB4F
:10B9800001004FEAD0004FF00101164601EB0044E0
:10B9900024D0286800282CD0002E34D06968404676
:10B9A0004FF010070A68511E11EA080F11D1014625
:10B9B00072432846FBF799F900282ED028684B4699
:10B9C0003246046901B041462846A446BDE8F0432A
:10B9D00060472046174B18A2009722E00E200090E7
:10B9E0002046144B1EA220A100F037FD0E20BDE81A
:10B9F000F8830820009020460E4B26A21AA100F0E2
:10BA00002CFD0820F3E7092000902046094B24A2D2
:10BA100015A100F022FD0920E9E7064B214A204646
:10BA2000009711A100F019FD1020E0E7C4360300D3
:10BA300024360300BB1A0300616464725F69735F9C
:10BA4000706167655F616C69676E656428705F66C9
:10BA5000732C20706167655F616464722900000067
:10BA6000705F667300000000257320636865636B78
:10BA7000206661696C656420696E20257328292021
:10BA8000776974682076616C756520307825782E2A
:10BA900000000000705F66732D3E705F617069008A
:10BAA0006C656E00682E030038B503001148124D16
:10BAB0004FF00E04A0EB05004FEAD0004FF0010557
:10BAC00005EB004009D061B119600C6801B0A446D3
:10BAD000BDE83040114618466047084B08A2009464
