:020000040002F8
:10600000406F0020C1630200C9630200CB6302003D
:10601000CD630200CF630200D163020000000000E4
:10602000000000000000000000000000D363020038
:10603000D563020000000000D7630200D9630200AC
:10604000256B0200DB630200E5720200ED6B0200CB
:10605000FD6B0200DB63020079680200DB63020073
:10606000DB630200DB630200DB630200A96B02005A
:10607000DB630200DB630200DB630200DB63020020
:10608000DB630200B96B0200DB630200DB6302002A
:10609000B96C0200DB630200BD6C0200DB6302002E
:1060A000DB630200DB630200DB630200DB630200F0
:1060B000DB630200DB630200000000000000000060
:1060C000DB630200DB630200DB630200DB630200D0
:1060D000DD6B0200DB630200DB63020000000000F6
:1060E00000000000000000000000000000000000B0
:1060F00000000000000000000000000000000000A0
:10610000000000000000000000000000000000008F
:10611000000000000000000000000000000000007F
:10612000000000000000000000000000000000006F
:10613000000000000000000000000000000000005F
:10614000000000000000000000000000000000004F
:10615000000000000000000000000000000000003F
:10616000000000000000000000000000000000002F
:10617000000000000000000000000000000000001F
:10618000000000000000000000000000000000000F
:1061900000000000000000000000000000000000FF
:1061A00000000000000000000000000000000000EF
:1061B00000000000000000000000000000000000DF
:1061C00000000000000000000000000000000000CF
:1061D00000000000000000000000000000000000BF
:1061E00000000000000000000000000000000000AF
:1061F000000000000000000000000000000000009F
:10620000DFF80CD000F088F900480047ADB9020073
:10621000406F002030B450E8012F93B2C48923446A
:106220008489A34228BF1B1B0489A34202BFBFF37A
:106230002F8F002007E0C3EA020340E80134002C5E
:10624000E9D14FF001000A6030BC704750E8012FDF
:10625000C2EA024240E801210029F7D1704730B478
:1062600050E8022F1FFAA2F3C488A34202BFBFF373
:106270002F8F00200DE0C48923448489A34228BFC6
:106280001B1BC2EA034340E80234002CE8D14FF064
:1062900001000A6030BC704750E8022FC2EA224277
:1062A00040E802210029F7D17047034653E8022F46
:1062B000D988B2EB324F4FF0000017BF92B241EADB
:1062C000014142EA014104E05A68B2EB324F08BF93
:1062D000012043E80212002AE8D1704730B4044696
:1062E00054E8000F0D4644E80053002BF8D1156028
:1062F00030BC704730B4044654E8000F40EA010552
:1063000044E80053002BF7D1156030BC704730B41F
:10631000044654E8000F00EA010544E80053002B4E
:10632000F7D1156030BC704730B4044654E8000F14
:1063300080EA010544E80053002BF7D1156030BC1A
:10634000704730B4044654E8000F00EB010544E800
:106350000053002BF7D1156030BC704730B40446B1
:1063600054E8000FA0EB010544E80053002BF7D1DF
:10637000156030BC704770B404464FF0000054E81C
:10638000006F0D68AE4207BF44E80023012044E8D7
:1063900000630E60002B1CBF0020F0E770BC70474C
:1063A00030B4044654E8000F88422CBF451A054615
:1063B00044E80053002BF5D1156030BC7047000055
:1063C0000648804706480047FEE7FEE7FEE7FEE78F
:1063D000FEE7FEE7FEE7FEE7FEE7FEE7C96F020025
:1063E000016202002DE9F05F0546002092469B46BF
:1063F00088460646814640241BE0284641464746DB
:10640000224600F079F853465A46C01A914110D3FB
:1064100011461846224600F016F82D1A67EB0108BF
:106420004F4622460120002100F00DF817EB00092D
:106430004E41201EA4F10104DFDC484631462A46C5
:106440004346BDE8F09F202A04DB203A00FA02F11F
:10645000002070479140C2F1200320FA03F3194352
:1064600090407047004870472845030040EA010308
:106470009B0703D009E008C9121F08C0042AFAD2FA
:1064800003E011F8013B00F8013B521EF9D27047BE
:10649000D2B201E000F8012B491EFBD27047002266
:1064A000F6E710B513460A4604461946FFF7F0FF13
:1064B000204610BD421C10F8011B0029FBD1801A98
:1064C000704710B5002200E0521C835C8C5CA34234
:1064D00001D1002BF8D1D8B2E1B2401A10BD30B5CD
:1064E00004460020034600E05B1C934203D2E05CBC
:1064F000CD5C401BF8D030BD202A04DB203A21FAC5
:1065000002F00021704721FA02F3D040C2F12002CC
:106510009140084319467047064C074D06E0E06875
:1065200040F0010394E8070098471034AC42F6D3DA
:10653000FFF76AFE605D0300805D030070B58C1894
:1065400010F8015B15F0070301D110F8013B2A1187
:1065500006D110F8012B03E010F8016B01F8016B74
:106560005B1EF9D12B0705D40023521E0DD401F870
:10657000013BFAE710F8013BCB1A921C03E013F839
:10658000015B01F8015B521EF9D5A142D8D300206E
:1065900070BD3EB5002504460A2932D00D292FD002
:1065A000607A0290E089ADF80400207C8DF8060046
:1065B000E088ADF80000207A8DF80200A07A0B4642
:1065C0000146E27A204600F021F8607AA17A00EBD9
:1065D000400201EB4201227BB1FBF2F302FB1311FB
:1065E000C9B2A172637C002B0AD0A0EB800302EB3E
:1065F00043028A4204DAE17A01EBC000E072A5723C
:106600003EBDE07A617A00EBC100F7E72DE9FF4F6C
:106610008FB089460F981E9D9046017B494567D9EA
:106620000F98417B414563D905EB450109EB4100DA
:1066300001285DD408EBC500012859D49DF87500E8
:1066400007909DF8760005909DF871B09DF872A0B6
:106650009DF8740003909DF8700002902D4903EBA3
:10666000830008440024099002E0052C0DD009980D
:10667000075D0026F80714D0012D08D0BDF8700082
:10668000ADF804008DF806A01EE00027F1E708EB46
:106690000600C2B2CDE900BA09EB0400C1B2029B08
:1066A00033E0DDE90201814219D107998B4516D10A
:1066B0000598504513D1012D1DD0BDF87400ADF8DB
:1066C000040005988DF8060006FB058002B204FB65
:1066D000059001B200952B460F9800F0AFF8761C9C
:1066E0007F0876B2082EC5DB641C64B2062CBCDBC6
:1066F00013B0BDE8F08F0799CDE9001008EB060054
:10670000C2B209EB0400039BC1B20F9800F036FA45
:10671000E5E70000843F03001CB51344BDF81040BA
:106720005B1EADF804401BB29DF8124000938DF83B
:1067300006400B4600F002F81CBD00002DE9FF4F9B
:1067400085B01D46DDE9120314460E46021BA5EB7B
:10675000060100D55242002900DA49428A4208DD8A
:10676000314626460C46294605464FF001080846A4
:1067700001E04FF00008AE4205DD31462E460D46E1
:10678000214604460846A91B0FFA81F9011B00D5D2
:10679000494209B2049109EBD9714F10C3F3074183
:1067A0000391D9B2C3F3072B0291844201DA01208D
:1067B00001E04FF0FF3082461CE000BF0398B8F1C3
:1067C000000F02D0F2B2E1B201E0E2B2F1B2CDE9E3
:1067D00000B0029B059800F0D1F90498381A07B26E
:1067E000002F05DA04EB0A0004B207EB090007B238
:1067F000761C36B2AE42E1DD09B0BDE8F08F2DE97E
:10680000F0471746884600221E468146114600F092
:106810005AFA00244FF480453146484600F032FAD7
:106820003946484600F02EFA4146484600F02AFA1A
:10683000641CAC42F0DBBDE8F08700002DE9F84FA6
:10684000914682460C46BDF82C609DF82E50CF181C
:10685000DDF828800CE000BFADF800608DF8025034
:1068600043464A4621465046FFF756FF641C24B271
:10687000A742F1DCBDE8F88F2DE9F04700268AB089
:10688000DFF85091B0464FF48075012437460696E4
:10689000284606F0FDFD38B1D9F80403204203D0A4
:1068A000284606F0EBFD26432D1D64007F1CADB28B
:1068B000082FEDD34FF4BE74204606F0E9FD48B131
:1068C000204606F0DBFD46F0004606AA0121002026
:1068D00006F0C0FD404D16F0FF0F15D00127002433
:1068E00037420DD009EB8401D1F81005D1F810150D
:1068F000C0F3042055F82420C1F3014102B19047B0
:106900007F00641C082CEBD3002E5FDA4FF0FF30C1
:10691000CDF8108054E0281910F8507F90F900004D
:1069200027F0C008401C3BD007A9404605F021FCD9
:1069300010B34FEA9719404602F0BEFB55F820709D
:106940001FB1B9F1030F03D006E0B9F1030F27D14E
:1069500004A9404605F015FC4FF0A04101EB88006A
:10696000D0F8000706A9C0F3014A404605F001FC33
:1069700018B1BAF1020F03D012E0BAF1030F0FD130
:10698000B9F1030F08D1BAF1020F1DD00221404620
:1069900006F028FD761CF6B217B149464046B847C6
:1069A000641C042CB7D3002E10D06A4601210020AD
:1069B00006F050FD06990098884207D0069004988A
:1069C000002634460790A6E70321E0E70AB0BDE8B9
:1069D000F087000000600040684500207FB5044655
:1069E000407806F0F7FC607906F0F4FC607806F079
:1069F00011FD607906F00EFD207806F019FD194BA7
:106A00000FCB8DE80F0020788DF80300A0788DF86B
:106A1000010020798DF80000124800231A466946CB
:106A2000103806F041F806460F4810493246401A21
:106A3000C108032000EB014005460DA106F080FFD0
:106A4000300001D000F01CFF28460DA106F074FFB5
:106A5000204600F06BF928460DA106F06DFF04B04A
:106A6000012070BD90440300485E0300905D030068
:106A7000535049203A203078253034580000000027
:106A800053504920737461727465642E00000000D5
:106A9000446973706C617920696E697469616C69AD
:106AA0007A6174696F6E20636F6D706C6574652EAA
:106AB0000000000000F01F02012191404009800009
:106AC00000F1E020C0F88012704700F01F020121A1
:106AD00091404009800000F1E020C0F800117047AB
:106AE00000F01F02012191404009800000F1E020E8
:106AF000C0F8001270474907090E002806DA00F0B6
:106B00000F0000F1E02080F8141D704700F1E02034
:106B100080F800147047282100F09AB8292100F06D
:106B200097B8000070B54FF48076304605F0A4FEAB
:106B3000114CB50560B1304605F0A5FE0120C5F841
:106B40000803607920B9012060712168002088471E
:106B50004FF48276304605F08FFE00280AD030468A
:106B600005F091FE0220C5F808032168BDE87040D9
:106B70000120084770BD0000803400202DE9F0415D
:106B80001F46DDE90645064600F09DF829463046D9
:106B900000F078F82146304600F074F83946304667
:106BA000BDE8F04100F06EB803220021014804F076
:106BB0002BBB000000B0004007480021C0F8401186
:106BC000C0F84411C0F84811C0F84C11C0F80011C9
:106BD000C0F804110BF062BE001001400422012134
:106BE000014804F011BB0000004002400149024886
:106BF0000BF08EBE1446002000300040F8B54FF078
:106C000040200446114E4FF48C7107F092FA002890
:106C10001AD00025C4F81851D4F818010090F07F5C
:106C20003446FF2806D0A17F11B106F0ECFB01E04D
:106C300006F0F7FB65772572D4E9002101B004F175
:106C40000800BDE8F0401047F8BD0000684600208D
:106C50007CB504460D46407906F0DCFB207806F052
:106C6000D9FB0020034600908DF80450012201A9B1
:106C7000034805F051FF207806F0DAFB7CBD0000E8
:106C8000804403007CB504460D46407906F0D0FBF5
:106C9000207806F0BFFB0020034600908DF80450DA
:106CA000012201A9034805F037FF207806F0C0FB58
:106CB0007CBD0000804403000BF03EBD07F0CEB960
:106CC0008172C272704770B50D46144606462A217D
:106CD000FFF7BEFF00213046FFF7D4FFAD1CE9B23D
:106CE0003046FFF7CFFF00213046FFF7CBFF812171
:106CF0003046FFF7C7FF2B213046FFF7A9FF0021E1
:106D00003046FFF7BFFF641CE1B23046FFF7BAFF21
:106D100000213046FFF7B6FF80213046FFF7B2FF73
:106D20003046BDE870402C21FFF792BF10B50446F5
:106D3000407806F06FFB012007F07AFD607806F0DE
:106D400077FB962007F074FD11212046FFF780FFA6
:106D5000782007F06DFDB1212046FFF779FF022171
:106D60002046FFF78FFF35212046FFF78BFF3621A6
:106D70002046FFF787FFB2212046FFF769FF022177
:106D80002046FFF77FFF35212046FFF77BFF3621A6
:106D90002046FFF777FFB3212046FFF759FF022176
:106DA0002046FFF76FFF35212046FFF76BFF3621A6
:106DB0002046FFF767FF02212046FFF763FF3521DA
:106DC0002046FFF75FFF36212046FFF75BFFB42127
:106DD0002046FFF73DFF07212046FFF753FFC02164
:106DE0002046FFF735FF02212046FFF74BFF022127
:106DF0002046FFF747FFC1212046FFF729FFC521A5
:106E00002046FFF73FFFC2212046FFF721FF0D215B
:106E10002046FFF737FF00212046FFF733FFC3214D
:106E20002046FFF715FF8D212046FFF72BFF1A2183
:106E30002046FFF727FFC4212046FFF709FF8D21D9
:106E40002046FFF71FFFEE212046FFF71BFFC5215D
:106E50002046FFF7FDFE51212046FFF713FF4D218D
:106E60002046FFF70FFFE0212046FFF7F1FE0A2141
:106E70002046FFF707FF1C212046FFF703FF0C21E8
:106E80002046FFF7FFFE14212046FFF7FBFE3321CB
:106E90002046FFF7F7FE2B212046FFF7F3FE2421C3
:106EA0002046FFF7EFFE28212046FFF7EBFE2721C3
:106EB0002046FFF7E7FE25212046FFF7E3FE2C21C1
:106EC0002046FFF7DFFE39212046FFF7DBFE0021D9
:106ED0002046FFF7D7FE05212046FFF7D3FE03210A
:106EE0002046FFF7CFFE0D212046FFF7CBFEE12124
:106EF0002046FFF7ADFE0A212046FFF7C3FE1C2106
:106F00002046FFF7BFFE0C212046FFF7BBFE1421F1
:106F10002046FFF7B7FE33212046FFF7B3FE2B21B3
:106F20002046FFF7AFFE24212046FFF7ABFE2821C5
:106F30002046FFF7A7FE27212046FFF7A3FE2521C5
:106F40002046FFF79FFE2D212046FFF79BFE3A21AA
:106F50002046FFF797FE00212046FFF793FE05210C
:106F60002046FFF78FFE03212046FFF78BFE0D2101
:106F70002046FFF787FE3A212046FFF769FE0621EB
:106F80002046FFF77FFE29212046FFF761FE012002
:106F900007F04EFC36212046FFF75AFEC02120465E
:106FA000FFF770FE0A2007F043FC00231A4619463B
:106FB0002046FFF724FC642007F03AFC2046BDE899
:106FC0001040FFF7A8BD0000F0B5B5480023021D32
:106FD0000178101D01254FF0805406290BD1167839
:106FE000360708D10678C6F30316032E06D0042E02
:106FF00004D0052E02D0062907D00EE0B4F8246391
:10700000A84FC6F304263E6002E01678360704D186
:107010000678C6F30316032E02D0062904D00FE02B
:10702000A24FA14E7E670EE01678360708D106788B
:10703000C6F30316032E06D0042E04D0052E02D06C
:10704000062907D00EE0D4F84462994FC6F34236C1
:107050003E6002E01678360704D10678C6F30316C0
:10706000032E02D0062906D011E0924E376827F091
:10707000807737600EE01678360708D10678C6F3B9
:107080000316032E06D0042E04D0052E02D00629A6
:107090000AD011E04FF08046C6F80C31C6F8103126
:1070A000834E361F336002E01678360704D1067827
:1070B000C6F30316032E02D0062905D00CE07C4F40
:1070C000032664373E600AE01678360704D1067856
:1070D000C6F30316032E02D006290DD014E0764F16
:1070E00005263E60744E78363560734E0836336040
:1070F0003F263F1D3E6002E01678360704D1067831
:10710000C6F30316052E02D0062957D062E06B4E57
:1071100036686B4F3E60694E361D36683F1D3E60D7
:10712000664E083636683F1D3E60644E0C36366843
:107130003F1D3E60614E103636683F1D3E605F4E1B
:10714000143636683F1D3E605C4E183636685C4F1C
:1071500020373E60594E1C3636683F1D3E60574E04
:10716000203636683F1D3E60544E243636683F1D3B
:107170003E60524E283636683F1D3E604F4E2C36DC
:1071800036683F1D3E604D4E303636684C4F4037B6
:107190003E604A4E343636683F1D3E60474E3836B4
:1071A00036683F1D3E60454E3C3636683F1D3E60AA
:1071B000424E403636683F1D3E6002E01678360784
:1071C00008D10678C6F30316032E06D0042E04D089
:1071D000052E02D0062907D019E0D4F85812394AF2
:1071E00001F04F01116002E0117809070FD100781A
:1071F000C0F30310032803D0042801D0052806D1CA
:1072000031480168C90702D06FF001010160D4F86C
:107210003001062808D1D4F83401062804D12B48BF
:10722000016841F48061016022487438016841F4CA
:1072300070010160BFF34F8FBFF36F8F4FF01021CC
:10724000D1F80002002803DBD1F80402002822DA7A
:107250001F4A15601F480468002CFCD01524C1F893
:1072600000420568002DFCD0C1F8044201680029E5
:10727000FCD0136001680029FCD0BFF34F8F0D488C
:10728000F0380168144A01F4E06111430160BFF372
:107290004F8F00BFFDE7124910480860F0BD0000A5
:1072A000E00F00F0403501400DF0ADBA00C00740DE
:1072B0003C050040FCED00E01056004004040010C6
:1072C00020C50040E40E0040000400403C17004090
:1072D00004E5014000E401400400FA050090D003F9
:1072E0009C350020014800680047000088340020D9
:1072F0002DE9F04115460E460746002405E0315DB4
:107300003846FFF746F9641CE4B2AC42F7D3BDE857
:10731000F08102E008C8121F08C1002AFAD17047A4
:107320007047002001E001C1121F002AFBD1704705
:107330000121202803DA81400548014003E040286C
:1073400002DA2038814009B10120704700207047DF
:10735000FC06FFBD2DE9F843804643F2020659B909
:10736000694608F013FFB04202D008B100F088FA75
:107370009DF80000800744D40021404608F042FFF9
:1073800005003ED0112D3CD01F482049401AC708A7
:10739000022000EB07440D2D0AD00B2D1DD0B54265
:1073A0001FD11B4920464246BDE8F84306F0C8BA43
:1073B00020464246174906F0C3FA1321404676DFBD
:1073C00000281ED006F0D6FE024601B020464346F5
:1073D000BDE8F04310A106F0BABA204642461C4967
:1073E000E2E7284606F0C6FE0246012000EB074011
:1073F000434618A106F0ABFA2846BDE8F84300F072
:107400003FBABDE8F8830000D85D0300905D03003B
:10741000244F0300B04E030073645F626C655F67C6
:1074200061705F646973636F6E6E65637428292091
:1074300072657475726E6564202573206F6E2063AB
:107440006F6E6E5F68616E646C652025642E00004F
:10745000704F0300417373657274696E672E2070FC
:107460006D5F636F6E6E5F7365637572652829204B
:1074700072657475726E6564202573206F6E20636B
:107480006F6E6E5F68616E646C652025642E00000F
:107490000A480B4910B5401AC008032101EB00400F
:1074A00008A106F049FA0D480178002905D101210B
:1074B0000170BDE8104009F0BDBF10BD485E03007B
:1074C000905D0300616363656C65726F6D6572202A
:1074D000747269676765726564200A00163300205C
:1074E00008B506F0B3FF1D481D4A694600680090C4
:1074F000132006F039FF08B100F0C2F90121132072
:1075000006F0E0FE00F0CCF908B100F0B9F915483A
:1075100000F0C1F908B100F0B3F91248801E00F084
:10752000D6F908B100F0ACF9022000F0D8F90D4806
:10753000401E017841F04001017000F0CCF908B123
:1075400000F09EF908480949401AC008032101EBE0
:10755000004007A106F0F0F908BD0000D83803008C
:10756000917402007A330020485E0300905D0300AE
:10757000416363656C65726F6D6574657220696ED9
:10758000697469616C697A6174696F6E20636F6D8B
:10759000706C6574652E000031B500252C462146BF
:1075A000684604F04AFD00B16D1C641C142CF6D32F
:1075B000284638BD7FB5144814491D46401AC108F5
:1075C000032000EB0140044611A106F0B5F9204666
:1075D000062201A906F05CF9142004F00FFB024614
:1075E00001981060BDF8080090809571002010612E
:1075F00003F0DEFE0146D0600A480068D0F80405BA
:1076000090600A617FBD0000485E0300905D03004A
:10761000416464696E67206E6577207461673A2003
:1076200000000000D038030010B560B159B10278F5
:107630000B785208B2EB530F05D10622401C491CAF
:10764000FEF74DFF08B1002010BD012010BD8007DE
:1076500001D00020704701207047C3688B4206D8D4
:1076600011440069491E814201D801207047002061
:1076700070471FB500206A4602A9135C0C5CA34248
:1076800002D0002004B010BD401CC0B20628F4D3C4
:107690000120F7E710B5002005F06AFC00280ED1A4
:1076A0000AF00AF8002001F023FA0321044800F050
:1076B00068FD002803D0BDE8104000F0E1B810BD1F
:1076C0001436002010B501220221002001F0B6FA84
:1076D00008B1072810D107220221012001F0AEFADB
:1076E00008B1072808D100210A22084601F0A6FAAD
:1076F00008B1072800D1002010BD70B58CB0154628
:107700000E4600236C46C3F10F01415CE1545B1C43
:10771000102BF8D30D2104F11000FEF7C0FE00205D
:10772000C0F10F02315C2244401C11740328F7D3CE
:10773000684646DF0020C0F10F01214491F8201077
:107740002954401C0328F6D30CB070BD022001F070
:10775000B5B900000149C97800F0D2BE5434002008
:1077600070B50024064D06E06868012110F8340069
:1077700006F0A8FD641C28788442F5D3002070BD73
:10778000A0340020F8B515460C460646052A01D25D
:107790000720F8BD06F090FE18B906F057FE002845
:1077A000F7D1124900224E600C708D60C1E90422AD
:1077B000C1E906220E4D0DE006EBC40029680091D8
:1077C00081788DF8011000780A4A694606F0CCFDF0
:1077D0000028DED1641EE4B2EED2BDE8F8400448D1
:1077E0000021054A001D00F087B80000A0340020E9
:1077F000683C0300A9A902001998020072B606F0BD
:107800004FF900BF05F02AFF0028FBD111481249AB
:10781000401AC408012000EB044010A106F08CF8C7
:1078200011480068C00700D000BE022000EB0440F1
:107830000EA106F081F8BFF34F8F0B48E4380168C2
:107840000E4A01F4E06111430160BFF34F8F00BFA6
:10785000FDE70000485E0300905D0300466174612F
:107860006C206572726F7200F0ED00E053797374F2
:10787000656D207265736574000000000400FA05F0
:107880000EB500210091CDE901106A4644F20100D5
:10789000FFF7B4FF0EBD01460422192005F0BAB867
:1078A00008B505F053F8002810D10721682005F02D
:1078B000DBF800280AD101216B2005F0D5F800285B
:1078C00004D101226946752005F05AF808BD0178F7
:1078D000372005F0C9B80178382005F0C5B810B5D3
:1078E00004460A21202005F0BFF82146BDE81040DB
:1078F0001F2005F0B9B80000084B9B7823B12AB1CE
:1079000020B10068037C1BB1082070470720704736
:10791000002303744174426118467047AC4600204E
:1079200070B509F023FE104800240B210470447048
:107930000E4D817014206C602C706C70FFF7BAF8DB
:1079400006211420FFF7D7F81420FFF7BEF80848E7
:10795000046006211120FFF7CEF80548001F0068DB
:10796000A860002070BD0000AC460020C03400209C
:10797000081501402DE9FC47DFF8789099F80230AE
:1079800073B368B3052902D20720BDE8FC874369B9
:1079900033B3437C012B25D00027044600258846BD
:1079A00016468DF80050684600F038F801A80BF034
:1079B00071FCC8B1012101700F4944600968C0E938
:1079C0000218C0E904769DF8040089F801009DF8CA
:1079D000000000F047F81420FFF782F82846D4E7AB
:1079E0000820D2E70F46D8E704259DF8000000F0F4
:1079F00039F8F3E7AC4600200415014006498978C0
:107A000039B130B1416921B10021017402210AF07C
:107A100021BF082070470000AC46002030B5EFF3CE
:107A2000108172B60D4A9468012324B103700029B5
:107A300000D162B630BD93604FF0E023D3F880519F
:107A4000074C25401560C3F88041D3F88441546049
:107A50005A17C3F8842100220270E8E7B8470020D3
:107A6000FC06FFBD0B498A68002A11D000280FD1FF
:107A7000EFF3108072B60B684FF0E022C2F80031CD
:107A80004B68C2F8043100228A60002800D162B637
:107A900070470000B84700202DE9F041064608680D
:107AA0000C46411C4FF0A0474FF0010506D005FAE7
:107AB00000F1C7F80815206805F06EFC6068411CED
:107AC00002D0002105F056FC3168A069C1F82405F8
:107AD000607D227D31681043C1F86C05D4E9001245
:107AE0003068C0F81425C0F80C15207D012815D188
:107AF000A068411C02D0002105F03CFCE068411C5C
:107B000005D08540C7F80855E06805F045FCD4E984
:107B100002123068C0F80825C0F81015BDE8F081E1
:107B20002DE9F041064608680C46411C4FF0A0477D
:107B30004FF0010506D005FA00F1C7F808152068D6
:107B400005F034FC6068411C02D0002105F01BFCEC
:107B50003168A069C1F82405607D217D3268084341
:107B6000C2F86C05D4E900123068C0F80C15C0F8F2
:107B70001425207D012815D1A068411C02D00021C8
:107B800005F001FCE068411C05D08540C7F80855A8
:107B9000E06805F00BFCD4E902123068C0F8082553
:107BA000C0F81015BDE8F08103F0D0BD2DE9F04715
:107BB000814605884A484FF000088AB0017842465D
:107BC000284600F0B5FC99F80500400701D40021D3
:107BD00076E005F58077B8B201AB0122072107F006
:107BE00049FF04003F48404A4FF00101A0EB02006A
:107BF0004FEAD00001EB00460AD0204606F0BAFA60
:107C0000024630462B46394905F0A1FE214629E0BF
:107C1000284603F095F94FF6FF71044688422BD1B0
:107C20008A46029803F0F6F80446504510D0014603
:107C3000284603F065F92846FFF78CFDE0B9284691
:107C400009F0F6FE2846FFF785FD0028BFD013E0B7
:107C500008F0DCF80446504508D1304624A105F070
:107C60006BFE0421284609F011FFB0E701462846C3
:107C700003F046F94FF00108B8B22246072107F099
:107C800071FF07001BD0862F1ED006F073FA024644
:107C900030462B462349009405F061FE39462846BC
:107CA00009F0F4FE0021484607F0D8FDB8F1000FB6
:107CB00002D0204603F02EF90AB0BDE8F08701217A
:107CC000484607F0CBFDF7E71822174903A8FEF74F
:107CD000CDFBADF80E5003A801F0D8FFEFE7000090
:107CE00054340020E05D0300905D0300285203003F
:107CF000436F756C64206E6F7420616C6C6F636190
:107D00007465206E657720706565725F69642066B2
:107D10006F7220696E636F6D696E6720626F6E644B
:107D20002E00000044530300E83A03002DE9FC470D
:107D3000002517880646158090F82D0014468946C0
:107D400030B13A462146484600F0E4FC051E09D110
:107D5000B0784FF00C0A18B32088C846001DB8420E
:107D600002D95046BDE8FC87684679DF0028F9D182
:107D70002088032108F8001020881921401C80B2B7
:107D8000208008F800102088401C80B2208000EB82
:107D90000801BDF800000BF05CF921880844208040
:107DA000F0780222C8B1218896F9033001F1030C62
:107DB0004846BC45D5D8425421884FF0010C491C97
:107DC00089B2218000F801C02188491C89B2218034
:107DD00009F801302088401C20807068B8B12188E3
:107DE00090F9003001F1030C4846BC45B9D8425423
:107DF00021880A22491C89B2218042542188491CC9
:107E000089B2218009F801302088401C2080308907
:107E100050B1CDE900474B460622022106F1080089
:107E20000BF050FA051E9DD1308A50B1CDE90047C4
:107E30004B460722032106F110000BF043FA051E02
:107E400090D1308B50B1CDE900474B46152214211B
:107E500006F118000BF036FA051E83D1306A30B1F6
:107E60003B462246494601F006FA051EDBD1706A00
:107E700030B13B462246494603F0F6FE051ED2D1FC
:107E800096F82C0038B13B4622464946304609F068
:107E90003FFF051EC7D1307838B13B4622464946E0
:107EA000304603F0CDFF051EBDD128465AE7F8B590
:107EB00006464FF000001500ADF8000015D009236C
:107EC0006A46304600F025F80446BDF80000064436
:107ED00058B154B12846FEF7EDFAA04205D122462A
:107EE00031462846FEF7FBFA08B10020F8BD012014
:107EF000F8BD18B504460020ADF8000013466A46E8
:107F0000204600F006F8002802D0BDF8000020440A
:107F100018BD70B588B182B10024158803E0065DF4
:107F2000641C3444A4B2A54203D8061976789E4254
:107F300001D08C42F3D38C4201D3002070BDA11C30
:107F40001180005D401E80B270BD2DE9F0418AB005
:107F500006460020ADF814001346102088468DF820
:107F600004000D4606AA01A9184664DFA6B398BB13
:107F70009DF80400022804D0042807D0102839D125
:107F80000DE003208DF81000022003E005208DF89D
:107F9000100004208DF81100002404AF0FE007202A
:107FA0008DF810000620F5E73B5D05AA41463046F6
:107FB000FFF7AFFF641CE4B20546022C04D2BDF803
:107FC00014000028F0D003E0BDF81400002812D0FF
:107FD00080B2064400240BE00CE030199DF8042028
:107FE00006A9FEF77CFA48B19DF80400204484B24B
:107FF000AC42F2D300200AB0BDE8F0810120FAE7DC
:1080000080F83010704700002DE9F0470D0004465D
:1080100006D02CB195F87A000026012803D006E09E
:108020000E20BDE8F08795F89800012829D0D5F8F2
:10803000A000042825D0D5F89C00042821D04FF0BA
:108040000109A6702C2205F17801201DFEF70EFA19
:1080500084F83060D5F8A4006063D5F8A800A06368
:108060004FF6FF70A4F8480204F50D70C4F84402FE
:10807000C4F84A62A4F84E6284F85062207810B1C5
:1080800004E00720CDE7FF2084F8540004F15501F7
:10809000C4F8341294F82400EE274FF01F0801288A
:1080A00033D0A4F8388200BF04F50E722846FFF7DB
:1080B0003DFE0028B5D104F24311C4F83C1294F8F7
:1080C0002400012824D0A4F8408200BF04F51072D7
:1080D00005F13C00FFF72AFE0028A2D184F8519058
:1080E000208BA4F8480084F83C90266484F8506003
:1080F000606960644D4604F13C02002104F15400C3
:1081000072DF00288DD125708BE7A4F83872CBE799
:10811000A4F84072DAE710B50288102A1BD0112AA1
:1081200020D0262A1DD1007A0C46012801D0022831
:1081300017D1A0780521401CB0FBF1F201FB120120
:10814000204600F01EF800280BD0A16B002908D0B3
:10815000BDE810400847C27B012A02D18088A1F8FF
:10816000480210BD0C46002184F852128088B4F8F1
:1081700048128842F5D120790028F2D10121DFE7A9
:1081800070472DE9F05F044600780F4698B1A7705C
:108190000025C4F84A52A4F84E5284F85052A079EF
:1081A000012608B1012F09D0E07980B1012F05D057
:1081B000022F03D00BE00820BDE8F09F616B21B1D6
:1081C00084F851620820884701E084F8515204F293
:1081D0004B2100200A5C0AB1304603E0401C06280F
:1081E000F8D300204FF002084FF0030B012F06D008
:1081F000022F0CD0032F0FD0042F15D110E0A1793E
:1082000029B194F8241011B908B130460DE0E17994
:1082100011B108B1404608E0207A08B1584604E0A0
:10822000607A08B1042000E02846A070616B41B17B
:10823000032801D0042804D1607910B194F85202C7
:10824000A0B184F8535204F13C0018210746FEF710
:1082500026F904F12C0084F83C60814607F002FF07
:1082600058B194F82C0084F8510008E084F8545276
:1082700084F8536207208847E5E784F8516094F852
:10828000240050B1484607F0EDFE20B194F82800D4
:1082900084F8520001E084F8526084F85050A278CB
:1082A00004F24A2104F50D794FF0060A052A62D23C
:1082B000DFE802F07A030F22410084F83160C4F84D
:1082C0004452C4E9101584F83C808020A4F848008A
:1082D00053E084F8318094F82420384612B1072204
:1082E000027001E080F800B0228A8281C4F8445212
:1082F0004160E168B96040E06069B860208BB88196
:1083000094F824003D4610B184F83CA001E084F8C4
:108310003C6020460AF09AFF50B185F81480042191
:10832000204601F043FF30BB052184F8311020E0E6
:1083300084F831B01DE0E069B860208CB88194F811
:1083400024003D4610B184F83CA001E084F83C6074
:1083500020460AF07BFF48B185F8148004212046AE
:1083600001F024FF38B984F831A002E0042084F839
:108370003100C4F84492A07878B13A4604F1540030
:10838000D4F8441272DF00287FF416AF94F830104E
:1083900094F8540073DF0028F6D1616B11B194F8A2
:1083A00031008847002007E784F83150F5E70000E6
:1083B00070B5040012D001461C221448FEF756F88E
:1083C0001248134D0560206850B17ADF002806D1AD
:1083D0002068016829604068686005E00E2070BD73
:1083E0000B487BDF0028FAD108484FF6FF7114389C
:1083F000084A20F8041B0549343901600021FFF7C1
:108400007BFA0028EBD0032070BD0000C43E0020A2
:108410009C330020E5310300054808B5C168009190
:108420008168684603F02DFE0098FFF7B5F808BD97
:10843000E03E002010B5044600F09AF8002805D070
:108440002146BDE81040024803F0F7BD10BD000012
:10845000F03E002070B515460E4604460AF002FFB5
:10846000002809D0054800EB840080692A4631467F
:10847000BDE8704001F0C6BE70BD0000E03E0020C7
:1084800010B5044600F074F8002805D02146BDE878
:108490001040024803F0D1BD10BD0000F43E0020A2
:1084A00070B50546002400F063F838B12946044849
:1084B00003F0C3FD08B1022400E00124204670BD92
:1084C000EC3E002070B50546002400F051F838B1AC
:1084D0002946044803F0B1FD08B1022400E001245C
:1084E000204670BDE83E002010B51821034803F077
:1084F0007FFD182800D0C0B210BD0000E03E002073
:1085000070B505460C4608460AF0ACFE60B1284638
:1085100000F02EF840B10548294600EB8400BDE884
:108520007040183003F089BD002070BDE03E00208F
:1085300070B5054614460E4608460AF093FE00281C
:1085400012D0284600F014F800280DD0074829461C
:1085500000EB860018301CB1BDE8704003F078BD18
:10856000BDE8704003F029BD70BD0000E03E002072
:10857000142801D3002070470146014803F05DBD77
:10858000E43E002030B587B0040028D000250095D7
:10859000ADF80020ADF802500191618860896A460B
:1085A000ACDF002819D16089A0F57F41FF3918D0D0
:1085B00002950395049505956088ADF808000120A3
:1085C0008DF80A00BDF80200ADF80C000198CDF856
:1085D00010D00590608902A9AEDF07B030BD0E2033
:1085E000FBE70820F9E7000030B585B00D46040030
:1085F00020D0FDB1104B4FF6FF7060810FCB8DE89E
:108600000F0004F10C01684662DF002810D1207BC6
:108610008DF812004FF4A050ADF81000224604A9C6
:108620000120A8DF002803D12946204600F0B2FF30
:1086300005B030BD0E20FBE7B83803000A460146FE
:1086400010000FD000290DD00A88102A05D0112A59
:1086500005D0502A06D106F05FBF898801E04FF6A9
:10866000FF7141817047000040B10549002201239C
:10867000CA600B70C1E90102104670470E207047B6
:10868000A433002070B504002DD000292BD0204841
:108690000078002827D020880D46112815D03028D2
:1086A00004D0322807D033281ED109E0211D2846E6
:1086B00006F0C0FE18E0211D284606F0F1FC13E08C
:1086C000211D284606F0E8FD0EE0A088B5F8CA1284
:1086D000884209D1002085F8C70285F8C8024FF604
:1086E000FF70A5F8CA0270BD95F8C8020028FAD03C
:1086F00020883028F7D34F28F5D8A088B5F8CA12BB
:108700008842F0D12846BDE8704001F039B9000038
:10871000A43300207CB5054608880C4609309042F9
:1087200001D90C207CBD68466DDF0028FAD1218874
:108730000820685420881B21401C80B220802954C6
:108740002088401C80B220802844DDF801100160A0
:10875000BDF8051081802088801D80B220809DF8A2
:108760000010490800D0012129542088401C208095
:1087700000207CBD10B504468088FFF791FE0128DB
:108780000BD02188262908D0022801D01D2909D123
:108790002046BDE8104006F091BB2046BDE81040E1
:1087A00006F008BC10BD000010B51A4C01886068C6
:1087B00010290ED011292BD1401E606028D1FEF760
:1087C00081FF002824D02168002921D0BDE8104075
:1087D0000847D0B900210122084600F02FFA08B15D
:1087E00007280FD107220221012000F027FA08B143
:1087F000072807D104220221002000F01FFA20B12F
:10880000072802D0216801B188476068401C606079
:1088100010BD0000943300202DE9F04701883B4E45
:1088200040F2F3194FF6FF7510291BD011293ED0E5
:10883000122954D0502946D1C188F289841D914211
:1088400041D1618902293ED18688304602F026FC5A
:10885000050038D004F10C0000F0F2F8A8B3294666
:1088600030464EE0C17B8788044601292BD1A846BB
:10887000284602F013FC050017D02F800020287234
:10888000234843464A460168C5F80A104068C5F8BF
:108890000E0004F1100105F10A0002F00DFD6872EE
:1088A000F08900280FD129462AE0042013E08088AF
:1088B00002F0F4FB040006D06068FFF79FF808B1EF
:1088C00009F0C8F82580BDE8F087FFE76868FFF782
:1088D00095F80028F7D0BDE8F04709F0BBB88788C5
:1088E0000646384602F0DAFB0400ECD02B464A4636
:1088F00006F1080104F10A0002F0DEFC6072214674
:108900003846BDE8F04700F0FDBC0000C43E002042
:108910009C3300202DE9F04F0746858802883D48AA
:10892000012197B08346102A09D0112A49D01A2A6A
:108930006CD1387AB1EB101F45D2012244E0354C9E
:10894000083CA068C0430B9061680BA803F099FB3A
:108950000B990CA800F070FC2C220CA96846FDF7BE
:1089600085FD0026E946A04610E000BF09EB460061
:108970005FF00004B0F804A008EB84005146001D2D
:1089800003F01BFB641C1D2CF6D3761C0098B04230
:10899000ECD8142D05D317B00420BDE8F04FFEF736
:1089A0006FBF2946584603F053FB294608F10400DF
:1089B00003F04EFBF87B012828D016482946001DFD
:1089C00015E029461AE000220221B1EB101F01D266
:1089D000012600E000260F49083901F11000041DAE
:1089E000294682B103F034FB36B12946204617B040
:1089F000BDE8F04F03F02CBB2946204617B0BDE878
:108A0000F04F03F0DABA03F0D8FAF5E717B0BDE893
:108A1000F08F0000E83E002010B5044607480078BB
:108A200000280AD0204602F067F9204609F09AFA99
:108A30002046BDE8104001F027BD10BDE433002002
:108A4000007800F0010070470649095C4FF0A04033
:108A5000D0F81005C84010F0010000D0012080F0CF
:108A600001007047E33803002DE9FC410646C007CA
:108A70004FF000050ED0104F00240122385D009504
:108A800000231146019504F0F7FB641C042CF4D379
:108A900000F046F8B0070DD5074E0024361D002221
:108AA000305D032300951146019504F0E5FB641C3D
:108AB000042CF4D3BDE8FC81DF38030007490B5CCC
:108AC0004FF0A041D1F804250120984020EA02038C
:108AD000C1F808351040C1F80C057047DF380300B5
:108AE0000249085C012104F0AABC0000DF38030041
:108AF0000249085C002104F0A2BC0000DF3803003A
:108B00000649095C4FF0A040D0F80405C84010F0B9
:108B1000010000D0012080F001007047DF38030021
:108B200010B500242046FFF7DBFF641C042CF9D3AA
:108B300010BD10B500242046FFF7DAFF641C042C9A
:108B4000F9D310BD10B50246064B4FF0FF3000219F
:108B50005C5C944201D1084610BD491C0429F7D33E
:108B600010BD0000E338030070B50C4E0C004FF050
:108B7000000530600BD0012000F05AF808B1022047
:108B800004E0002000F054F800B10B202070706861
:108B900010B9FEF797FD0546284670BD94330020B6
:108BA0002DE9F0470D468146FFF7CCFF0446042827
:108BB00036D2DFF874801B481C4EA8F10C0725B391
:108BC000012D0ED0022D2BD104EB4400304445780A
:108BD000002D25D0B968002922D02846BDE8F047ED
:108BE000084704EB4401755C0E44717849B10E4AA4
:108BF0004FF40041093A8068FEF7BCFE08B987F8D7
:108C00000390B17808F80410E2E78068FEF7F6FEFA
:108C100004EB4401314418F804008D78A842D7D001
:108C2000BDE8F087E838030090330020643E002060
:108C3000042801D2FFF708BF0020704770B5002359
:108C4000042810D20D4D00EB4004012A02D1012965
:108C50000CD00022094E00EB4000304461B10129E4
:108C600006D0022906D00723184670BD0E30C2B2C6
:108C70002A55F9E74270F7E78270F5E7643E002075
:108C800070B506461E480024C0E90161B00720D532
:108C90000025012211462846FFF7D0FF6D1C04462F
:108CA000042D02D2002CF4D013E094B940F2666295
:108CB00004211448FEF766FD04000AD1FEF750FDBA
:108CC000040006D10F48104A0021001FFEF714FED1
:108CD0000446F00712D00120FFF7C6FE74B9094818
:108CE0000A4A00210C38FEF707FE040006D10548A9
:108CF000074A01210838FEF7FFFD0446204670BDF3
:108D000084330020F4380300B18F0200F5B3020071
:108D10004D7702002DE9F05F6E4C05460026607825
:108D2000B34618B184F801B002F04CFB6A4F4FF41F
:108D30007A694FF4C87A4FF00108182D69D2DFE83C
:108D400005F00C1313384754696E727B727BC5842F
:108D500084848484B3B6B9BCC5C502F033FB3868DB
:108D6000FEF74CFE06465CE00020FFF7C9FE002837
:108D70004FF0000008D0FFF7B3FE022D02D14FF4F0
:108D8000E16008E0484606E0FFF7B2FE022D01D19F
:108D9000C82000E05046410CC0034FF4FA7280181E
:108DA00041F10001257052000023FDF71BFB014635
:108DB0002AE00020FFF7A4FE00284FF0000004D0B6
:108DC000FFF78EFE4FF44870E5E7FFF791FEDFE70F
:108DD0000020FFF795FE00284FF0000002D0FFF7BB
:108DE0007FFECFE7FFF784FED4E70020FFF788FE81
:108DF00000284FF0000002D0FFF772FE01E0FFF7FD
:108E000077FE257041F69A1100223868FEF7B2FD10
:108E1000064646E00020FFF751FE257008E00020DE
:108E200051E025703DE084F801800120FFF746FE07
:108E3000002240F6CD41E8E784F801800120FFF7E9
:108E40003DFE00224FF48041DFE77868FEF7D6FD53
:108E50000646D5F1110000D02EB10220FFF740FEEA
:108E600084F802B01DE0012816D980B2C821484319
:108E7000C117C90341EA5041C0034FF4FA72801888
:108E800041F1000152000023FDF7ACFA0146002237
:108E90007868FEF76FFD06460220FFF729FE84F88A
:108EA00002803046BDE8F09F02F08CFAB9E702F08C
:108EB00089FAB4E702F086FA04E002F083FA0020AF
:108EC000FFF716FE0120FFF713FEAAE7FFF731FEBA
:108ED000A7E7000084330020E83803002DE9F843B9
:108EE0000546861C00208DF8000090460F464FF086
:108EF00001096846FEF792FD1B4C20683860D4E9F2
:108F00000001401AA16804F21C47081A0EE0012172
:108F1000384603F0B0F802F0FBFC0146384603F097
:108F2000AAF8D4E90001401AA168081A401C864238
:108F3000EDD8B8F1000F03D0052065F3891002E0E9
:108F4000062065F39F50A2682168114004EB81015F
:108F5000C8602068304420609DF80000FEF782FD64
:108F60004846BDE8F8830000084B002070B50D4668
:108F700004460A2902D10D21FFF7F8FFA0682268F4
:108F8000411CA1601554D4E90101814204D320465B
:108F9000BDE8704003F00DBE70BD0000034803C87B
:108FA000814201D10120704700207047084B00200A
:108FB00000780221FFF7F4BD00784FF0A04202EBE9
:108FC00080000321C0F80017704701784FF0A042DD
:108FD00001208840C2F80C05704701784FF0A0428C
:108FE00001208840C2F80805704700001CB50446FF
:108FF00001F0A6FF00236A46092106F07DFE052840
:1090000005D10348012241792046FFF791FA1CBDA2
:10901000B43300201CB504460020009042F6A62080
:10902000ADF8000001208DF80200084801AA694649
:10903000006801902046A0DF002805D104480122E5
:1090400081792046FFF774FA1CBD000090390300B7
:10905000B433002005494FF0FF32082841F82020A2
:1090600002D3084480F8482070470000684500207B
:10907000F0B54FF0FF3512B10023082601E00823B8
:109080000C260C4C05E000BF54F823707F1C04D064
:109090005B1CB342F8D32846F0BD26185DB286F8B3
:1090A000305044F82310002AF5D1E11881F8480027
:1090B000F1E70000684500200249084490F93000BB
:1090C000704700006845002008B5024690F8C602C7
:1090D0000B4600EB8001C1EB801002EB400092F8E0
:1090E000C52242B1521ED2B202EBC20100EB4102D4
:1090F000518A491C00E0C188ADF800100089ADF824
:109100000200694618469DDF08BD70B504464FF65B
:10911000FF750A462846AC4209D14FF480742146B7
:10912000104602F065FF80B2A0420BD070BDFF2C4C
:10913000FCD82146104602F04BFF90F0010F01D001
:10914000204670BD284670BD70B5084C050009D09A
:1091500010342168002907D0086820604968284633
:109160008847F6E70834F4E770BD00005445002056
:10917000054A012120B1012805D19170FFF7E4BF14
:1091800051700020FAE77047544500202DE9F05F48
:1091900026484168F1B3DFF898B00E688146DBF8E5
:1091A000004087688078E11B21F07F45ED1CB0B955
:1091B000DFF880804FF48030C8F84403C8F8040317
:1091C0001120FDF777FC1120FDF77FFC4FF0010A1D
:1091D000C8F800A02F2005F06DF889F802A0B5426C
:1091E00000D23546124BE8193C3320F07F4018601E
:1091F000DBF800105A46091B21F07F41001B20F0CC
:109200007F40C91C81420FD9106818602F2005F0DB
:1092100051F800E004E0BDE8F05F1120FDF760BC0C
:10922000BDE8F05F08F0A2B9BDE8F09FC0340020AF
:10923000041501400010014073B58CB006460020B3
:1092400000900D9880B100246D4621460DA802F0D3
:10925000F4FE30B1009805EB400084800098401C7B
:109260000090641C142CF0D32C2269463046FDF784
:10927000FDF80EB070BD2DE9F04117880646B81D07
:1092800014460D46984202D90C20BDE8F081318881
:10929000072206290AD34FF4486C4FF6FF73614545
:1092A00001D9994202D17088062801D21046ECE714
:1092B000604501D99842F9D1994203D0984201D032
:1092C0008142F3D80520E85520881221401C80B245
:1092D000208029542088401C80B220804119308889
:1092E00009F0B7FE2188084480B2208041197088B7
:1092F00009F0AFFE2188084420800020C5E7FEF772
:10930000BFBA000038B54A7A0F4B62B100220A7228
:109310005969002906D001228DF80020ADF802001D
:109320006846884738BD0A7A62B19B684C68024635
:1093300019462046FEF71EFB0028F3D0BDE8384052
:1093400008F088BB5B68F1E7C43E0020F0B587B049
:1093500016460F4604461D4618220B496846FDF77F
:1093600085F80A488DF80870ADF80240ADF80A603B
:109370008DF80C50017800222046FFF7D9F8684696
:1093800000F084FC07B0F0BD003B03005434002023
:10939000FDF7E0BF0C480D4910B5401AC008032185
:1093A00001EB00400AA104F0C7FA104C2078002815
:1093B00008D00F480068FFF708FE0E4805F044FD8E
:1093C0000120207010BD0000485E0300905D030086
:1093D000436F6E74726F6C20627574746F6E207060
:1093E0007265737365642E0A000000001633002056
:1093F000003300208A35002038B504460748084A63
:10940000694600680090207804F0AEFF08B1FEF7CE
:1094100037FA2078012104F055FF38BDDC3803000D
:10942000959302002DE9F0410F4D804616462868BD
:109430000F4640B90024204600F018F845F82400F3
:10944000641CFF2CF7D900200AE0316818F80030BE
:10945000CAB25A40401C55F8222082EA11213160DC
:10946000B842F2D3BDE8F081243A0020074A002137
:10947000C30701D0002300E01346491C83EA5000D3
:109480000829F5DB80F07F40704700002083B8EDAD
:10949000F0B585B001F0BCF905461E481E492A46C4
:1094A000401AC108032000EB014004461BA104F050
:1094B00047FA58212048FCF7F2FF00200090019065
:1094C000029003902F0CAEB2049003AB6A46314673
:1094D000384600F09BFDB8B117481749583007804F
:1094E00046804160162181600146684600F0D9FD42
:1094F00008B1FEF7C5F9204633463A460FA104F0FD
:1095000026FA284605B0F0BD20461AA104F014FA48
:109510000020F7E7485E0300905D03004372656139
:1095200074696E67206E657720757365723A2030B6
:109530007825303858200000C03900204E6577204B
:109540007573657220637265617465642C20666949
:109550006C655F69643A20307825303458202020CB
:109560007265636F72645F6B65793A20307825307D
:1095700034580A005573657220416C7265616479D4
:10958000206578697374732C2041626F7274696E00
:109590006700000070B58EB00E46054600241C2101
:1095A0006846FCF77CFF9DF80000019440F01A002B
:1095B0008DF8000003940494059406940C94B078FC
:1095C0008DF83000F0788DF831009DF832001421CC
:1095D00020F00600801C20F019008DF83200287B56
:1095E0008DF8360041F20140ADF8340007A8FCF7D1
:1095F00056FF0DA807900CA808901B20ADF824007A
:10960000ADF82640ADF828002888AB1C07AA6946AB
:10961000AADF0EB070BD000070B588B0064600200D
:1096200005900690ADF81410ADF816100190029058
:1096300001AA05A9304690DF050021D004F09AFD6B
:109640000346114811493246401AC108012000EB77
:10965000014004460E4904F07AF9BDF8042012B91D
:10966000BDF8060028B1BDF80630204609A104F077
:109670006EF9BDF808201AB12046164904F060F9C9
:1096800008B0284670BD0000B05D0300905D030087
:10969000E44A0300546865207265717565737465EA
:1096A000642054582F5258207061636B6574206C8D
:1096B000656E67746820697320746F6F206C6F6EBD
:1096C000672062792025752F2575206F6374657476
:1096D000732E0000304B03007047000070B5044645
:1096E0000948012102F0E2FCBFF35F8F002500284A
:1096F00008D1204602F086F8002803D1BFF35F8F1F
:109700000148056070BD0000C03300207FB50C46E5
:1097100010B1012004B070BD2079002638B141F6A7
:109720001D5501281BD0022826D00F20F2E7022069
:10973000207102960396E0680190694601A807F03F
:1097400077FD50B102988188E18000882081BDF8C2
:109750000010029807F0EAFDDCE70A20DAE70A4B7E
:109760006A460021A01D07F01FFD38B106491839CF
:109770008E61CE610A28CDD12846CBE70248818888
:10978000019807F0D3FDF5E7EC3400202DE9F8430C
:10979000054690F8C6020F4600EB8001C1EB801031
:1097A00005EB400695F8C542914604EBC40006EB74
:1097B00040013279601C0A31904226D16B4600226A
:1097C000284601F09BFD18B310E0401EA04201D1D5
:1097D000002004E004EBC40006EB40001C3080468F
:1097E00002466B46284601F089FD30B100203870F2
:1097F000694648469EDFBDE8F88395F8C5024146B4
:10980000401C641C85F8C502E4B23079A042DCD863
:10981000012038700020EEE72DE9F0470025DFF841
:1098200090803DE06068002100EBC50601203278A1
:109830009146FCF708FED4E9062300EA020701EA94
:10984000030C57EA0C0729D082438B434846C4E9EE
:10985000062304F0F1FD3278824691460120002172
:10986000FCF7F1FDD4E9042300EA020401EA03074E
:109870004A4650460021FCF7E6FD44404F403C4339
:109880000CD17078012801D0012000E0002072681E
:1098900080EA0A0012B1C1B2484690476D1CEDB291
:1098A00098F8000044468542BCD3BDE8F08700002C
:1098B000A03400202DE9F047894690F8C612904662
:1098C00001EB8102C2EB811100EB4107384607F042
:1098D0008DFD06002FD0194CA06806282BD2184DFC
:1098E000762205EBC0103946A0F80280001DFCF777
:1098F000BDFD0027B9F1000F04D0A06805EBC01032
:10990000077004E0A168022005EBC1110870A0688F
:1099100005EBC011401CCE67A060E16888420AD107
:10992000002604E005EBC610C16F8847761CE0688E
:109930008642F7D3A760BDE8F0870000A43300207B
:10994000703F002070B50E4690F8C612154601EB28
:109950008102C2EB8111A0B000EB410007F046FD8F
:10996000040009D07C2205496846FCF77FFDADF86C
:10997000025068460196A04720B070BD143903001C
:1099800070B50E4604464FF43371FCF788FD11485C
:109990000025A4F8CA62856084F8C9520E4884F88C
:1099A000C65284F8C5520068206022460121304624
:1099B0009BDF0121112806D0002809D184F8C712A5
:1099C00084F8C85203E084F8C71284F8C812002053
:1099D00070BD0000A4330020583F00200148FCF770
:1099E000FDBF00008A35002010B50021024802F0BA
:1099F0005DFB80F3100010BD244F00200E4910B510
:109A00000A784C780023A24212D0521CD2B20A70BB
:109A1000022A00D10B70084A0B780C3252F823202E
:109A200002608868104420F07F408860012010BDEB
:109A30000360002010BD0000C034002013460A4619
:109A40000021FFF783BC00002DE9F843104D0F46BD
:109A500080461E4691466946286802F082FA040054
:109A600014D01C21FCF71BFD01202071C4F81490B8
:109A7000380BC4F80080C4E902606946286802F027
:109A800091FA07F0FDFA0020BDE8F8830420FBE717
:109A9000003D030010B503780022072B06D2DFE853
:109AA00003F005040610202930000A7010BD0123C0
:109AB0000B7003898B818388CB81C06888600A74AE
:109AC00010BD02220A7002898A818288CA81C26816
:109AD0008A60807D062802D00020087410BD012015
:109AE000FBE703220A70C2888A810289CA81C068A2
:109AF000886010BD04230B70C0888881CA818A6089
:109B000010BD0520087010BD70B5064D0646002436
:109B100055F8241009B130468847641C042CF7D34B
:109B200070BD0000E047002030B50446006887B0F3
:109B30000D46806800281FD018216846FCF7AFFC4E
:109B40000195A0680590207910B1012810D107E097
:109B500001208DF8000020690290E068039005E084
:109B600002208DF80000E068000302906069049014
:109B7000206881686846884707B030BD2DE9F0410C
:109B800086B016460C00804629D0112C27D0082C10
:109B900025D018216846FCF782FCADF802804046CB
:109BA00001F0CEF9ADF804001B481C490027401A0B
:109BB000C5080D2C16D0204604F0DCFA0246012020
:109BC00000EB05404346164903F0C1FE07208DF81F
:109BD000000002948DF80C70684600F065F806B03D
:109BE000BDE8F081022000EB054042460D4903F03C
:109BF000A7FE03208DF8000026B13078C00701D001
:109C0000012000E002208DF8080041F201108DF8DB
:109C10000C70ADF80A00DFE7E85D0300905D03001B
:109C2000645503005454030010B50446408801F005
:109C300087F9A080024801682046BDE81040084727
:109C4000BC33002010B50446808801F0C3F8608062
:109C5000024801682046BDE810400847CC33002088
:109C60002DE9F04107460024064E074D05E000BFF0
:109C700056F8241038468847641CE8788442F7DB9D
:109C8000BDE8F08108450020E433002010B504460B
:109C9000408801F055F9A080024801682046BDE8DF
:109CA00010400847B43A030001490968084700001A
:109CB000583B030070B5054640681A4951F82030FA
:109CC0002878403151F8202017481849401AC10817
:109CD000032000EB0140044615A103F038FE28786C
:109CE000B8B1012801D003281AD16868002817D11B
:109CF000204615A1AA6803F023FEAA89204617A1D1
:109D000003F01EFEEA892046BDE8704017A103F06B
:109D100017BE6868002803D102490120091F087096
:109D200070BD000020330020485E0300905D0300FA
:109D30004576656E743A2025732072656365697691
:109D400065642028257329005265636F7264204979
:109D5000443A0930782530347800000046696C6553
:109D60002049443A09307825303478005265636FD1
:109D70007264206B65793A093078253034780000B8
:109D800070B586B0044618216846FCF788FBA089A8
:109D90000125A0F54040ADF804002078324E062899
:109DA00035D2DFE800F0340303032E4EA08900F023
:109DB000E1F930B9E08943F6FE71A0F540408842F0
:109DC00025D8A07B8DF808002078032811D000202A
:109DD0008DF80900A0680390606860B109208DF8D3
:109DE0000000606804908DF81450684605F0D6FEB7
:109DF0000DE00120ECE708208DF800008DF81050F0
:109E0000F3E7A08900F0B6F908B1E08930B17078C5
:109E1000002801D006F00CF806B070BD606840B1B3
:109E20000B208DF80000606802908DF80C50757062
:109E3000DBE70A208DF80000BDF8040006F096F874
:109E4000F5E7606858B114208DF800006068029052
:109E50008DF80C504FF6FF70ADF80400C5E71320E5
:109E60008DF80000F6E70000D033002038B5044636
:109E70000E480078A8B1A4F57F40FF380FD068469F
:109E800007F030F878B10521017001210171C4801B
:109E9000684607F035F807F0E5F8002038BD0420E3
:109EA00038BD022038BD082038BD0000F434002041
:109EB0000C4808B5007888B1684607F013F878B107
:109EC00006210170684607F01BF80748017809B1C0
:109ED0000121017307F0C6F8002008BD022008BD6B
:109EE000082008BDF4340020A4480020F0B587B055
:109EF00014216846FCF7D3FA2F4C207818B1684635
:109F0000FFF702FE55E0201D02F0B2F898BB40F6C4
:109F1000F8700168481C02D14FF0102041694FF0E1
:109F20008050026940694B1C01D100FB02F12348BB
:109F300000220161A1F54051C160214902F0CEFF2C
:109F4000002822D120481C238C221E49006801F0E1
:109F5000F5FF05F0B5FB050016D0022D14D0002743
:109F60000126062D13D005A806F0BCFF90B106709F
:109F70000C2D19D200E01CE0DFE805F0160E160EDD
:109F800016151615161012100B2007B0F0BD26700E
:109F90006760B4E70820F8E7077105E0032100E0F7
:109FA0000221017100E0067105A806F0A9FF07F083
:109FB00059F80020E9E70000F4340020A83500201B
:109FC000103D0300F0470020783C030038B5040042
:109FD00014D0694607F02CF9A0B1BDF8000000EBE1
:109FE0008001094800EB8100C16849B1A17A39B10B
:109FF000C168491EC1600020A07238BD052038BD6F
:10A00000062038BD0A2038BD7C4800201FB501A9B4
:10A01000684607F0C9F804B010BD07B513460A46F4
:10A020006946002007F0C0F80EBD07B513460A4682
:10A030000021684607F0B8F80EBD20B119B10068DC
:10A04000086000207047052070470000F8B50D46F5
:10A05000040018D0BDB1694607F0EAF8A8B1BDF810
:10A0600000000B4900EB800001EB800001210C3067
:10A07000666802F000F82E6060680C3068600120AD
:10A08000A0720020F8BD0520F8BD0A20F8BD000030
:10A090007C48002018B10323002209F0A1BA052052
:10A0A00070470223002209F09BBA0000084910B54E
:10A0B0000A69042A0AD0074A096942F821000448BB
:10A0C0000121103001F0D7FF002010BD0C2010BD81
:10A0D000D4340020E04700202DE9F84F04462348FF
:10A0E0000078D8B1ECB112212046FCF7D8F9032052
:10A0F000DFF87C902080002504F1100804F10E0A9E
:10A1000005EB850109EB810630897189084487B226
:10A11000706805F05FFA032805D007E00220BDE86B
:10A12000F88F0520FBE72088401E20806088F168BA
:10A1300008446080208971890844208160893844FE
:10A140006081C7F58060A18980B2814200D2A08180
:10A150005346A21D211D2846CDF8008007F002F9C4
:10A160006D1CADB2022DCBD30020D8E7F434002013
:10A170007C48002043F6FE71A0F54040884201D89B
:10A18000012070470020704710B504460078182859
:10A1900002D1FEF7A9F9207010BD10B50446007871
:10A1A000182802D1FEF7A0F9207010BD70B50D4639
:10A1B0000446B0F83812D0F834020122FDF799FEB7
:10A1C00000B1057004F13C0204F50D7104F1540076
:10A1D00072DF70BD70B5134600220546112900D10B
:10A1E0000122074C33B12179FEF7A2F900226178F0
:10A1F000284600E06178BDE87040FEF799B900009C
:10A200005C340020F7B517460E0011D000980025E9
:10A2100060B100242146684601F00FFF18B1A0B2DA
:10A220003946B0476D1C641C142CF3D32846FEBD80
:10A230000020FEBD406806F075BE00000EB514A1FA
:10A240009DF8080020F00F00401C20F0F0001030B6
:10A250008DF80800092202A87CDF08B1FDF710FB89
:10A260000020009001900D48018EADF80010418E45
:10A27000ADF80210818EADF80410C08EADF8060066
:10A2800068467ADF002801D0FDF7FAFA0EBD00001B
:10A290004D4163656E7472616C0000006C38002083
:10A2A00070B508B1012070BD1B4C0025207B08B1A2
:10A2B000257301E000F0A4F8207808282AD2DFE80E
:10A2C00000F02904080C10291422BDE8704000F0A9
:10A2D00025B8BDE8704000F081B8BDE8704000F0DE
:10A2E00063B8BDE8704000F03FB806202070608879
:10A2F000094900EB8000283901EB80004068BDE887
:10A30000704005F0BDB9072020706560BDE8704061
:10A3100005F0C4B90F2070BDA44800201149F0B465
:10A320008A1C00200346A1F128050C18A67A4EB11C
:10A33000A37200EB800405EB8404E66816B9247C64
:10A34000012C0AD0401C80B20228EED30B704B8047
:10A350004B60F0BC41F61D5070471080F0BC00F01F
:10A360003DB80000A44800200C48418801EB810260
:10A37000A0F1280101EB8201CA6852B105210170E8
:10A38000074802218180016800230122054802F06C
:10A3900009BD042202704968F6E70000A4480020C5
:10A3A000FC340020A835002038B50A4908480324A9
:10A3B0000B684268898803EB810153880470DB1CB9
:10A3C00000201B0400909B0B034802F067FE38BD81
:10A3D000A4480020FC340020A8350020074910B50F
:10A3E0004888091D06F074FF18B1BDE81040FFF75A
:10A3F000DBBFBDE81040FFF7B7BF0000A448002056
:10A40000F0B51F481F490125067802248B88A0F16A
:10A410002802082E19D2DFE806F00418181B222F94
:10A420002F170189491C01810021418080F80C10FF
:10A4300001EB810312F8233043B100234418491C77
:10A4400089B2A3720229F3D30570F0BD0123F5E7A9
:10A4500042685288D21C1A448A800470F0BD468833
:10A460000D6806EB860602EB860256680E605560A4
:10A4700013818C80062100E007210170F0BD0000EF
:10A48000A4480020FC3400202DE9F04306468088D3
:10A490003288DFF85C8187B00746502A37D010DC5D
:10A4A0005449554B06F10A05A1EB03014FEAD101CE
:10A4B0004FF0020303EB0144352A3AD0362A07D184
:10A4C00068E0522A02D0542AF9D102E001F03EF9A4
:10A4D00082E0182249496846FBF7C8FFADF80270D0
:10A4E000384600F02DFDADF8040000F09FFA002280
:10A4F000444698F804103846FEF71AF80022E1782E
:10A500003846FEF715F86846FFF78EFB64E0307BAF
:10A51000012861D1B07A01285ED13089A0F524519B
:10A52000023959D10121384601F064F908F000FEE2
:10A5300052E098F80610FDF7E3FF00284CD0002207
:10A5400098F806103846FDF7F3FFF288B2F5857FDC
:10A5500017D012B120462AA10BE02A88012A03D085
:10A56000204636A103F0ECF96A88012A04D020467F
:10A5700041A103F0E5F904E0A98800223846A1DFF3
:10A5800008B1002125E0012298F807103846FDF7B0
:10A59000CFFF21E04FF0000998F80710FDF7B0FF5A
:10A5A000D0B1002298F807103846FDF7C1FFF288B5
:10A5B00012B1204612A104E0AA88012A04D0204644
:10A5C0002DA103F0BDF903E0A87900B10120814677
:10A5D0004946384608F058F80022364998F80200F3
:10A5E000FDF738FF07B0BDE8F04307F0BBBA000045
:10A5F000B4330020985D0300905D0300F43903003C
:10A60000556E6578706563746564204741545420C5
:10A61000737461747573207768696C6520676574FD
:10A6200074696E67204341522063686172207661CD
:10A630006C75653A20307825780000004D756C7493
:10A6400069706C6520282564292043415220636885
:10A650006172616374657269737469637320666F94
:10A66000756E642C207573696E672074686520664A
:10A67000697273742E000000556E6578706563749E
:10A68000656420434152206368617261637465723E
:10A6900069737469632076616C7565206C656E679B
:10A6A000746820282564292C2073746F726520300B
:10A6B0002E000000A97B020070B504460078002837
:10A6C00014D1608801F042F86588284600F070FADD
:10A6D00028B107480122C1782846FDF729FF608884
:10A6E000FEF784FCBDE8704008F022BD70BD00009C
:10A6F000B433002070B5204C00252570FDF7F4FE22
:10A700006070FDF7F1FEA070FDF7EEFEE070FDF762
:10A71000EBFE2071FDF7E8FE6071FDF7E5FEA0712C
:10A72000FDF7E2FEE07162780121182A18D0A278C4
:10A73000182A15D0E278182A12D02279182A0FD0B8
:10A740006279182A0CD0A279182A09D0182807D0C3
:10A7500004F10C000560BFF35F8F2170002070BD15
:10A760000648074A801AC00801EB0040054903F07B
:10A77000E3F8032070BD0000B4330020985D0300AF
:10A78000905D0300A44703007CB5044600780828C8
:10A7900037D1607A58BB207A1C4E4FF6FF750128DE
:10A7A00011D0072802D008282BD121E0A08800F082
:10A7B00011FB0446A84224D0012101F01BF82046D9
:10A7C000FEF714FC1DE0A0886A46012105F008F997
:10A7D00068B90198007850B1A08800F0FBFAA8424F
:10A7E0000FD00122F178FDF7A3FE07F0BBF908E0D6
:10A7F000F068012805D1BFF35F8F044900200C31B8
:10A800000860BDE87C4008F093BC0000B433002031
:10A8100038B50546002000900B480C49401AC10885
:10A82000032000EB01440AA1204603F085F82046EE
:10A830000622294603F02CF86A4606212846FEF730
:10A84000F1FD009838BD0000485E0300905D0300F4
:10A8500047656E65726174696E6720494420666F52
:10A860007220000070B5054609480E46006804696C
:10A8700009E0D4E9000133462A46FCF7FAFE08B1A4
:10A88000204670BD2469002CF3D1002070BD00006B
:10A89000183300202DE9F041884605462148224919
:10A8A00088B0401AC108032000EB014004462A4644
:10A8B0001EA103F045F800262F0CADB200960196BC
:10A8C0000296039620462B463A461FA1049603F0B3
:10A8D0003EF803AB6A4629463846FFF797FB002847
:10A8E000204606D025A103F027F8002008B0BDE8D7
:10A8F000F08128A103F020F8059605A96846069680
:10A90000FFF7A4FB08B1FCF7BBFF582240460699AD
:10A91000FBF7ACFD6846FFF759FB08B1FCF7B0FF49
:10A920000120E3E7485E0300905D0300476574740F
:10A93000696E672075736572206461746120307878
:10A94000253038580000000047657474696E672030
:10A95000646174612C2066696C655F69643A2030BB
:10A9600078253034582020207265636F72645F6BE5
:10A9700065793A2030782530345800005573657277
:10A98000207265636F7264204E4F5420666F756E3F
:10A99000642E000055736572207265636F726420C7
:10A9A000666F756E642E0A002DE9F04180460246FE
:10A9B00001200021FBF747FD1A4F05460E46786837
:10A9C000FDF71CF800280CD1174CD4E906211046DD
:10A9D0002A4001EA06031A4305D0A843B143C4E95B
:10A9E0000601BDE8F081404603F026FD30B1D4E910
:10A9F000040128433143C4E9040105E0D4E904100B
:10AA0000A943B043C4E90410D4E906012843314303
:10AA1000C4E90601A1687868BDE8F0410022FCF7AE
:10AA2000A9BF0000683C0300A03400201CB5054A03
:10AA3000D2E90212CDE900120022694605F096F92A
:10AA40001CBD0000103A030003484FF6FF718180DF
:10AA50000121017000207047C43300202DE9FC4122
:10AA6000804600F06DFA002403250127A0F57F4100
:10AA70002646FF3908D06A46082104F0B1FF18B90C
:10AA80000198841D8688056832462B46214640463B
:10AA9000B1DF042804D0082804D00B2808D002E035
:10AAA000112000E00020002F00D10B20BDE8FC8128
:10AAB0000027A80701D50125E6E7344303D0002489
:10AAC00026460325E0E7064806494246401AC008E4
:10AAD000012101EB0040044902F032FFE5E70000EC
:10AAE000A05D0300905D03006C4A03002DE9FC416A
:10AAF000804600F025FAA0F57F410646FF390ED0CA
:10AB000001252A466D1C0027ADB26B460821304650
:10AB100004F0B0FF040006D0072C33D033E043F23A
:10AB20000200BDE8FC81019903230A1D0B60404629
:10AB3000891DB2DF040004D00C2C09D0052C09D0EB
:10AB400009E032460821104605F00CF804461AE0E8
:10AB5000012700E000240821304604F0F9FF70B11D
:10AB600003F008FB0346094809493246401AC00869
:10AB7000012101EB0040074902F0E9FE0324002F08
:10AB8000BFD100E00C242046CBE70000A05D03000D
:10AB9000905D0300EC49030004488088A0F57F41E4
:10ABA000FF3901D006F0E8BF70470000C433002031
:10ABB0000EB502A9019100F0C3F96A46012104F023
:10ABC0000FFF08B100200EBD019800780EBD0000F7
:10ABD0002DE9F04107464FF6FF761048B3DF78B114
:10ABE00003F0C8FA02460E480E49401AC008012177
:10ABF00001EB00400C4902F0A3FE0320BDE8F08108
:10AC0000064C43F20305A41E324661883846AFDF86
:10AC1000A842F3D16088401C6080F5E7C63300206D
:10AC2000A05D0300905D0300A0490300428800EB93
:10AC300082020C328A4201D9022070478188A1F534
:10AC40007F42FF3A03D0008808B1002070470120FE
:10AC50007047884204D20068401C01D00120704730
:10AC60000020704710B502F0F9FC002803D1BDE8C0
:10AC7000104003F009B810BD3EB5027802230C461F
:10AC8000B3EB520F17D1B0F80110ADF80010C17836
:10AC90008DF802108188ADF8041080798DF80600D7
:10ACA00002AA01A92046FCF728FD032202A9684652
:10ACB000FBF715FC08B100203EBD01203EBD0000A1
:10ACC00070B50D460446142810D2FDF751FC68B14A
:10ACD000084904EB840001EB4000D0F80210296021
:10ACE000C188A980007AA871002070BD43F20200DB
:10ACF00070BD00007042002070B5018892B010292C
:10AD000061D1011D2C226846FBF7B0FB9DF80400C1
:10AD10004FF6FF7603213446B1EB500F2BD004F0F1
:10AD2000E3FF9DF804006D4640080ED001280CD0CA
:10AD3000022820D118E00D99281D1131FCF774FC70
:10AD400018B100BFBDF82C4015E00CAA0BA90720D4
:10AD500004F09EFF0028EED10DE00D99281D491C3E
:10AD6000FFF78AFF0028EDD10CAA0BA9072004F0F9
:10AD70008FFF0028F1D1BDF80000B44200EB800144
:10AD8000124820F8114000EB41000199C0F8021070
:10AD9000BDF80810C1809DF80A10017213D0BDF8EB
:10ADA0000000ADF82E000020ADF83040084E8DF8C0
:10ADB0002C000BAD044600BF56F8241028468847E7
:10ADC000641C022CF8D312B070BD00007042002049
:10ADD000243A03002DE9F0414FF6FF760546B042D4
:10ADE00013D00B4F002400BF04EB840037F8100091
:10ADF000A84206D12046FDF7BBFB10B12046BDE8B6
:10AE0000F081641CA4B2142CEED33046F7E70000A6
:10AE1000704200203EB50C46054604F065FF0BE08D
:10AE2000BDF80000A04207D02846029900F00EF8B5
:10AE300010B1BDF800003EBD01AA6946072004F02C
:10AE400027FF0028ECD14FF6FF703EBD2DE9F04101
:10AE50000C46054600F1110701F111061022491CAC
:10AE6000401CFBF73CFB48B9681C00F085FA28B190
:10AE7000601C00F081FA08B1012400E00024314692
:10AE80003846FCF7D1FB3B780222B2EB530F0CD0D3
:10AE90000321B1EB530F08D03378B2EB530F04D03A
:10AEA000B1EB530F01D0012100E00021084201D194
:10AEB0008C4302D00120BDE8F0810020FBE701882F
:10AEC00011B9421892780AB101207047491C08292B
:10AED000F7D30020704710B50C460346FFF7EFFF8D
:10AEE00000280AD018882188884205D10822A11C90
:10AEF000981CFBF7F4FA08B1002010BD012010BD2A
:10AF0000142804D2024A00EB800022F81010704787
:10AF10007042002070B50546FFF75CFF04462846E6
:10AF200004F062FD002808D1142C06D2034B04EB78
:10AF300084024FF6FF7123F8121070BD704200209A
:10AF400010B50446142808D2FDF712FB28B10449B5
:10AF500004EB840031F8100010BD4FF6FF7010BDF7
:10AF6000704200203EB5044604F0BEFE0EE001999A
:10AF700020464631FFF7AFFF28B9019920462A3114
:10AF8000FFF7A9FF10B1BDF808003EBD6A4602A94F
:10AF9000072004F07DFE0028E9D14FF6FF703EBD8A
:10AFA00010B50A4941600A4801F062F858B903F047
:10AFB00067F807491C238C22087404488C39001F49
:10AFC000006800F0BBFF002010BD0000043D03003E
:10AFD000504900202DE9F0412D4F002518B17D602A
:10AFE0000120BDE8F0810879012258B1294E0128DD
:10AFF0000CD0274C4FF002080834022821D0032837
:10B0000042D128E00A7104F049FB3BE05FF0000008
:10B0100000EB800116F82110022908D0401C80B2F4
:10B020000228F5D33A707D6041F61D50D9E700EB58
:10B03000800006F8205006EB8000406804F020FBFA
:10B0400020E00D71A4F80480002301221248216839
:10B0500001F0A8FE16E00D71206804F011FB0D4907
:10B0600023682831498801EB810206EB8201D1F87F
:10B0700004C0C4F800C04B60A3880B81A4F804800E
:10B0800006F822500028ACD07D600E20A9E7000011
:10B09000F43400207C480020A835002001460348F5
:10B0A00002888A4200D0002070470000B03E002095
:10B0B0002DE9FC5F0E008346DDE90C47C6F1000078
:10B0C00098469246814600D40846012503E000BF19
:10B0D00090FBFAF06D1C5045FADAA84500D94546B8
:10B0E00024B1002E01DB780700D5641EB80702D515
:10B0F000B8F1000F0AD0F80708D13CB1A54205D23B
:10B1000020215846641EFDF731FFF6E7002E02DAD3
:10B110004E462D2102E0780703D52B215846FDF736
:10B1200025FF07F0030002280BD1B8F1000F08D16A
:10B130003CB1A54205D230215846641EFDF716FFEA
:10B14000F6E7CDE90047434652463146584607F0F8
:10B1500095FFBDE8FC9F000070B50D4604460068F1
:10B160004FF4887103F031F84FF49071206803F0C8
:10B170002CF84FF49271206803F027F84FF4A27175
:10B18000206803F022F820681149C0F804132068F1
:10B19000690740F30730090E002806DA00F00F00B7
:10B1A00000F1E02080F8141D03E000F1E02080F8B9
:10B1B00000142068012140F3073000F01F02914085
:10B1C0004009800000F1E020C0F8001170BD0000CF
:10B1D00010030200024600201268530713D502F044
:10B1E0000300012802D002280CD105E0C2F383102D
:10B1F0000B68801C184404E00223086803EB925299
:10B2000010440860012070472DE9F04791468846B8
:10B2100004464FF480354FF4A0760027DFF884A071
:10B2200016E000BFD4F8040328420DD0A05958B14D
:10B23000C4F84853C4F808533146204602F054FD80
:10B240005AF82810F8B28847361D6D00B6B27F1C38
:10B250004F45E7D3D4F804034FF4807110F0010F89
:10B2600009D0D4F8000130B1204602F03DFD5AF873
:10B27000281004208847D4F804034FF4827110F09A
:10B28000020F0CD0D4F80401002808D0204602F0A8
:10B290002BFD5AF82810BDE8F04705200847BDE807
:10B2A000F0870000983400200248007A002800D07F
:10B2B0000120704750490020F0B58488A5189442B9
:10B2C00000D82246A41AC288D6189A4200D813463B
:10B2D000D21A4B880788BB420CD34088834209D8D6
:10B2E0008888A04206D3A84204D8C888904201D3D7
:10B2F000B04201D90020F0BD0120F0BD10B5098990
:10B300002AB1D088491C814218D1002010BD90F884
:10B31000C62202EB8204C4EB821200EB42021289C5
:10B320009142F2D0491C198090F8C61201EB8102BB
:10B33000C2EB811100EB4100008902E01980D08846
:10B34000401E5880012010BD70B5054609480E46C4
:10B350000068046909E0D4E9000133462A46FCF795
:10B3600088F908B1012070BD2469002CF3D10020B8
:10B3700070BD0000183300200021425C0AB101209A
:10B380007047491C1029F8D30020704790F83A0004
:10B39000C0F3C100012803D0032801D0002070476A
:10B3A00001207047800701D00020704701207047BE
:10B3B0000348006800E0084601690029FBD1704796
:10B3C000183300200A4810B5807860B1002401E0ED
:10B3D000022C06D02046FDF783FB641C042CF7D317
:10B3E00010BD0324F6E7BDE81040FDF799BB00004F
:10B3F0008433002003480179C90702D00078FDF7A3
:10B4000089BC7047843300201721018041800021CE
:10B41000017141711B218171C17170472DE9FE4F8E
:10B420002E4F984692460D00814601D000260DE031
:10B43000684600F059FD6A460021484604F028FAA3
:10B440003878009E10B99DF8090098B152463146EF
:10B45000484606F001FF0446014600224846FEF732
:10B46000B9FE0D2C37D008DCA4B3082C33D00B2C3C
:10B4700009D130E00520BDE8FE8F112C1ED0A4F5C7
:10B480004050023827D0204602F074FE024614488D
:10B4900014494B46401AC008012101EB00401249F3
:10B4A00002F055FA5FF00305B8F1000F04D0324600
:10B4B00021464846FEF762FB2846DCE72A46F97833
:10B4C0004846FDF735F85246B9784846FDF730F85A
:10B4D0000025E9E7FFE72546E6E700005C340020A9
:10B4E000E85D0300905D03000C5503007EDF042837
:10B4F00000D111207047000070B50D0014460646BB
:10B5000017D01648C1783046FDF712F83046FFF7DD
:10B5100017FD0146A0F57F40FF3800D074B12946E1
:10B520003046FFF7E3FF04462878C0070BD001221E
:10B530000AE0BDE870400021FFF7D8BF304600F0B8
:10B540000FF8044605E002222CB10021304606F037
:10B5500039FA204670BD0121F8E70000543400207C
:10B560007CB50E4605466A460721304604F038FA97
:10B57000040013D0052C1DD0112C2BD002F0FAFDA5
:10B580000246194819493346401AC008012101EB07
:10B590000040174902F0DBF903241BE0019C94F8FA
:10B5A0004400183410F0010001D0019C34340CB177
:10B5B00010B106E011240DE004F11200FFF77FFC4A
:10B5C00038B1224604F11201284685DF040008D074
:10B5D00000E00B2400210022284606F0F3F9204663
:10B5E0007CBD0121F7E70000E05D0300905D0300F2
:10B5F0009C53030070B514460D46064606F012FA39
:10B6000000280FD0304604F0E9F8002822462946E9
:10B61000304603D0BDE8704004F0E6B8BDE87040A5
:10B62000FEF70CBA70BD000070B5094D0646A9784A
:10B63000FCF766FF0446E9783046FCF761FF0146F7
:10B6400022463046BDE870400123FFF7E7BE000008
:10B650005C3400202DE9F047394E002780463D46F6
:10B66000DFF8E090D6F804A057E003D00446D0F805
:10B670001C8035E099F8002002EB4201521CD2B246
:10B6800089F8002009EBC10199F80230091D9A429E
:10B6900001D189F8005048680A780446012A12D07E
:10B6A000022A02D0032A3BD108E007F0A3F800B138
:10B6B0000127257434E00574C06900E07068002833
:10B6C000F9D170602CE0207C50BB88686060C8684D
:10B6D000A0600869E0604869A061F07800B1656029
:10B6E0006268B168184B501A20F07F40984202D22D
:10B6F000A168084406E0881AA16820F07F408142D2
:10B7000002D9081A206000E0256065600120A5606C
:10B7100020742046E56107F04FF8B8F10000A4D18D
:10B7200099F8001099F801008142A3D117B9716806
:10B73000514502D00120BDE8F0870020FBE7000062
:10B74000C0340020AC460020FFFF7F00F0B587B07A
:10B750000546002718216846FAF7A1FEA5F57F40A7
:10B76000ADF80250FF3825D02846FFF777F90400DE
:10B7700022D01B481B49401AC6080B2C22D0112C82
:10B780001ED0A4F5405002380ED0204602F0F2FC44
:10B790000246012000EB06402B46134902F0D7F881
:10B7A0002146284606F05EF910483A468178284638
:10B7B000FCF7BEFE07B0F0BD0E208DF800000BE0D8
:10B7C0000127F1E70F208DF80000022000EB064072
:10B7D0002A46074902F0B4F86846FEF725FAE3E77F
:10B7E000985D0300905D030074480300B4330020AB
:10B7F000C84803000A4602494978FCF799BE000090
:10B80000B43300202DE9F041002786B080463E4643
:10B81000FFF76CF9040022D0112C22D01B481C49E0
:10B82000401AC508862C1ED0A4F5405002380ED010
:10B83000204602F09FFC0246012000EB05404346F3
:10B8400014A102F084F82146404606F00BF939466F
:10B850004046FFF7CFFF06B03046BDE8F081012635
:10B86000F5E70127F3E718221A496846FAF7FEFDC3
:10B870000220ADF8028000EB0540424616A102F01E
:10B880005FF86846FEF7D0F9E1E70000985D030035
:10B89000905D03006773636D5F6C6F63616C5F64E1
:10B8A000625F63616368655F7570646174652829B0
:10B8B0002072657475726E656420257320666F72E0
:10B8C00020636F6E6E5F68616E646C653A202564FC
:10B8D00000000000C4390300466C6173682066757F
:10B8E0006C6C2E20436F756C64206E6F74207374C3
:10B8F0006F7265206461746120666F7220636F6E81
:10B900006E5F68616E646C653A202564000000001B
:10B910002DE9FF410026234800F0A7FB2148001F26
:10B92000074600F0A2FB204C60680090A56800E08C
:10B9300000986946284004EB80000C30FFF74AFC71
:10B940000028F5D101AA009901EA050304EB83035D
:10B95000491CDB6842F82030401C00910228F2D3D9
:10B96000019800F0030001280BD0022810D10198A3
:10B97000032101EB90500099BDF80A6001EB9000A3
:10B9800005E00198BDF80A60C0F3831008440090F8
:10B99000384600F067FB08B10098606004B030469C
:10B9A000BDE8F081204F0020084B0020ACB04FF4E0
:10B9B0000041002002F03EF808B1FBF761FF01F002
:10B9C0003FFEFBF7ADFF08B1FBF75AFF0021032054
:10B9D000FDF756F908B1FBF753FF69460020FDF764
:10B9E000C3F808B1FBF74CFF9DF8000002287DD09A
:10B9F0005FF0000502F034F908B1FBF741FF02F0F7
:10BA0000F3FA08B1FBF73CFF0026694601200096D7
:10BA100002F07AF908B1FBF733FF684602F0F4F957
:10BA200008B1FBF72DFF05F011FEFEF707FC002122
:10BA30005D4800F0B0FB08B1FBF722FF1C2168460F
:10BA4000FAF72DFD4FF42030CDE900604FF470205F
:10BA5000032702908DF80C704FF6FF70ADF80E00C2
:10BA6000012452488DF81040CDE905606846FCF786
:10BA70009FFC08B1FBF704FF4D48FCF7F5FD08B14A
:10BA8000FBF7FEFE04F0B8FA00969DF80100694647
:10BA900020F00F00401C20F0F00010308DF8010065
:10BAA0009DF8020020F00F00401C20F0F000103044
:10BAB0008DF802009DF8030020F00F00401C20F0DC
:10BAC000F00010308DF8030037481038FCF78CFD7B
:10BAD00008B1FBF7D5FEAC216846FAF7E0FC02207E
